:02000004085F93
:10E0000000E05F08FCFF5F0800000600200005013B
:08E010000401B414000000003B
:10E018000E480F4908B5884205D00E4A824202D000
:10E028000D4B121A98470D480D4A00210D4B121A34
:10E0380098470D480D49884205D00D4A824202D0C2
:10E04800054B121A9847014808BD00BFD8AD071004
:10E0580094FC5F0848AE07102D0D111048AE07104C
:10E06800E8AF0710A10E1110F0E33F0288E05F0847
:0CE07800FCFF3F0219E05F080000000000
:08E088007CE05F08E4FD3F02AB
:10E09000034613F8012B002AFBD1181A01387047E8
:10E0A00070B501F0B7FA0025054E064CA41BA40874
:10E0B000AC4200D170BD56F8043B98470135F7E7F4
:10E0C000D8FF3F02FCFF3F0200F014B808B500F093
:10E0D0004FF8BDE8084001F055BA00F06BBE00F003
:10E0E00077BE0078B0FA80F04009704701230370D2
:10E0F000704700001FB5002401F0B4F94FF4165129
:10E1000001F0A4F901A8CDE90144ADF80C4000F0FC
:10E1100095FE1448224623462146406800F0E8FD5B
:10E1200001A800F0C7FA01230F4C01A92046ADF861
:10E13000043000F0C7FA204600F0F4FA684600F018
:10E1400054F80E238DF800300B23084C6946204606
:10E150008DF8013000F04FF8204600F0B1F804B01F
:10E1600010BD00BFE0AE071060AE071054AE071040
:10E1700008B502220121044800F0B1F8BDE80840CA
:10E180004FF47A7000F04EBE54AE071010B5002464
:10E19000064B074A0120C3E900449A6000F000FDE5
:10E1A0002146BDE81040012000F016BD48AE071022
:10E1B0000000FFFF02460144002030B58A4213D020
:10E1C000082412F8015B80EA050313F0010F4FEAFF
:10E1D00050001CBF80F08C03D8B2631E13F0FF0404
:10E1E0004FEA5505EFD1E9E730BDFF2303704370D7
:10E1F00001238370704738B50C46054600F018FAC5
:10E20000A37853B9237828462B7000F012FA013016
:10E210004FF0FF3018BF002038BD6378F3E738B502
:10E22000851C2946044600F01AFA431C0BD0A3783B
:10E230003A2B09D107212846FFF7BCFF637A181A49
:10E2400018BF4FF0FF3038BD4FF0FF30FBE7837A47
:10E250000146FF2B01D100F012BA023100F016BACC
:10E2600070B50C460021C0B00546164601A8FC2238
:10E27000009101F064FB5A23324621460DF1010062
:10E280008DF8003001F04EFB2846FFF7E0FF6946AD
:10E290000446721C284600F0D2F9204340B240B038
:10E2A00070BD07B541F0FC018DF80410C94302228E
:10E2B0008DF8051001A9FFF7D3FF03B05DF804FB4B
:10E2C000332310B583720446FFF7A9FF431C05D022
:10E2D0002046BDE810400121FFF7E3BF10BD114308
:10E2E000FFF7DFBF024B0021188001F003BA00BF27
:10E2F00078AE071010F0010FF8B5374C374D384F96
:10E3000036D000F04FFE2688D5E88F3FDA0709D4D3
:10E310002846FFF7E6FE28B100F058FA3860284694
:10E32000FFF7E4FE0C2373433968C85CCA182D4913
:10E330002D4B5278002818BF0B460121186801FAAE
:10E3400002F220EA02001860586802435A602088EE
:10E3500000F04AFA082000F01DFA2088002100F0A1
:10E3600043FA00F021FE3420BDE8F84000F012BA74
:10E3700000F018FE2688D5E88F3FDB0709D4284631
:10E38000FFF7AFFE28B100F021FA38602846FFF70A
:10E39000ADFE0C2373433968C85CCA181149124B8F
:10E3A0005278002818BF0B460121186801FA02F2C2
:10E3B00020EA02001860586802435A60208800F082
:10E3C00013FA392000F0E6F92088002100F00CFA59
:10E3D00000F0EAFD0320C7E778AE071070AE071023
:10E3E00074AE07100044014800400148F8B500F041
:10E3F000D9FD2D4C2D4E2788D6E88F3F13F0010F05
:10E400002B4D09D13046FFF76CFE28B100F0DEF944
:10E4100028603046FFF76AFE0C237B432968C85CFE
:10E42000CA182449244B5278002818BF0B460121F2
:10E43000186801FA02F220EA0200186058680243E4
:10E440005A60208800F0D0F9082000F0A3F90021DC
:10E45000208800F0C9F9032000F09CF92488D6E850
:10E460008F3FDB0709D41148FFF73BFE28B100F0CE
:10E47000ADF928600D48FFF739FE0C2363432A6885
:10E48000D1184D78D15C0B4A0B4B002918BF1346AD
:10E490001C6D00F089FD312000F07CF924FA05F0B4
:10E4A00000F00100F8BD00BF78AE071070AE071095
:10E4B00074AE07100044014800400148F8B5074613
:10E4C0000D460826012407EA0400012818BF002091
:10E4D000FFF710FF6400013EE4B2F4D1002D38D004
:10E4E00000F060FD1B4D1C4E2C88D6E88F3F13F0CA
:10E4F000010F1A4F09D13046FFF7F3FD28B100F0A4
:10E5000065F938603046FFF7F1FD0C236343386846
:10E51000134AC118C05C134B4C78002818BF13462F
:10E5200001228978A240052901D008290BD1596818
:10E5300021EA02025A602888012100F055F9BDE85D
:10E54000F84000F031BD19681143196059680A4359
:10E55000F0E7F8BD78AE071070AE071074AE071084
:10E56000004401480040014870B5082601240025F8
:10E57000FFF73CFF012808BF25436400013EE4B2D9
:10E58000F6D1284670BD000010B50024054B1C7064
:10E59000054B1C6001F0DAF82146BDE8104000F0A0
:10E5A000EFBC00BF7AAE07107CAE071008B501F0D3
:10E5B000CDF8054B196800F0E3FC01F0C7F800F056
:10E5C000E3FC002008BD00BF7CAE071010B50C4670
:10E5D000044B196001F0BAF8214600F0D1FC00208C
:10E5E00010BD00BF7CAE0710014B002019707047B2
:10E5F0007AAE071013B50C46019201F0A7F80B4B49
:10E60000197800F0C7FC01F0A1F803682146DB6827
:10E61000019A984701F09AF8012100F0BFFC0138F7
:10E6200018BF4FF0FF3002B010BD00BF7AAE071028
:10E63000704708B50078FFF755FE002008BD70B59B
:10E640000C4616460025ABB29E4205F1010504D9E1
:10E650000021E05CFFF732FFF5E7002070BD38B520
:10E6600055200C460021FFF729FF651E0734FFF7F0
:10E670007BFF05F8010FA542F9D1002038BD08B590
:10E680000021CC20FFF71AFF002008BD38B5552027
:10E690000C460021FFF712FF651E073415F8010F25
:10E6A0000021FFF70BFFA542F8D1002038BD642000
:10E6B00000F0B8BB4FF6FF73038000234360402394
:10E6C0000372704730B50D46044685B001A8FFF7C8
:10E6D0005BFF6B68204602932B7801A98DF806300A
:10E6E0006B788DF805302B7A2373FFF75FFF0130CD
:10E6F0000AD0217B2046FFF777FF20466968FFF7A5
:10E7000065FF002005B030BDFF20FBE7FE2307B505
:10E7100001220DF107018DF80730FFF76BFF03B001
:10E720005DF804FB07B50190FFF7C1FFFFF7BFFFDE
:10E73000FFF7BDFFFFF7BBFFFFF7B9FF0198FFF73A
:10E74000E5FFFFF7B4FFFFF7B2FFFFF7B0FFFFF7FA
:10E75000AEFFFFF7ACFF03B05DF804FB09B504485A
:10E760000068044B03441B685B6C029309BD000006
:10E77000D8AD07103000000009B504480068044B0C
:10E7800003441B685B68029309BD0000D8AD071005
:10E790000000000009B504480068044B03441B68EE
:10E7A000DB68029309BD0000D8AD0710000000002F
:10E7B00009B504480068044B03441B685B69029375
:10E7C00009BD0000D8AD07100000000009B50448DD
:10E7D0000068044B03441B681B68029309BD0000DA
:10E7E000D8AD07101400000009B504480068044BB8
:10E7F00003441B689B68029309BD0000D8AD071055
:10E800001400000009B504480068044B03441B6869
:10E810001B6A029309BD0000D8AD07101400000068
:10E8200009B504480068044B03441B685B6A029303
:10E8300009BD0000D8AD07101400000009B5044858
:10E840000068044B03441B681B68029309BD000069
:10E85000D8AD07101000000009B504480068044B4B
:10E8600003441B68DB68029309BD0000D8AD0710A4
:10E870001000000009B504480068044B03441B68FD
:10E880009B69029309BD0000D8AD0710100000007D
:10E8900009B504480068044B03441B68DB69029314
:10E8A00009BD0000D8AD07101000000009B50448EC
:10E8B0000068044B03441B681B6A029309BD0000F7
:10E8C000D8AD07101000000009B504480068044BDB
:10E8D00003441B685B6A029309BD0000D8AD0710B2
:10E8E0001000000009B504480068044B03441B688D
:10E8F0009B6A029309BD0000D8AD0710100000000C
:10E9000009B504480068044B03441B68DB6A0293A2
:10E9100009BD0000D8AD07101000000009B504487B
:10E920000068044B03441B681B6B029309BD000085
:10E93000D8AD07101000000009B504480068044B6A
:10E9400003441B685B6B029309BD0000D8AD071040
:10E950001000000009B504480068044B03441B681C
:10E960001B6C029309BD0000D8AD07101000000019
:10E9700009B504480068044B03441B685B690293B3
:10E9800009BD0000D8AD07104C00000009B50448CF
:10E990000068044B03441B689B68029309BD000098
:10E9A000D8AD07105000000009B504480068044BBA
:10E9B00003441B68DB68029309BD0000D8AD071053
:10E9C0005000000009B504480068044B03441B686C
:10E9D000DB69029309BD0000D8AD071018000000E4
:10E9E00009B504480068044B03441B681B6A029382
:10E9F00009BD0000D8AD07101800000009B5044893
:10EA00000068044B03441B68DB68029309BD0000E7
:10EA1000D8AD07102400000009B504480068044B75
:10EA200003441B681B69029309BD0000D8AD0710A1
:10EA30002400000009B504480068044B03441B6827
:10EA40005B69029309BD0000D8AD071024000000E7
:10EA500009B504480068044B03441B689B69029392
:10EA600009BD0000D8AD07102400000009B5044816
:10EA70000068044B03441B68DB69029309BD000076
:10EA8000D8AD07102400000009B504480068044B05
:10EA900003441B681B6A029309BD0000D8AD071030
:10EAA0002400000009B504480068044B03441B68B7
:10EAB0009B6A029309BD0000D8AD07102400000036
:10EAC00009B504480068044B03441B681B6C02939F
:10EAD00009BD0000D8AD07102400000009B50448A6
:10EAE0000068044B03441B681B68029309BD0000C7
:10EAF000D8AD07103400000009B504480068044B85
:10EB000003441B685B68029309BD0000D8AD071081
:10EB10003400000009B504480068044B03441B6836
:10EB20001B69029309BD0000D8AD07103400000036
:10EB300009B504480068044B03441B685B690293F1
:10EB400009BD0000D8AD07103400000009B5044825
:10EB50000068044B03441B689B69029309BD0000D5
:10EB6000D8AD07103400000009B504480068044B14
:10EB700003441B68DB69029309BD0000D8AD071090
:10EB80003400000009B504480068044B03441B68C6
:10EB90001B6A029309BD0000D8AD071034000000C5
:10EBA00009B504480068044B03441B685B68029382
:10EBB00009BD0000D8AD07100800000009B50448E1
:10EBC0000068044B03441B685B69029309BD0000A5
:10EBD000D8AD07100800000009B504480068044BD0
:10EBE00003441B68DB6A029309BD0000D8AD07101F
:10EBF0000800000009B504480068044B03441B6882
:10EC0000D3F88830029309BDD8AD07100800000082
:10EC100009B504480068044B03441B68D3F89430DA
:10EC2000029309BDD8AD07100800000009B50448DB
:10EC30000068044B03441B68DB6B029309BD0000B2
:10EC4000D8AD07102C00000009B504480068044B3B
:10EC500003441B685B6C029309BD0000D8AD07102C
:10EC60002C00000009B504480068044B03441B68ED
:10EC70005B68029309BD0000D8AD071028000000B2
:10EC800009B504480068044B03441B689B68029361
:10EC900009BD0000D8AD07102800000009B50448E0
:10ECA0000068044B03441B68DB68029309BD000045
:10ECB000D8AD07102800000009B504480068044BCF
:10ECC00003441B681B69029309BD0000D8AD0710FF
:10ECD0002800000009B504480068044B03441B6881
:10ECE0005B69029309BD0000D8AD07102800000041
:10ECF00009B504480068044B03441B689B690293F0
:10ED000009BD0000D8AD07102800000009B504486F
:10ED10000068044B03441B68DB69029309BD0000D3
:10ED2000D8AD07102800000009B504480068044B5E
:10ED300003441B681B6A029309BD0000D8AD07108D
:10ED40002800000009B504480068044B03441B6810
:10ED50001B6B029309BD0000D8AD0710280000000E
:10ED600009B504480068044B03441B685B6B0293BD
:10ED700009BD0000D8AD07102800000009B50448FF
:10ED80000068044B03441B681B6C029309BD000020
:10ED9000D8AD07102800000009B504480068044BEE
:10EDA00003441B685B6C029309BD0000D8AD0710DB
:10EDB0002800000009B504480068044B03441B68A0
:10EDC0001B68029309BD0000D8AD071004000000C5
:10EDD00009B504480068044B03441B685B68029350
:10EDE00009BD0000D8AD07100400000009B50448B3
:10EDF0000068044B03441B681B6C029309BD0000B0
:10EE0000D8AD07100400000009B504480068044BA1
:10EE100003441B685B6C029309BD0000D8AD07106A
:10EE2000040000000021FFF7C9BE000000230248D3
:10EE30000360FFF793BC00BF8CAE07101FB50C2317
:10EE40000021ADF804300368ADF80D108DF80630E0
:10EE5000037A8DF80F108DF8073043680293437AD8
:10EE600001A88DF80C30FFF7EFFE05B05DF804FB4C
:10EE7000002240681146FFF757BF00224068114644
:10EE8000FFF76EBF00224068FFF75CBF00224068BA
:10EE900081F00101FFF73ABF002340681A46194686
:10EEA000FFF726BF002340681A461946FFF712BF36
:10EEB000002240681146FFF7FFBE0022406811465D
:10EEC000FFF7DEBE002202214068FFF7E7BE002305
:10EED00040681A46FFF7C6BE0322024B5A60024A38
:10EEE0001A60704790AE0710FCFD3F027047F8B5FE
:10EEF000064615460C468F18BC4206D0336830468D
:10EF00009B6814F8011B9847F6E72846F8BD0022D5
:10EF1000007CFFF7CBBC0021007CFFF7D5BC0021B3
:10EF2000007CFFF7DFBC0021007CFFF7E9BC00217B
:10EF3000007CFFF7F3BC10B504461421FFF7CFF8AF
:10EF4000204610BD38B5044615464FF47A730022AA
:10EF5000C4E90123094B0846217423602946FFF7C1
:10EF6000F9FCBF3008D16B69DB0705D56868FFF78E
:10EF70002FFFE868FFF72CFF204638BD38FE3F0220
:10EF80000022007CFFF75ABC0023007C1A46194679
:10EF9000FFF762BC0022007CFFF76CBC0022007C03
:10EFA000FFF776BCFFF73CBCFFF72CBC704710B5F1
:10EFB00004461821FFF793F8204610BDF0B5037DF5
:10EFC0000E46062B4FF000048DB000F1040712D05E
:10EFD00000F1080515F8011D0A22304600F043F93A
:10EFE000AF42044419D0002CF4D02E21304600F05A
:10EFF00037F90444EEE72F236A4639460A208DF894
:10F000000040FFF7B5FC6846FFF742F83368024658
:10F0100069463046DB689847044620460DB0F0BD8F
:10F0200010B50446044B1122002140F8043B00F0C7
:10F0300086FC204610BD00BF60FE3F020346074A23
:10F0400010B543F8042B01F1100251F8044B914222
:10F0500043F8044BF9D10A781A7010BD60FE3F02E4
:10F0600010B59DF8084044EA032343EA0242042312
:10F0700042EA01614160037510BD000007B5064B0F
:10F080000360CB7800938B784A780978FFF7E8FF24
:10F0900003B05DF804FB00BF60FE3F02014B024A73
:10F0A0001A60704798AE07106CFE3F02002340685C
:10F0B0001A46FFF7D7BD002202214068FFF7EEBDD8
:10F0C000002240681146FFF7DBBD00224068114670
:10F0D000FFF7F2BD002340681A461946FFF7FABD54
:10F0E000002340681A461946FFF702BE0021406817
:10F0F000FFF744BE00214068FFF74EBE0022406883
:10F1000081F00101FFF702BE00224068FFF71ABE3E
:10F11000002240681146FFF723BE002240681146D6
:10F12000FFF702BE2DE9F04395B014460D460746A1
:10F13000FFF776FF00211C220DA8009100F0FFFBD5
:10F14000402320460C9300216B460CAAFFF72CFCB1
:10F15000044600284BD1024601216868FFF7ACFD48
:10F160000221804622466868FFF7A6FD21468146B7
:10F17000009E002E3BD0002939D17368022B03D0AA
:10F180000A2B11D0F669F4E7B8F1000FFAD07169D3
:10F1900006A804313C1D07ADFFF770FF0FCD0FC46B
:10F1A0002B6841462370EDE7B9F1000FEAD0102239
:10F1B00001A8746900F0C3FB062301AD8DF814307B
:10F1C00004F1080318342A4618685968083303C242
:10F1D000A3421546F7D101A906A83C1D07ADFFF7CC
:10F1E0002DFF0FCD0FC42B6849462370CAE7009846
:10F1F000FFF7CCFB384615B0BDE8F083024B034A5D
:10F200001A6000225A6070479CAE071078FE3F02D9
:10F21000F8B506460D4600248F18BD420CD0336861
:10F2200030469B6815F8011B9847031E01DB1C4400
:10F23000F3E7002C08BF1C462046F8BD13B5044672
:10F24000084659B10191FEF723FF02462046236884
:10F250000199DB6802B0BDE81040184702B010BD4C
:10F2600003689B6818470023012A98BF0A2230B51B
:10F270008BB08DF8243009AC0D46B1FBF2F101FBE7
:10F28000125303F0FF03092B94BF30333733DBB243
:10F29000AA4204F8013DEFD92146FFF7CFFF0BB09A
:10F2A00030BD00000022014B9A607047A4AE0710E9
:10F2B00010B5044608462170FFF784FB0023204662
:10F2C000636010BD02220020044B1A60044B054A03
:10F2D000C3E900009A60FFF763BC00BFC0AE07102F
:10F2E000B4AE07100000FFFF024B1A68024B1A6011
:10F2F000704700BFDCAD0710C4AE07107047417403
:10F30000704708B5007CFFF7CDFB20EAE07008BD30
:10F3100008B5007CFFF780FB20EAE07008BD08B567
:10F32000007CFFF795FB40EAE07008BD08B5007C63
:10F33000FFF780FB40EAE07008BD007CFFF796BB5A
:10F3400037B5457C04462DB1207C03B0BDE8304084
:10F35000FFF754BB007C0191FFF7A4FB0028019943
:10F36000F2DC284603B030BD10B504461421FEF788
:10F37000B6FE204610BD000010B54FF47A73044667
:10F38000084611460022C4E90123044B207423607F
:10F3900001236374FFF794FB204610BDD0FE3F02AB
:10F3A000007CFFF771BB417470477047704708B528
:10F3B0000021007CFFF7CAFB40EAE07008BD08B5F9
:10F3C0000121007CFFF7C2FB40EAE07008BD08B5F0
:10F3D000007CFFF7ADFB20EAE07008BD08B5007CBB
:10F3E000FFF798FB20EAE07008BD13B50446007CE7
:10F3F0000191FFF79DFB0028019901DC607C20B1A1
:10F40000207CFFF7B1FB20EAE07002B010BD007C69
:10F41000FFF7B8BB10B504461421FEF760FE204686
:10F4200010BD000010B54FF47A7304460846002161
:10F43000C4E90113044B2074236001231146637453
:10F44000FFF74CFB204610BD00FF3F020022007C6E
:10F45000FFF752BB10B504461422002100F06FFAEA
:10F46000204610BD10B588B003A8FFF7F3FF0C4C81
:10F47000D4E88F1F11F001010FD120460191FEF752
:10F4800030FE019948B103AA0648FFF7CBFF20469A
:10F49000FEF72CFE044800F03FFA024808B010BD09
:10F4A000C8AE0710CCAE071013F73F020022406829
:10F4B0001146FFF701BC002240681146FFF734BC3B
:10F4C000002240681146FFF74BBC00224068FFF75E
:10F4D00039BC0022406881F00101FFF717BC00230E
:10F4E00040681A461946FFF703BC002340681A46D5
:10F4F0001946FFF7EFBB002240681146FFF7C0BB7B
:10F50000002202214068FFF7C9BB002340681A4669
:10F51000FFF7A8BB0422024B5A60024A1A607047E8
:10F52000E0AE071030FF3F02014B1860704700BF8C
:10F53000E0AD071008B50F4B43B1FFF793FF036829
:10F540001B699847002801DD00E000BF0A4B43B16A
:10F5500000F050F903681B699847002801DD00E0BE
:10F5600000BF064B0BB100F08BF9054B0BB100F05F
:10F57000BDF908BD00000000000000000000000010
:10F580000000000008B5FFF7D5FFFFF711F9014BA8
:10F59000186008BDF0AE07100548064A08B5121AF3
:10F5A000054900F0BFF9054B054A1A6008BD00BFC8
:10F5B00000B4071004B4071004FD5F0800B407107E
:10F5C0001E1C279A002307B51A466FF07701009397
:10F5D000FFF71EFB03B05DF804FB000007B543888E
:10F5E0000A2B08D0502B0BD1094B1B684BB103B031
:10F5F0005DF804EB1847FFF7E5FF03B05DF804FB87
:10F6000000231A466FF077010093FFF701FBF4E740
:10F61000ECAE0710002110B51148FFF7F5FB114BB8
:10F620001A68114B9A420CBF012200220F4B1A702C
:10F6300001D0FFF7B1FFFFF79FF8044600F088F90B
:10F640000B4B13B1204600E000BF00210848FFF734
:10F65000EDFABDE8104000210648FFF7CBBA00BF25
:10F6600091F83F0200B407101E1C279AE8AE07105D
:10F670000000000045F93F021B2837B5044602D9B7
:10F68000002003B030BDA0F10F03022B0BD90128DD
:10F6900021D800F05BF80021007CFFF74DF980F0E5
:10F6A0000100C0B2EDE7114DD5E88F1F11F0010147
:10F6B0000BD128460191FEF714FD019928B10C48A1
:10F6C000FFF7F6FD2846FEF711FD094B1878FFF706
:10F6D00087F90028D4D1083C012C05D800F08AF81D
:10F6E000007CFFF7D1F9DAE70120CAE780AE071006
:10F6F00084AE07101B2838B504460D460AD8FF29EA
:10F7000008D0FFF7B9FF28B129462046BDE83840A8
:10F71000FFF76AB838BD704738B50A4B0446036036
:10F72000012309494361202000F0F4F8202560609E
:10F7300005492846A56000F0EDF8C4E90305204618
:10F7400038BD00BF1800010064FF3F0230B50E4D08
:10F7500087B0D5E88F1F11F0010411D12846FEF7BC
:10F76000C0FC68B16846FFF7D7FF6A4621460748E4
:10F77000FFF7E8FB2846FEF7B9FC054800F0CCF897
:10F78000024807B030BD00BFF4AE0710F8AE071056
:10F790007FFA3F027047000038B5142504462A4618
:10F7A000002100F0CCF82580402507492846258116
:10F7B000258200F0AFF804496060284600F0AAF8FE
:10F7C000E060204638BD00BF64FF3F0270477047CD
:10F7D00010B50446FFF7E0FF204610BD10B5044603
:10F7E000FFF7DAFF204610BD10B50446FFF7D4FF3F
:10F7F000204610BD30B50E4D87B0D5E88F1F11F0F3
:10F80000010411D12846FEF76CFC68B101A8FFF78E
:10F81000DFFF214601AA0748FFF7AEFD2846FEF7A5
:10F8200065FC054800F078F8024807B030BD00BF1D
:10F830000CAF071018AF0710FDFA3F0210B50D4CC2
:10F8400086B0D4E88F3FDB0711D42046FEF749FC91
:10F8500068B101A8FFF7C2FF012101AA0648FFF71E
:10F860008BFD2046FEF742FC044800F055F80248A4
:10F8700006B010BD10AF07102CAF071037FB3F02CA
:10F8800010B5FFF7DBFF074B044653B1FFF788FDC8
:10F8900038B1236820461B699847002801DD00E045
:10F8A00000BF10BD0000000010B50D4C86B0D4E8BC
:10F8B0008F3FDB0711D42046FEF713FC68B101A887
:10F8C000FFF792FF022101AA0648FFF755FD2046E7
:10F8D000FEF70CFC044800F01FF8024806B010BD0B
:10F8E00014AF071040AF071035FB3F0210B5FFF70C
:10F8F000DBFF074B044653B1FFF752FD38B12368D5
:10F9000020461B699847002801DD00E000BF10BDBC
:10F9100000000000FEF7E1BB002301461A4618462E
:10F9200000F044B80A44431E914200D1704710B51C
:10F9300011F8014B914203F8014FF9D110BD024477
:10F940000346934200D1704703F8011BF9E700001A
:10F9500038B5104B04461D68AB6BB3B91820FFF7E0
:10F9600029FA0246A86320B90B4B42210B48FFF746
:10F970003DFA0B490B4BC0E900130B4B0021836090
:10F980000B2383810120C2E90401AB6B00221C61BF
:10F990005A6138BDE0AD071065FF3F027CFF3F02B2
:10F9A0000E33CDAB34126DE6ECDE05002DE9F843E5
:10F9B000DFF8BC8006461F460D46D8F80000914689
:10F9C00000F058F8264B1C6834B9264C1C60264BB6
:10F9D00013B11B68C4F8883063681F2B07DDD8F8A3
:10F9E000000000F049F84FF0FF30BDE8F8835EB347
:10F9F000D4F8880088B91D4B23B9D8F8000000F06E
:10FA00003AF8F0E74FF48470FFF7D4F90028F4D007
:10FA10000023C0E94033C4F8880063680122022E45
:10FA200040F8239002FA03F200EB8301D0F8003192
:10FA300043EA0203C0F80031C1F8807002BFD0F879
:10FA400004311343C0F804316368D8F800005A1C2D
:10FA50000233626044F8235000F00EF80020C4E73F
:10FA6000E0AF071054AF0710000000001DF13F0287
:10FA700044AE0710704770477047000009E43F022A
:10FA800031E43F0235E43F020000000000000000C6
:10FA90000000000037F23F022DF23F0223F23F0246
:10FAA00019F23F020DF23F0201F23F0255F43F020C
:10FAB0005DF43F02F5F13F02EDF13F02E3F13F0259
:10FAC000D9F13F028DF43F02000000000000000069
:10FAD00055F23F029FF23F0277F23F0257F23F0298
:10FAE0007FF23F0287F23F028FF23F0297F23F021E
:10FAF000000000000000000025F33F0215F33F0264
:10FB000017F33F0261707000000000000000000069
:10FB100015F43F021FF43F0229F43F0233F43F0281
:10FB20003DF43F0249F43F0255F43F025DF43F02C9
:10FB300065F43F0271F43F0279F43F0283F43F021F
:10FB40008DF43F0225592D256D2D25645425483A05
:10FB5000254D3A2553257A0061736374696D6500FC
:10FB6000000000000000000065F63F02D1F63F02F1
:10FB7000A9F63F0279F53F0279F63F0295F63F027A
:10FB800087F63F02A3F63F0267F63F026BF63F029D
:10FB9000000000000000000015F73F027DF73F0263
:10FBA00053F73F0279F53F0245F73F0217F73F024F
:10FBB00027F73F0277F73F0237F73F020FF73F0281
:10FBC000000000000000000073F83F0269F83F02E7
:10FBD0005FF83F0215F83F0253F83F0247F83F0233
:10FBE00055F43F025DF43F023BF83F0233F83F0219
:10FBF00029F83F021FF83F028DF43F0200524545AD
:10FC00004E54206D616C6C6F632073756363656522
:10FC1000646564002F746D702F6A656E6B696E7316
:10FC20002D4743432D31302D706970656C696E65C9
:10FC30002D34385F32303230313132345F3136304A
:10FC4000363138303633392F7372632F6E65776CE7
:10FC500069622F6E65776C69622F6C6962632F73BE
:10FC600074646C69622F72616E642E630000000020
:10FC7000F5E43F0295F13F0241F23F0205F43F02F5
:10FC800065F53F020DF63F022DF63F0251F63F02A9
:04FC90007DF83F02BA
:10FC940000000002C0FE3F02E4AD071000000000B7
:10FCA4000000000000000000000000000000000050
:10FCB4000000000000000000000000000000000040
:10FCC4000000000000000000000000000000000030
:10FCD4000000000000000000000000000000000020
:10FCE4000000000000000000000000000000000010
:10FCF400000000000000000000000000E4AF071056
:04FD040000000000FB
:10FFBE000200100000E05F0888E05F08F0E33F02F7
:10FFCE0001000A00FFFFFFFFFFFF00000102030414
:10FFDE0005060708090A0B0C0D0E0F10111213144B
:0EFFEE0015161718191A1B1C1D1E1F203E0089
:04FFFC0078563412ED
:04000005085FE01898
:00000001FF
