:02000004085F93
:10D0000000D05F08FCFF5F0800000600200005015B
:08D010000401B414000000004B
:10D018000E480F4908B5884205D00E4A824202D010
:10D028000D4B121A98470D480D4A00210D4B121A44
:10D0380098470D480D49884205D00D4A824202D0D2
:10D04800054B121A9847014808BD00BFE0AD07100C
:10D0580040F55F0850AE07102D0D111050AE0710A7
:10D06800E8AF0710A10E111040DB3F0288D05F081F
:0CD07800F8FF3F0219D05F080000000024
:08D088007CD05F08B4FD3F02FB
:10D0900081F0004102E000BF83F0004330B54FEA69
:10D0A00041044FEA430594EA050F08BF90EA020FD6
:10D0B0001FBF54EA000C55EA020C7FEA645C7FEA69
:10D0C000655C00F0E2804FEA5454D4EB5555B8BF8C
:10D0D0006D420CDD2C4480EA020281EA030382EAFD
:10D0E000000083EA010180EA020281EA0303362D8F
:10D0F00088BF30BD11F0004F4FEA01314FF4801C62
:10D100004CEA113102D0404261EB410113F0004F73
:10D110004FEA03334CEA133302D0524263EB43032A
:10D1200094EA050F00F0A780A4F10104D5F1200EC8
:10D130000DDB02FA0EFC22FA05F2801841F1000123
:10D1400003FA0EF2801843FA05F359410EE0A5F1F7
:10D1500020050EF1200E012A03FA0EFC28BF4CF028
:10D16000020C43FA05F3C01851EBE37101F00045DE
:10D1700007D54FF0000EDCF1000C7EEB00006EEBEB
:10D180000101B1F5801F1BD3B1F5001F0CD3490875
:10D190005FEA30004FEA3C0C04F101044FEA4452CC
:10D1A00012F5800F80F09A80BCF1004F08BF5FEA53
:10D1B000500C50F1000041EB045141EA050130BD33
:10D1C0005FEA4C0C404141EB0101013C28BFB1F545
:10D1D000801FE9D291F0000F04BF01460020B1FA90
:10D1E00081F308BF2033A3F10B03B3F120020CDA63
:10D1F0000C3208DD02F1140CC2F10C0201FA0CF041
:10D2000021FA02F10CE002F11402D8BFC2F1200CA5
:10D2100001FA02F120FA0CFCDCBF41EA0C0190405B
:10D22000E41AA2BF01EB0451294330BD6FEA0404A4
:10D230001F3C1CDA0C340EDC04F11404C4F120028F
:10D2400020FA04F001FA02F340EA030021FA04F3A1
:10D2500045EA030130BDC4F10C04C4F1200220FAF8
:10D2600002F001FA04F340EA0300294630BD21FA36
:10D2700004F0294630BD94F0000F83F4801306BFFC
:10D2800081F480110134013D4EE77FEA645C18BFF0
:10D290007FEA655C29D094EA050F08BF90EA020F87
:10D2A00005D054EA000C04BF1946104630BD91EA7F
:10D2B000030F1EBF0021002030BD5FEA545C05D182
:10D2C0004000494128BF41F0004130BD14F58004C1
:10D2D0003CBF01F5801130BD01F0004545F0FE4135
:10D2E00041F470014FF0000030BD7FEA645C1ABF6A
:10D2F000194610467FEA655C1CBF0B46024650EAA1
:10D30000013406BF52EA033591EA030F41F40021CC
:10D3100030BD00BF90F0000F04BF0021704730B552
:10D320004FF4806404F132044FF000054FF0000127
:10D3300050E700BF90F0000F04BF0021704730B5E8
:10D340004FF4806404F1320410F0004548BF4042BD
:10D350004FF000013EE700BF42004FEAE2014FEA12
:10D3600031014FEA02701FBF12F07F4393F07F4FED
:10D3700081F06051704732F07F4208BF704793F0F0
:10D380007F4F04BF41F40021704730B54FF4607403
:10D3900001F0004521F000411CE700BF50EA010206
:10D3A00008BF704730B54FF000050AE050EA0102AF
:10D3B00008BF704730B511F0004502D5404261EB1F
:10D3C00041014FF4806404F132045FEA915C3FF460
:10D3D000D8AE4FF003025FEADC0C18BF03325FEAFD
:10D3E000DC0C18BF033202EBDC02C2F1200300FAAE
:10D3F00003FC20FA02F001FA03FE40EA0E0021FAD3
:10D4000002F11444BDE600BF70B54FF0FF0C4CF4C0
:10D41000E06C1CEA11541DBF1CEA135594EA0C0F72
:10D4200095EA0C0F00F0DEF82C4481EA030621EAAD
:10D430004C5123EA4C5350EA013518BF52EA0335E8
:10D4400041F4801143F4801338D0A0FB02CE4FF09A
:10D450000005E1FB02E506F00042E0FB03E54FF0CA
:10D460000006E1FB03569CF0000F18BF4EF0010EC2
:10D47000A4F1FF04B6F5007F64F5407404D25FEABE
:10D480004E0E6D4146EB060642EAC62141EA555171
:10D490004FEAC52040EA5E504FEACE2EB4F1FD0CB3
:10D4A00088BFBCF5E06F1ED8BEF1004F08BF5FEA31
:10D4B000500E50F1000041EB045170BD06F00046E3
:10D4C00046EA010140EA020081EA0301B4EB5C0490
:10D4D000C2BFD4EB0C0541EA045170BD41F4801188
:10D4E0004FF0000E013C00F3AB8014F1360FDEBFAD
:10D4F000002001F0004170BDC4F10004203C35DA89
:10D500000C341BDC04F11404C4F1200500FA05F30B
:10D5100020FA04F001FA05F240EA020001F00042AC
:10D5200021F0004110EBD37021FA04F642EB060122
:10D530005EEA430E08BF20EAD37070BDC4F10C044C
:10D54000C4F1200500FA04F320FA05F001FA04F210
:10D5500040EA020001F0004110EBD37041F10001FC
:10D560005EEA430E08BF20EAD37070BDC4F1200507
:10D5700000FA05F24EEA020E20FA04F301FA05F26F
:10D5800043EA020321FA04F001F0004121FA04F217
:10D5900020EA020000EBD3705EEA430E08BF20EAE7
:10D5A000D37070BD94F0000F0FD101F00046400021
:10D5B00041EB010111F4801F08BF013CF7D041EAA3
:10D5C000060195F0000F18BF704703F000465200A7
:10D5D00043EB030313F4801F08BF013DF7D043EA78
:10D5E0000603704794EA0C0F0CEA135518BF95EA2E
:10D5F0000C0F0CD050EA410618BF52EA4306D1D1B5
:10D6000081EA030101F000414FF0000070BD50EAD3
:10D61000410606BF1046194652EA430619D094EA5D
:10D620000C0F02D150EA013613D195EA0C0F05D147
:10D6300052EA03361CBF104619460AD181EA03019B
:10D6400001F0004141F0FE4141F470014FF0000053
:10D6500070BD41F0FE4141F4780170BD70B54FF0EE
:10D66000FF0C4CF4E06C1CEA11541DBF1CEA13556E
:10D6700094EA0C0F95EA0C0F00F0A7F8A4EB050450
:10D6800081EA030E52EA03354FEA013100F0888047
:10D690004FEA03334FF0805545EA131343EA126310
:10D6A0004FEA022245EA111545EA10654FEA0026C5
:10D6B0000EF000419D4208BF964244F1FD0404F57E
:10D6C000407402D25B084FEA3202B61A65EB0305DA
:10D6D0005B084FEA32024FF480104FF4002CB6EB97
:10D6E000020E75EB030E22BFB61A754640EA0C0017
:10D6F0005B084FEA3202B6EB020E75EB030E22BF57
:10D70000B61A754640EA5C005B084FEA3202B6EB97
:10D71000020E75EB030E22BFB61A754640EA9C0056
:10D720005B084FEA3202B6EB020E75EB030E22BF26
:10D73000B61A754640EADC0055EA060E18D04FEAE4
:10D74000051545EA16754FEA06164FEAC30343EA84
:10D7500052734FEAC2025FEA1C1CC0D111F4801F51
:10D760000BD141EA00014FF000004FF0004CB6E74A
:10D7700011F4801F04BF01430020B4F1FD0C88BFE9
:10D78000BCF5E06F3FF6AFAEB5EB030C04BFB6EBF4
:10D79000020C5FEA500C50F1000041EB045170BDE7
:10D7A0000EF0004E4EEA113114EB5C04C2BFD4EB14
:10D7B0000C0541EA045170BD41F480114FF0000E98
:10D7C000013C90E645EA060E8DE60CEA135594EA14
:10D7D0000C0F08BF95EA0C0F3FF43BAF94EA0C0F17
:10D7E0000AD150EA01347FF434AF95EA0C0F7FF48C
:10D7F00025AF104619462CE795EA0C0F06D152EAE0
:10D8000003353FF4FDAE1046194622E750EA4106C3
:10D8100018BF52EA43067FF4C5AE50EA41047FF4D4
:10D820000DAF52EA43057FF4EBAE12E74FF0FF3C39
:10D8300006E000BF4FF0010C02E000BF4FF0010C0A
:10D840004DF804CD4FEA410C7FEA6C5C4FEA430C83
:10D8500018BF7FEA6C5C1BD001B050EA410C0CBFD2
:10D8600052EA430C91EA030F02BF90EA020F002034
:10D87000704710F1000F91EA030F58BF994208BF9B
:10D8800090422CBFD8176FEAE37040F00100704758
:10D890004FEA410C7FEA6C5C02D150EA013C07D1AF
:10D8A0004FEA430C7FEA6C5CD6D152EA033CD3D0FA
:10D8B0005DF8040B704700BF8446104662468C46F4
:10D8C0001946634600E000BF01B5FFF7B7FF002827
:10D8D00048BF10F1000F01BD4DF808EDFFF7F4FF50
:10D8E0000CBF012000205DF808FB00BF4DF808EDDB
:10D8F000FFF7EAFF34BF012000205DF808FB00BFFE
:10D900004DF808EDFFF7E0FF94BF012000205DF81F
:10D9100008FB00BF4DF808EDFFF7CEFF94BF0120D4
:10D9200000205DF808FB00BF4DF808EDFFF7C4FFCD
:10D9300034BF012000205DF808FB00BF4FEA410C16
:10D940007FEA6C5C02D150EA013C0AD14FEA430CF9
:10D950007FEA6C5C02D152EA033C02D14FF0000036
:10D9600070474FF0010070474FEA410212F5001274
:10D9700015D211D56FF47873B3EB625212D94FEA16
:10D98000C12343F0004343EA505311F0004F23FA00
:10D9900002F018BF404270474FF00000704750EA55
:10D9A000013005D111F0004008BF6FF00040704712
:10D9B0004FF00000704700BF4A0011D212F500126C
:10D9C00011D20DD56FF47873B3EB62520ED44FEAD7
:10D9D000C12343F0004343EA505323FA02F0704757
:10D9E0004FF00000704750EA013002D14FF0FF3095
:10D9F00070474FF0000070474FEA4102B2F1E04338
:10DA000024BFB3F5001CDCF1FE5C0DD901F0004C25
:10DA10004FEAC0024CEA5070B2F1004F40EB830075
:10DA200008BF20F00100704711F0804F21D113F1A1
:10DA30003872BCBF01F00040704741F480114FEADA
:10DA40005252C2F11802C2F1200C10FA0CF320FA63
:10DA500002F018BF40F001004FEAC1234FEAD32380
:10DA600003FA0CFC40EA0C0023FA02F34FEA4303EA
:10DA7000CCE77FEA625307D150EA01331EBF4FF073
:10DA8000FE4040F44000704701F0004040F0FE408E
:10DA900040F40000704700BF034613F8012B002A32
:10DAA000FBD1181A0138704770B501F0E1F9002573
:10DAB000054E064CA41BA408AC4200D170BD56F81C
:10DAC000043B98470135F7E7D4FF3F02F8FF3F02D8
:10DAD00000F014B808B500F06BF8BDE8084001F09C
:10DAE0007FB900F0A7BC00F0B3BC0078B0FA80F0BA
:10DAF00040097047012303707047000010B50024EF
:10DB000086B001F0DDF84FF4165101F0CDF803A80E
:10DB1000CDE90344ADF8144000F0D0FC1048224693
:10DB200023462146406800F023FC03A800F01DF9BD
:10DB300001230C4C03A92046ADF80C3000F01DF970
:10DB4000204600F04AF901A800F050F80B2301A983
:10DB500005488DF8043000F051F806B010BD00BF44
:10DB6000E0AE071068AE07105CAE0710002307B5E3
:10DB70000C4801A9019300F065F801F0A1F80A49E9
:10DB800000F0AAFE01F09CF89DED010A022100F0D0
:10DB9000A7FF01F095F8054900F0B1FE03B05DF86C
:10DBA00004FB00BF5CAE0710D5FD3F02DFFD3F0266
:10DBB00008B5FFF7DBFFBDE8084041F2883000F010
:10DBC00071BC000010B50024064B074A0120C3E9D0
:10DBD00000449A6000F024FB2146BDE8104001207B
:10DBE00000F03ABB50AE07100000FFFF40F2FF43C9
:10DBF0000380014B436070473333534037B50D46C4
:10DC00000446684600F020F82B78694620468DF8D7
:10DC1000003000F01FF8013003D14FF0FF3003B0A7
:10DC200030BD95ED010A204600F02CF80130F4D00B
:10DC30002046697800F01AF80130EED00023002069
:10DC4000A360ECE700F020B80422014B1A70704783
:10DC50007AAE071008B5044B08780621188001F049
:10DC600077F9002008BD00BF78AE07104B1E052BCA
:10DC70009DBF034B002019704FF0FF30704700BF6D
:10DC80007AAE07100020704710B50B4B0C46188871
:10DC900001F06FF9FFF74EFB05A3D3E90023FFF76F
:10DCA000B3FBFFF7A9FE2060002010BDAFF300809A
:10DCB0002D431CEBE2364A3F78AE071010B5002426
:10DCC000054B1C70054B1C6001F080F92146BDE836
:10DCD000104000F095BC00BF7BAE07107CAE071073
:10DCE00008B501F073F9054B196800F089FC01F0E3
:10DCF0006DF900F089FC002008BD00BF7CAE071064
:10DD000010B50C46044B196001F060F9214600F093
:10DD100077FC002010BD00BF7CAE0710014B002037
:10DD2000197070477BAE071013B50C46019201F0D5
:10DD30004DF90B4B197800F06DFC01F047F90368C1
:10DD40002146DB68019A984701F040F9012100F073
:10DD500065FC013818BF4FF0FF3002B010BD00BFA6
:10DD60007BAE0710642000F09DBB4FF6FF7303806D
:10DD70000023436040230372704730B50D460446CC
:10DD800085B001A8FFF79AFF6B68204602932B78B5
:10DD900001A98DF806306B788DF805302B7A237346
:10DDA000FFF79EFF01300AD0217B2046FFF7B6FF28
:10DDB00020466968FFF7A4FF002005B030BDFF20B2
:10DDC000FBE7FE2307B501220DF107018DF80730AF
:10DDD000FFF7AAFF03B05DF804FB07B50190FFF75A
:10DDE000C1FFFFF7BFFFFFF7BDFFFFF7BBFFFFF767
:10DDF000B9FF0198FFF7E5FFFFF7B4FFFFF7B2FFA8
:10DE0000FFF7B0FFFFF7AEFFFFF7ACFF03B05DF821
:10DE100004FB000009B504480068044B03441B6878
:10DE20005B6C029309BD0000E0AD071030000000FC
:10DE300009B504480068044B03441B685B680293FF
:10DE400009BD0000E0AD07100000000009B504485E
:10DE50000068044B03441B685B69029309BD000022
:10DE6000E0AD07100000000009B504480068044B4D
:10DE700003441B685B68029309BD0000E0AD071016
:10DE80001400000009B504480068044B03441B68F3
:10DE90009B68029309BD0000E0AD0710140000006C
:10DEA00009B504480068044B03441B681B6B0293CC
:10DEB00009BD0000E0AD07101400000009B50448DA
:10DEC0000068044B03441B681B68029309BD0000F3
:10DED000E0AD07101000000009B504480068044BCD
:10DEE00003441B68DB68029309BD0000E0AD071026
:10DEF0001000000009B504480068044B03441B6887
:10DF00009B69029309BD0000E0AD071010000000FE
:10DF100009B504480068044B03441B68DB6902939D
:10DF200009BD0000E0AD07101000000009B504486D
:10DF30000068044B03441B681B6A029309BD000080
:10DF4000E0AD07101000000009B504480068044B5C
:10DF500003441B685B6A029309BD0000E0AD071033
:10DF60001000000009B504480068044B03441B6816
:10DF70009B6A029309BD0000E0AD0710100000008D
:10DF800009B504480068044B03441B68DB6A02932C
:10DF900009BD0000E0AD07101000000009B50448FD
:10DFA0000068044B03441B681B6B029309BD00000F
:10DFB000E0AD07101000000009B504480068044BEC
:10DFC00003441B685B6B029309BD0000E0AD0710C2
:10DFD0001000000009B504480068044B03441B68A6
:10DFE0001B6C029309BD0000E0AD0710100000009B
:10DFF00009B504480068044B03441B685B6902933D
:10E0000009BD0000E0AD07104C00000009B5044850
:10E010000068044B03441B689B68029309BD000021
:10E02000E0AD07105000000009B504480068044B3B
:10E0300003441B68DB68029309BD0000E0AD0710D4
:10E040005000000009B504480068044B03441B68F5
:10E05000DB69029309BD0000E0AD07101800000065
:10E0600009B504480068044B03441B681B6A02930B
:10E0700009BD0000E0AD07101800000009B5044814
:10E080000068044B03441B68DB68029309BD000071
:10E09000E0AD07102400000009B504480068044BF7
:10E0A00003441B681B69029309BD0000E0AD071023
:10E0B0002400000009B504480068044B03441B68B1
:10E0C0005B69029309BD0000E0AD07102400000069
:10E0D00009B504480068044B03441B689B6902931C
:10E0E00009BD0000E0AD07102400000009B5044898
:10E0F0000068044B03441B68DB69029309BD000000
:10E10000E0AD07102400000009B504480068044B86
:10E1100003441B681B6A029309BD0000E0AD0710B1
:10E120002400000009B504480068044B03441B6840
:10E130009B6A029309BD0000E0AD071024000000B7
:10E1400009B504480068044B03441B681B6C029328
:10E1500009BD0000E0AD07102400000009B5044827
:10E160000068044B03441B681B68029309BD000050
:10E17000E0AD07103400000009B504480068044B06
:10E1800003441B685B68029309BD0000E0AD071003
:10E190003400000009B504480068044B03441B68C0
:10E1A0001B69029309BD0000E0AD071034000000B8
:10E1B00009B504480068044B03441B685B6902937B
:10E1C00009BD0000E0AD07103400000009B50448A7
:10E1D0000068044B03441B689B69029309BD00005F
:10E1E000E0AD07103400000009B504480068044B96
:10E1F00003441B68DB69029309BD0000E0AD071012
:10E200003400000009B504480068044B03441B684F
:10E210001B6A029309BD0000E0AD07103400000046
:10E2200009B504480068044B03441B685B6802930B
:10E2300009BD0000E0AD07100800000009B5044862
:10E240000068044B03441B685B69029309BD00002E
:10E25000E0AD07100800000009B504480068044B51
:10E2600003441B68DB6A029309BD0000E0AD0710A0
:10E270000800000009B504480068044B03441B680B
:10E28000D3F88830029309BDE0AD07100800000004
:10E2900009B504480068044B03441B68D3F8943064
:10E2A000029309BDE0AD07100800000009B504485D
:10E2B0000068044B03441B68DB6B029309BD00003C
:10E2C000E0AD07102C00000009B504480068044BBD
:10E2D00003441B685B6C029309BD0000E0AD0710AE
:10E2E0002C00000009B504480068044B03441B6877
:10E2F0005B68029309BD0000E0AD07102800000034
:10E3000009B504480068044B03441B689B680293EA
:10E3100009BD0000E0AD07102800000009B5044861
:10E320000068044B03441B68DB68029309BD0000CE
:10E33000E0AD07102800000009B504480068044B50
:10E3400003441B681B69029309BD0000E0AD071080
:10E350002800000009B504480068044B03441B680A
:10E360005B69029309BD0000E0AD071028000000C2
:10E3700009B504480068044B03441B689B69029379
:10E3800009BD0000E0AD07102800000009B50448F1
:10E390000068044B03441B68DB69029309BD00005D
:10E3A000E0AD07102800000009B504480068044BE0
:10E3B00003441B681B6A029309BD0000E0AD07100F
:10E3C0002800000009B504480068044B03441B689A
:10E3D0001B6B029309BD0000E0AD07102800000090
:10E3E00009B504480068044B03441B685B6B029347
:10E3F00009BD0000E0AD07102800000009B5044881
:10E400000068044B03441B681B6C029309BD0000A9
:10E41000E0AD07102800000009B504480068044B6F
:10E4200003441B685B6C029309BD0000E0AD07105C
:10E430002800000009B504480068044B03441B6829
:10E440001B68029309BD0000E0AD07100400000046
:10E4500009B504480068044B03441B685B680293D9
:10E4600009BD0000E0AD07100400000009B5044834
:10E470000068044B03441B681B6C029309BD000039
:10E48000E0AD07100400000009B504480068044B23
:10E4900003441B685B6C029309BD0000E0AD0710EC
:10E4A000040000000021FFF7C9BE0000002302485D
:10E4B0000360FFF7AFBC00BF8CAE07101FB50C2385
:10E4C0000021ADF804300368ADF80D108DF806306A
:10E4D000037A8DF80F108DF8073043680293437A62
:10E4E00001A88DF80C30FFF7EFFE05B05DF804FBD6
:10E4F000002240681146FFF757BF002240681146CE
:10E50000FFF76EBF00224068FFF75CBF0022406843
:10E5100081F00101FFF73ABF002340681A4619460F
:10E52000FFF726BF002340681A461946FFF712BFBF
:10E53000002240681146FFF7FFBE002240681146E6
:10E54000FFF7DEBE002202214068FFF7E7BE00238E
:10E5500040681A46FFF7C6BE0322024B5A60024AC1
:10E560001A60704790AE0710E8FD3F027047F8B59B
:10E57000064615460C468F18BC4206D03368304616
:10E580009B6814F8011B9847F6E72846F8BD00225F
:10E59000007CFFF7CBBC0021007CFFF7D5BC00213D
:10E5A000007CFFF7DFBC0021007CFFF7E9BC002105
:10E5B000007CFFF7F3BC10B504461421FFF793FA73
:10E5C000204610BD38B5044615464FF47A73002234
:10E5D000C4E90123094B0846217423602946FFF74B
:10E5E000F9FCBF3008D16B69DB0705D56868FFF718
:10E5F0002FFFE868FFF72CFF204638BD24FE3F02BE
:10E600000022007CFFF75ABC0023007C1A46194602
:10E61000FFF762BC0022007CFFF76CBC0022007C8C
:10E62000FFF776BC704710B504461821FFF75BFA78
:10E63000204610BDF0B5037D0E46062B4FF00004BA
:10E640008DB000F1040712D000F1080515F8011D86
:10E650000A22304600F05DF9AF42044419D0002C84
:10E66000F4D02E21304600F03BF90444EEE72F238E
:10E670006A4639460A208DF80040FFF7B9FC684623
:10E68000FFF70AFA3368024669463046DB68984766
:10E69000044620460DB0F0BD10B50446044B1122CF
:10E6A000002140F8043B00F08AFD204610BD00BF69
:10E6B0004CFE3F020346074A10B543F8042B01F114
:10E6C000100251F8044B914243F8044BF9D10A78F7
:10E6D0001A7010BD4CFE3F0210B59DF8084044EA88
:10E6E000032343EA0242042342EA016141600375C5
:10E6F00010BD000007B5064B0360CB7800938B7804
:10E700004A780978FFF7E8FF03B05DF804FB00BF23
:10E710004CFE3F02014B024A1A60704798AE071048
:10E7200058FE3F02002340681A46FFF7DBBD002277
:10E7300002214068FFF7F2BD002240681146FFF752
:10E74000DFBD002240681146FFF7F6BD0023406898
:10E750001A461946FFF7FEBD002340681A461946BF
:10E76000FFF706BE00214068FFF748BE0021406861
:10E77000FFF752BE0022406881F00101FFF706BE9C
:10E7800000224068FFF71EBE002240681146FFF7D6
:10E7900027BE002240681146FFF706BE2DE9F04370
:10E7A00095B014460D460746FFF776FF00211C2260
:10E7B0000DA8009100F003FD402320460C9300219A
:10E7C0006B460CAAFFF730FC044600284BD10246EA
:10E7D00001216868FFF7B0FD022180462246686883
:10E7E000FFF7AAFD21468146009E002E3BD000295E
:10E7F00039D17368022B03D00A2B11D0F669F4E7E4
:10E80000B8F1000FFAD0716906A804313C1D07ADBC
:10E81000FFF770FF0FCD0FC42B6841462370EDE763
:10E82000B9F1000FEAD0102201A8746900F0C7FC0A
:10E83000062301AD8DF8143004F1080318342A467C
:10E8400018685968083303C2A3421546F7D101A9D5
:10E8500006A83C1D07ADFFF72DFF0FCD0FC42B6899
:10E8600049462370CAE70098FFF7D0FB384615B039
:10E87000BDE8F083024B034A1A6000225A607047D9
:10E880009CAE071064FE3F02F8B506460D46002414
:10E890008F18BD420CD0336830469B6815F8011BB9
:10E8A0009847031E01DB1C44F3E7002C08BF1C46FD
:10E8B0002046F8BD13B50446084659B10191FFF74B
:10E8C000EBF80246204623680199DB6802B0BDE8F8
:10E8D0001040184702B010BD08B5FFF7EBFF08BDA8
:10E8E00003689B68184738B50D210546FFF7F8FF08
:10E8F0000A2104462846FFF7F3FF204438BD38B507
:10E900000546FFF7D7FF04462846FFF7ECFF2044F3
:10E9100038BD0023012A98BF0A2230B58BB08DF88C
:10E92000243009AC0D46B1FBF2F101FB125303F0A8
:10E93000FF03092B94BF30333733DBB2AA4204F80C
:10E94000013DEFD92146FFF7B5FF0BB030BD000008
:10E950002DE9F74F55EC104B06460F4610EE102AE6
:10E960002B4610EE100A2946FEF7E8FF40B1534946
:10E970003046FFF79FFF8246504603B0BDE8F08F58
:10E9800025F000494FF0FF32204649464C4BFEF738
:10E99000D5FF48B94FF0FF3220464946484BFEF7B5
:10E9A000AFFF08B94749E3E74FF0604220462946E8
:10E9B000454BFEF7B9FF08B14449D9E74FF0604233
:10E9C00020462946424BFEF791FF0028F4D1002251
:10E9D000002320462946FEF789FFD0B12D2130467D
:10E9E000FFF77EFF05F1004382461D464FF0000B06
:10E9F00000204FF000083749DFF8E0905FFA8BF312
:10EA00009F4208D942464B46FEF728FE0BF1010B08
:10EA1000F4E78246EAE722462B46FEF73FFB0D4627
:10EA20000446FEF7C9FF8046FEF774FC02460B461B
:10EA300020462946FEF730FB0A2204460D463046A2
:10EA40004146FFF766FF8244002F95D030462249A9
:10EA5000FFF730FF4FF00008DFF880908244002F6E
:10EA60008AD042464B4620462946FEF7CDFC044656
:10EA70000D46FEF779FFB0F1000B1CDA2D21304670
:10EA8000FFF72EFF0346CBF100010A223046019327
:10EA9000FFF73FFF019B013F184482445846FEF7B1
:10EAA00049FC02460B4620462946FEF7F5FAFFB21E
:10EAB00004460D46D3E759460023E6E798FE3F0299
:10EAC000FFFFEF7F9CFE3F02FFFFEF41A0FE3F02F2
:10EAD000FFFFEFC10000E03FA4FE3F020000244022
:10EAE00038B5044610EE100ACDB2FEF735FC41EC05
:10EAF000100B29462046BDE83840FFF729BF00002B
:10EB00000022014B9A607047A4AE071010B504466E
:10EB100008462170FFF796FA00232046636010BD77
:10EB200002220020044B1A60044B054AC3E900008E
:10EB30009A60FFF775BB00BFC0AE0710B4AE0710F8
:10EB40000000FFFF024B1A68024B1A60704700BFBB
:10EB5000E4AD0710C4AE071070474174704708B5A4
:10EB6000007CFFF7DFFA20EAE07008BD08B5007C02
:10EB7000FFF792FA20EAE07008BD08B5007CFFF7C5
:10EB8000A7FA40EAE07008BD08B5007CFFF792FAEA
:10EB900040EAE07008BD007CFFF7A8BA37B5457CB5
:10EBA00004462DB1207C03B0BDE83040FFF766BAC3
:10EBB000007C0191FFF7B6FA00280199F2DC2846A3
:10EBC00003B030BD10B504461421FEF78CFF20467B
:10EBD00010BD000010B54FF47A7304460846114684
:10EBE0000022C4E90123044B2074236001236374D1
:10EBF000FFF7A6FA204610BDCCFE3F02007CFFF7CF
:10EC000083BA417470477047704708B50021007C93
:10EC1000FFF7DCFA40EAE07008BD08B50121007C8E
:10EC2000FFF7D4FA40EAE07008BD08B5007CFFF7B2
:10EC3000BFFA20EAE07008BD08B5007CFFF7AAFA29
:10EC400020EAE07008BD13B50446007C0191FFF78F
:10EC5000AFFA0028019901DC607C20B1207CFFF72D
:10EC6000C3FA20EAE07002B010BD007CFFF7CABA18
:10EC700010B504461421FEF736FF204610BD0000F3
:10EC800010B54FF47A73044608460021C4E9011315
:10EC9000044B20742360012311466374FFF75EFA6E
:10ECA000204610BDFCFE3F020022007CFFF764BA44
:10ECB00010B504461422002100F081FA204610BD50
:10ECC00010B588B003A8FFF7F3FF0C4CD4E88F1FF2
:10ECD00011F001010FD120460191FEF706FF0199C5
:10ECE00048B103AA0648FFF7CBFF2046FEF702FF14
:10ECF000044800F051FA024808B010BDC8AE071031
:10ED0000CCAE0710BFF63F02002240681146FFF765
:10ED100013BB002240681146FFF746BB0022406843
:10ED20001146FFF75DBB00224068FFF74BBB002296
:10ED3000406881F00101FFF729BB002340681A46B3
:10ED40001946FFF715BB002340681A461946FFF71E
:10ED500001BB002240681146FFF7D2BA002202210F
:10ED60004068FFF7DBBA002340681A46FFF7BABADB
:10ED70000422024B5A60024A1A607047E0AE071044
:10ED80002CFF3F02014B1860704700BFE8AD071031
:10ED900008B50F4B43B1FFF793FF03681B69984712
:10EDA000002801DD00E000BF0A4B43B100F062F92A
:10EDB00003681B699847002801DD00E000BF064B8F
:10EDC0000BB100F09DF9054B0BB100F0CFF908BD78
:10EDD0000000000000000000000000000000000033
:10EDE00008B5FFF7D5FFFFF731F8014B186008BDF4
:10EDF000F0AE07100548064A08B5121A054900F09A
:10EE0000D1F9054B054A1A6008BD00BF00B40710D0
:10EE100004B40710B0F55F0800B407101E1C279A51
:10EE2000002307B51A466FF077010093FFF730FA19
:10EE300003B05DF804FB000007B543880A2B08D037
:10EE4000502B0BD1094B1B684BB103B05DF804EBA1
:10EE50001847FFF7E5FF03B05DF804FB00231A46EF
:10EE60006FF077010093FFF713FAF4E7ECAE0710A9
:10EE7000002110B51148FFF707FB114B1A68114B21
:10EE80009A420CBF012200220F4B1A7001D0FFF7EB
:10EE9000B1FFFEF7CDFF044600F09AF90B4B13B11A
:10EEA000204600E000BF00210848FFF7FFF9BDE859
:10EEB000104000210648FFF7DDB900BF3DF83F02D2
:10EEC00000B407101E1C279AE8AE071000000000CF
:10EED000F1F83F021B2837B5044602D9002003B0E1
:10EEE00030BDA0F10F03022B0BD9012821D800F06F
:10EEF0006DF80021007CFFF75FF880F00100C0B2E0
:10EF0000EDE7114DD5E88F1F11F001010BD1284617
:10EF10000191FEF7EAFD019928B10C48FFF7F6FDD3
:10EF20002846FEF7E7FD094B1878FFF799F8002807
:10EF3000D4D1083C012C05D800F09CF8007CFFF7E8
:10EF4000E3F8DAE70120CAE780AE071084AE0710C5
:10EF50001B2838B504460D460AD8FF2908D0FFF70C
:10EF6000B9FF28B129462046BDE83840FEF78ABFE0
:10EF700038BD10B50446FFF7ADFF50B10321204660
:10EF8000FEF772FF032804D12046BDE81040FEF7CB
:10EF900087BF002010BD704738B50A4B0446036098
:10EFA000012309494361202000F0F4F82025606026
:10EFB00005492846A56000F0EDF8C4E903052046A0
:10EFC00038BD00BF1800010060FF3F0230B50E4D94
:10EFD00087B0D5E88F1F11F0010411D12846FEF744
:10EFE00084FD68B16846FFF7D7FF6A4621460748A7
:10EFF000FFF7E8FA2846FEF77DFD054800F0CCF85B
:10F00000024807B030BD00BFF4AE0710F8AE0710DD
:10F010004FFA3F027047000038B5142504462A46CF
:10F02000002100F0CCF8258040250749284625819D
:10F03000258200F0AFF804496060284600F0AAF885
:10F04000E060204638BD00BF60FF3F027047704758
:10F0500010B50446FFF7E0FF204610BD10B504468A
:10F06000FFF7DAFF204610BD10B50446FFF7D4FFC6
:10F07000204610BD30B50E4D87B0D5E88F1F11F07A
:10F08000010411D12846FEF730FD68B101A8FFF751
:10F09000DFFF214601AA0748FFF79CFD2846FEF73F
:10F0A00029FD054800F078F8024807B030BD00BFE0
:10F0B0000CAF071018AF0710CDFA3F0210B50D4C7A
:10F0C00086B0D4E88F3FDB0711D42046FEF70DFD54
:10F0D00068B101A8FFF7C2FF012101AA0648FFF7A6
:10F0E00079FD2046FEF706FD044800F055F8024879
:10F0F00006B010BD10AF07102CAF071007FB3F0282
:10F1000010B5FFF7DBFF074B044653B1FFF776FD61
:10F1100038B1236820461B699847002801DD00E0CC
:10F1200000BF10BD0000000010B50D4C86B0D4E843
:10F130008F3FDB0711D42046FEF7D7FC68B101A84A
:10F14000FFF792FF022101AA0648FFF743FD204680
:10F15000FEF7D0FC044800F01FF8024806B010BDCE
:10F1600014AF071040AF071005FB3F0210B5FFF7C3
:10F17000DBFF074B044653B1FFF740FD38B123686E
:10F1800020461B699847002801DD00E000BF10BD44
:10F1900000000000FEF7A5BC002301461A461846F1
:10F1A00000F044B80A44431E914200D1704710B5A4
:10F1B00011F8014B914203F8014FF9D110BD0244FF
:10F1C0000346934200D1704703F8011BF9E70000A2
:10F1D00038B5104B04461D68AB6BB3B91820FFF768
:10F1E00029F90246A86320B90B4B42210B48FFF7CF
:10F1F0003DF90B490B4BC0E900130B4B0021836019
:10F200000B2383810120C2E90401AB6B00221C6146
:10F210005A6138BDE8AD071061FF3F0278FF3F0239
:10F220000E33CDAB34126DE6ECDE05002DE9F8436C
:10F23000DFF8BC8006461F460D46D8F80000914610
:10F2400000F058F8264B1C6834B9264C1C60264B3D
:10F2500013B11B68C4F8883063681F2B07DDD8F82A
:10F26000000000F049F84FF0FF30BDE8F8835EB3CE
:10F27000D4F8880088B91D4B23B9D8F8000000F0F5
:10F280003AF8F0E74FF48470FFF7D4F80028F4D090
:10F290000023C0E94033C4F8880063680122022ECD
:10F2A00040F8239002FA03F200EB8301D0F800311A
:10F2B00043EA0203C0F80031C1F8807002BFD0F801
:10F2C00004311343C0F804316368D8F800005A1CB5
:10F2D0000233626044F8235000F00EF80020C4E7C7
:10F2E000E0AF071054AF071000000000EDEE3F0242
:10F2F0004CAE0710704770477047000061E53F0251
:10F3000089E53F028DE53F020000000043757272FF
:10F31000656E742076616C7565203D2000766F6C9B
:10F3200074616765203D20000000000000000000BF
:10F3300007F03F02FDEF3F02F3EF3F02E9EF3F022C
:10F34000DDEF3F02D1EF3F021DF23F0225F23F0207
:10F35000C5EF3F02BDEF3F02B3EF3F02A9EF3F020F
:10F3600055F23F02000000000000000025F03F02BF
:10F370006FF03F0247F03F0227F03F024FF03F029D
:10F3800057F03F025FF03F0267F03F0200000000CD
:10F3900000000000EDF03F02DDF03F02DFF03F0231
:10F3A000617070000000000000000000DDF13F020D
:10F3B000E7F13F02F1F13F02FBF13F0205F23F02AC
:10F3C00011F23F021DF23F0225F23F022DF23F02F1
:10F3D00039F23F0241F23F024BF23F0255F23F0247
:10F3E0006E616E00696E66006F7666002E002559AC
:10F3F0002D256D2D25645425483A254D3A25532554
:10F400007A0061736374696D65000000000000009C
:10F410000000000011F63F027DF63F0255F63F0264
:10F4200041F33F0225F63F0241F63F0233F63F0229
:10F430004FF63F0213F63F0217F63F0200000000AE
:10F4400000000000C1F63F0229F73F02FFF63F022D
:10F4500041F33F02F1F63F02C3F63F02D3F63F020B
:10F4600023F73F02E3F63F02BBF63F020000000035
:10F47000000000001FF83F0215F83F020BF83F02A2
:10F48000C1F73F02FFF73F02F3F73F021DF23F02D1
:10F4900025F23F02E7F73F02DFF73F02D5F73F02D1
:10F4A000CBF73F0255F23F02005245454E54206DC6
:10F4B000616C6C6F6320737563636565646564007C
:10F4C0002F746D702F6A656E6B696E732D474343A1
:10F4D0002D31302D706970656C696E652D34385F23
:10F4E00032303230313132345F31363036313830CB
:10F4F0003633392F7372632F6E65776C69622F6EA6
:10F5000065776C69622F6C6962632F7374646C69D0
:10F51000622F72616E642E63000000007DE63F0280
:10F5200065EF3F0211F03F02CDF13F022DF33F02A4
:10F53000B9F53F02D9F53F02FDF53F0229F83F0238
:10F5400000000002BAFE3F02ECAD07100000000010
:10F5500000000000000000000000000000000000AB
:10F56000000000000000000000000000000000009B
:10F57000000000000000000000000000000000008B
:10F58000000000000000000000000000000000007B
:10F59000000000000000000000000000000000006B
:10F5A000000000000000000000000000E4AF0710B1
:04F5B0000000000057
:10FFBE000200100000D05F0888D05F0840DB3F02CF
:10FFCE0001000A00FFFFFFFFFFFF00000102030414
:10FFDE0005060708090A0B0C0D0E0F10111213144B
:0EFFEE0015161718191A1B1C1D1E1F203E0089
:04FFFC0078563412ED
:04000005085FD018A8
:00000001FF
