:02000004085F93
:10D0000000D05F08FCFF5F0800000600200005015B
:08D010000401B414000000004B
:10D018000E480F4908B5884205D00E4A824202D010
:10D028000D4B121A98470D480D4A00210D4B121A44
:10D0380098470D480D49884205D00D4A824202D0D2
:10D04800054B121A9847014808BD00BFC0AD07102C
:10D05800A0FB5F083CAE07102D0D11103CAE071069
:10D06800E8AF0710A10E1110E0D43F0288D05F0886
:0CD07800F8FF3F0219D05F080000000024
:08D088007CD05F08A0FD3F020F
:10D0900081F0004102E000BF83F0004330B54FEA69
:10D0A00041044FEA430594EA050F08BF90EA020FD6
:10D0B0001FBF54EA000C55EA020C7FEA645C7FEA69
:10D0C000655C00F0E2804FEA5454D4EB5555B8BF8C
:10D0D0006D420CDD2C4480EA020281EA030382EAFD
:10D0E000000083EA010180EA020281EA0303362D8F
:10D0F00088BF30BD11F0004F4FEA01314FF4801C62
:10D100004CEA113102D0404261EB410113F0004F73
:10D110004FEA03334CEA133302D0524263EB43032A
:10D1200094EA050F00F0A780A4F10104D5F1200EC8
:10D130000DDB02FA0EFC22FA05F2801841F1000123
:10D1400003FA0EF2801843FA05F359410EE0A5F1F7
:10D1500020050EF1200E012A03FA0EFC28BF4CF028
:10D16000020C43FA05F3C01851EBE37101F00045DE
:10D1700007D54FF0000EDCF1000C7EEB00006EEBEB
:10D180000101B1F5801F1BD3B1F5001F0CD3490875
:10D190005FEA30004FEA3C0C04F101044FEA4452CC
:10D1A00012F5800F80F09A80BCF1004F08BF5FEA53
:10D1B000500C50F1000041EB045141EA050130BD33
:10D1C0005FEA4C0C404141EB0101013C28BFB1F545
:10D1D000801FE9D291F0000F04BF01460020B1FA90
:10D1E00081F308BF2033A3F10B03B3F120020CDA63
:10D1F0000C3208DD02F1140CC2F10C0201FA0CF041
:10D2000021FA02F10CE002F11402D8BFC2F1200CA5
:10D2100001FA02F120FA0CFCDCBF41EA0C0190405B
:10D22000E41AA2BF01EB0451294330BD6FEA0404A4
:10D230001F3C1CDA0C340EDC04F11404C4F120028F
:10D2400020FA04F001FA02F340EA030021FA04F3A1
:10D2500045EA030130BDC4F10C04C4F1200220FAF8
:10D2600002F001FA04F340EA0300294630BD21FA36
:10D2700004F0294630BD94F0000F83F4801306BFFC
:10D2800081F480110134013D4EE77FEA645C18BFF0
:10D290007FEA655C29D094EA050F08BF90EA020F87
:10D2A00005D054EA000C04BF1946104630BD91EA7F
:10D2B000030F1EBF0021002030BD5FEA545C05D182
:10D2C0004000494128BF41F0004130BD14F58004C1
:10D2D0003CBF01F5801130BD01F0004545F0FE4135
:10D2E00041F470014FF0000030BD7FEA645C1ABF6A
:10D2F000194610467FEA655C1CBF0B46024650EAA1
:10D30000013406BF52EA033591EA030F41F40021CC
:10D3100030BD00BF90F0000F04BF0021704730B552
:10D320004FF4806404F132044FF000054FF0000127
:10D3300050E700BF90F0000F04BF0021704730B5E8
:10D340004FF4806404F1320410F0004548BF4042BD
:10D350004FF000013EE700BF42004FEAE2014FEA12
:10D3600031014FEA02701FBF12F07F4393F07F4FED
:10D3700081F06051704732F07F4208BF704793F0F0
:10D380007F4F04BF41F40021704730B54FF4607403
:10D3900001F0004521F000411CE700BF50EA010206
:10D3A00008BF704730B54FF000050AE050EA0102AF
:10D3B00008BF704730B511F0004502D5404261EB1F
:10D3C00041014FF4806404F132045FEA915C3FF460
:10D3D000D8AE4FF003025FEADC0C18BF03325FEAFD
:10D3E000DC0C18BF033202EBDC02C2F1200300FAAE
:10D3F00003FC20FA02F001FA03FE40EA0E0021FAD3
:10D4000002F11444BDE600BF70B54FF0FF0C4CF4C0
:10D41000E06C1CEA11541DBF1CEA135594EA0C0F72
:10D4200095EA0C0F00F0DEF82C4481EA030621EAAD
:10D430004C5123EA4C5350EA013518BF52EA0335E8
:10D4400041F4801143F4801338D0A0FB02CE4FF09A
:10D450000005E1FB02E506F00042E0FB03E54FF0CA
:10D460000006E1FB03569CF0000F18BF4EF0010EC2
:10D47000A4F1FF04B6F5007F64F5407404D25FEABE
:10D480004E0E6D4146EB060642EAC62141EA555171
:10D490004FEAC52040EA5E504FEACE2EB4F1FD0CB3
:10D4A00088BFBCF5E06F1ED8BEF1004F08BF5FEA31
:10D4B000500E50F1000041EB045170BD06F00046E3
:10D4C00046EA010140EA020081EA0301B4EB5C0490
:10D4D000C2BFD4EB0C0541EA045170BD41F4801188
:10D4E0004FF0000E013C00F3AB8014F1360FDEBFAD
:10D4F000002001F0004170BDC4F10004203C35DA89
:10D500000C341BDC04F11404C4F1200500FA05F30B
:10D5100020FA04F001FA05F240EA020001F00042AC
:10D5200021F0004110EBD37021FA04F642EB060122
:10D530005EEA430E08BF20EAD37070BDC4F10C044C
:10D54000C4F1200500FA04F320FA05F001FA04F210
:10D5500040EA020001F0004110EBD37041F10001FC
:10D560005EEA430E08BF20EAD37070BDC4F1200507
:10D5700000FA05F24EEA020E20FA04F301FA05F26F
:10D5800043EA020321FA04F001F0004121FA04F217
:10D5900020EA020000EBD3705EEA430E08BF20EAE7
:10D5A000D37070BD94F0000F0FD101F00046400021
:10D5B00041EB010111F4801F08BF013CF7D041EAA3
:10D5C000060195F0000F18BF704703F000465200A7
:10D5D00043EB030313F4801F08BF013DF7D043EA78
:10D5E0000603704794EA0C0F0CEA135518BF95EA2E
:10D5F0000C0F0CD050EA410618BF52EA4306D1D1B5
:10D6000081EA030101F000414FF0000070BD50EAD3
:10D61000410606BF1046194652EA430619D094EA5D
:10D620000C0F02D150EA013613D195EA0C0F05D147
:10D6300052EA03361CBF104619460AD181EA03019B
:10D6400001F0004141F0FE4141F470014FF0000053
:10D6500070BD41F0FE4141F4780170BD70B54FF0EE
:10D66000FF0C4CF4E06C1CEA11541DBF1CEA13556E
:10D6700094EA0C0F95EA0C0F00F0A7F8A4EB050450
:10D6800081EA030E52EA03354FEA013100F0888047
:10D690004FEA03334FF0805545EA131343EA126310
:10D6A0004FEA022245EA111545EA10654FEA0026C5
:10D6B0000EF000419D4208BF964244F1FD0404F57E
:10D6C000407402D25B084FEA3202B61A65EB0305DA
:10D6D0005B084FEA32024FF480104FF4002CB6EB97
:10D6E000020E75EB030E22BFB61A754640EA0C0017
:10D6F0005B084FEA3202B6EB020E75EB030E22BF57
:10D70000B61A754640EA5C005B084FEA3202B6EB97
:10D71000020E75EB030E22BFB61A754640EA9C0056
:10D720005B084FEA3202B6EB020E75EB030E22BF26
:10D73000B61A754640EADC0055EA060E18D04FEAE4
:10D74000051545EA16754FEA06164FEAC30343EA84
:10D7500052734FEAC2025FEA1C1CC0D111F4801F51
:10D760000BD141EA00014FF000004FF0004CB6E74A
:10D7700011F4801F04BF01430020B4F1FD0C88BFE9
:10D78000BCF5E06F3FF6AFAEB5EB030C04BFB6EBF4
:10D79000020C5FEA500C50F1000041EB045170BDE7
:10D7A0000EF0004E4EEA113114EB5C04C2BFD4EB14
:10D7B0000C0541EA045170BD41F480114FF0000E98
:10D7C000013C90E645EA060E8DE60CEA135594EA14
:10D7D0000C0F08BF95EA0C0F3FF43BAF94EA0C0F17
:10D7E0000AD150EA01347FF434AF95EA0C0F7FF48C
:10D7F00025AF104619462CE795EA0C0F06D152EAE0
:10D8000003353FF4FDAE1046194622E750EA4106C3
:10D8100018BF52EA43067FF4C5AE50EA41047FF4D4
:10D820000DAF52EA43057FF4EBAE12E74FF0FF3C39
:10D8300006E000BF4FF0010C02E000BF4FF0010C0A
:10D840004DF804CD4FEA410C7FEA6C5C4FEA430C83
:10D8500018BF7FEA6C5C1BD001B050EA410C0CBFD2
:10D8600052EA430C91EA030F02BF90EA020F002034
:10D87000704710F1000F91EA030F58BF994208BF9B
:10D8800090422CBFD8176FEAE37040F00100704758
:10D890004FEA410C7FEA6C5C02D150EA013C07D1AF
:10D8A0004FEA430C7FEA6C5CD6D152EA033CD3D0FA
:10D8B0005DF8040B704700BF8446104662468C46F4
:10D8C0001946634600E000BF01B5FFF7B7FF002827
:10D8D00048BF10F1000F01BD4DF808EDFFF7F4FF50
:10D8E0000CBF012000205DF808FB00BF4DF808EDDB
:10D8F000FFF7EAFF34BF012000205DF808FB00BFFE
:10D900004DF808EDFFF7E0FF94BF012000205DF81F
:10D9100008FB00BF4DF808EDFFF7CEFF94BF0120D4
:10D9200000205DF808FB00BF4DF808EDFFF7C4FFCD
:10D9300034BF012000205DF808FB00BF4FEA410C16
:10D940007FEA6C5C02D150EA013C0AD14FEA430CF9
:10D950007FEA6C5C02D152EA033C02D14FF0000036
:10D9600070474FF0010070474FEA410212F5001274
:10D9700015D211D56FF47873B3EB625212D94FEA16
:10D98000C12343F0004343EA505311F0004F23FA00
:10D9900002F018BF404270474FF00000704750EA55
:10D9A000013005D111F0004008BF6FF00040704712
:10D9B0004FF00000704700BF4A0011D212F500126C
:10D9C00011D20DD56FF47873B3EB62520ED44FEAD7
:10D9D000C12343F0004343EA505323FA02F0704757
:10D9E0004FF00000704750EA013002D14FF0FF3095
:10D9F00070474FF0000070474FEA4102B2F1E04338
:10DA000024BFB3F5001CDCF1FE5C0DD901F0004C25
:10DA10004FEAC0024CEA5070B2F1004F40EB830075
:10DA200008BF20F00100704711F0804F21D113F1A1
:10DA30003872BCBF01F00040704741F480114FEADA
:10DA40005252C2F11802C2F1200C10FA0CF320FA63
:10DA500002F018BF40F001004FEAC1234FEAD32380
:10DA600003FA0CFC40EA0C0023FA02F34FEA4303EA
:10DA7000CCE77FEA625307D150EA01331EBF4FF073
:10DA8000FE4040F44000704701F0004040F0FE408E
:10DA900040F40000704700BF034613F8012B002A32
:10DAA000FBD1181A0138704770B501F0FFFC002552
:10DAB000054E064CA41BA408AC4200D170BD56F81C
:10DAC000043B98470135F7E7D4FF3F02F8FF3F02D8
:10DAD00000F014B808B500F0D7F8BDE8084001F030
:10DAE0009DBC00F043BF00F04FBF0078B0FA80F05B
:10DAF00040097047012303707047000010B50024EF
:10DB000088B001F0FBFB4FF4165101F0EBFB04A8C9
:10DB1000CDE90444ADF8184000F06CFF12482246ED
:10DB200023462146406800F0BFFE684600F0D0F86A
:10DB30000E4B694600930B230D488DF8043000F01E
:10DB4000D3F804A800F050F90A4B0B4C049340F6AC
:10DB5000072304A92046ADF8143000F051F92046FF
:10DB600000F017FA08B010BDE0AE0710100F111248
:10DB70005CAE0710100F110548AE071007B50C4832
:10DB800000F0F0F88DED010A01F0B8FB094901F051
:10DB90002DF901F0B3FB0A219DED010A01F02AFAEB
:10DBA00001F0ACFB044903B05DF804EB01F031B9BE
:10DBB0005CAE0710B0FD3F02D6FD3F0270B50621F6
:10DBC0002B4800F0C6F9642000F008FF092341F259
:10DBD0003421284A264800F0EFF9642000F0FEFEC8
:10DBE00001F08CFB244901F001F90924214D01F0D9
:10DBF00085FB013C102215F8011B01F014F914F00B
:10DC0000FF04F4D101F07AFB1C4901F002F9184E2F
:10DC1000174800F098F90128054607D10821304639
:10DC200000F097F9284600F0D9FEF1E7092341F208
:10DC30003421134A0E4800F0DAF9642000F0CEFED9
:10DC400001F05CFB0F4901F0D1F80D4D013401F0FA
:10DC500055FBE4B2102215F8011B01F0E4F8092C81
:10DC6000F4D101F04BFBBDE87040044901F0D1B89C
:10DC700048AE0710C4AD0710B8FD3F02D6FD3F0205
:10DC800070AE0710C8FD3F0208B5FFF777FF4FF4ED
:10DC90007A7000F0A3FEFFF791FFBDE8084040F660
:10DCA000B83000F09BBE000010B50024064B074AB8
:10DCB0000120C3E900449A6000F04EFD2146BDE812
:10DCC0001040012000F064BD3CAE07100000FFFFD3
:10DCD0004FF0FF3303600371024B836000238381A5
:10DCE000704700BFA0860100F0B50C46054600262F
:10DCF00085B001A800F008FAA368E1780293237BBD
:10DD000028468DF80C30A3788DF804608DF8053026
:10DD100023882F1DADF8063000F087F9E3783846E8
:10DD20002B7401A900F0D6F9013019D031463846DC
:10DD300000F0B4F99DF80C10384600F009FA029989
:10DD4000384600F010FA607B00F0A0F92179A81C99
:10DD500000F060F9287C00F087F9304605B0F0BD8E
:10DD6000FF20FBE7F0B506460A25002485B0071D15
:10DD7000307C00F069F9022201A9384600F07EFAF1
:10DD8000307C00F071F99DF80430013D03F01F0272
:10DD90009DF8053015F0FF0543EA02231C44A4B2A8
:10DDA000E6D10A23B4FBF3F407EE904A9FED0B7A19
:10DDB000F8EEE77AC7EE877A17EE900AFFF7CCFA0B
:10DDC0000022074BFFF720FB0022064BFFF71CFB4E
:10DDD000FFF712FE00EE100A05B0F0BD00F07F451F
:10DDE0000080204000408F404FF0FF33036083806D
:10DDF000024B836000238381704700BFA08601002F
:10DE00007FB50C46054601A800F07EF9A3782E1DCB
:10DE10008DF8053023883046ADF80630E37801A947
:10DE20002B7400F057F9013003D14FF0FF3004B0EC
:10DE300070BD0021304600F031F90130F5D0304698
:10DE4000217B00F085F90130EFD03046A16800F069
:10DE50008AF90130E9D0607B00F018F9287C00F0E5
:10DE600003F92179284600F0E0F86179A81C00F058
:10DE7000DCF80020DBE72DE9F04188460021C2B044
:10DE80000446174602A8FD2201911E4601F0BDFC82
:10DE9000012101AD85F80080B14206D87B1813F846
:10DEA000013C6B540131C9B2F6E7207C00F0CCF89C
:10DEB0002946721C201D00F0B1F90546207C00F0B7
:10DEC000D3F8284642B0BDE8F0817FB50446154638
:10DED0001E46007C8DF80F1000F0B6F82B4601228C
:10DEE0000DF10F010096201D00F04AF90546207C37
:10DEF00000F0BAF8284604B070BD30B5044687B0CB
:10DF0000007CCDE90421039300F09EF8DDE90332A3
:10DF10009DF8280005990090201D00F031F9054674
:10DF2000207C00F0A1F8284607B030BD07B50223D9
:10DF3000052101AAFFF7C9FFBDF8040040BA80B26D
:10DF400003B05DF804FB08B5FFF7F0FF00F0010037
:10DF500008BD002307B50829ADF8043008D1012316
:10DF600001AAFFF7B2FF9DF9040003B05DF804FBBE
:10DF70001A46FFF780FF0120F7E7012307B58DF868
:10DF800007100DF107021946FFF775FF03B05DF8A2
:10DF900004FB10B50446012100F052F8062120468A
:10DFA000FFF7D7FF20460021FFF7E7FFA01C012164
:10DFB00000F046F8002010BD30B51C460546084666
:10DFC0000023C1B011468DF8020022460DF1030076
:10DFD0008DF800308DF8013001F00AFCE31C6A4630
:10DFE00002212846DBB2FFF746FF41B030BD1FB526
:10DFF00003248DF80C4000248DF80F10009303A922
:10E00000134604228DF80D408DF80E40FFF775FF82
:10E0100004B010BD10B50C4621B9007801F0B6FA75
:10E02000204610BD4FF0FF30FBE7012908B504D1B1
:10E03000008801F0ABFA002008BD4FF0FF30FBE78D
:10E04000008801F0B4BA000007B50121019001F089
:10E050009DFA044B0198197803B05DF804EB01F0C8
:10E06000A6BA00BF88AE071007B50121019001F0E4
:10E070008DFA054B01981978B1FA81F1490903B07D
:10E080005DF804EB01F093BA88AE071001289CBF3D
:10E09000014B1870704700BF88AE07100020704712
:10E0A00013B50A4CD4E88F1F11F001010BD12046A3
:10E0B0000191FFF71AFD019928B1054800F0B6FF5C
:10E0C0002046FFF717FD024802B010BD7CAE0710D6
:10E0D00080AE071008B50121122001F057FA012186
:10E0E000052001F053FA0121122001F060FA01210C
:10E0F000052001F05CFAFFF7D3FFFF22002100F0BA
:10E100009FFF002008BD000010B50024012112204F
:10E1100001F03CFA0121052001F038FA012112201A
:10E1200001F045FA0121052001F041FA074B1C706E
:10E13000FFF7B6FF214600F09AFFFFF7B1FFBDE8F9
:10E1400010404FF47A72642100F0C2BF88AE07100D
:10E1500007B50191FFF7A4FF019900F088FF0020A7
:10E1600003B05DF804FB10B50C46FFF799FF0122E0
:10E17000214600F0ADFF201A18BF4FF0FF3010BD50
:10E180002DE9F04F0024154683B09846D31D23F0A7
:10E19000070302AFBE6AADEB030DA54202F1FF32E9
:10E1A0000DF10900D8BF2246894621468DF8084066
:10E1B00001F02BFBF31D23F00703A6420DF1080B22
:10E1C000ADEB030D06F1FF322146D8BF22460DF11B
:10E1D00009008DF8084001F018FBFFF761FF00F01F
:10E1E0005AFF431C0DF1080A14D0FFF759FF2B46C4
:10E1F0005A464946009400F09DFFFFF751FF334611
:10E2000042465146009400F095FFFFF749FF00F0A9
:10E2100045FF20460437BD46BDE8F08F2DE9F041AB
:10E2200000251446D31D23F0070382B0AC4202AF91
:10E23000ADEB030D02F1FF320E46D8BF2A46294648
:10E240000DF109008DF8085001F0DFFAFFF728FF03
:10E2500000F021FF431C0DF108080CD0FFF720FF50
:10E26000234642463146009500F064FFFFF718FF51
:10E2700000F014FF2846BD46BDE8F0812DE9F041CD
:10E2800000251446D31D23F0070382B0AC4202AF31
:10E29000ADEB030D02F1FF320E46D8BF2A462946E8
:10E2A0000DF109008DF8085001F0AFFAFFF7F8FE04
:10E2B00000F0F1FE431C0DF108080CD0FFF7F0FE52
:10E2C000234632464146009500F034FFFFF7E8FE52
:10E2D00000F0E4FE2846BD46BDE8F08109B50448DB
:10E2E0000068044B03441B685B6C029309BD00008B
:10E2F000C0AD07103000000009B504480068044BA9
:10E3000003441B685B68029309BD0000C0AD0710A1
:10E310000000000009B504480068044B03441B6872
:10E320005B69029309BD0000C0AD0710000000004A
:10E3300009B504480068044B03441B689B680293BA
:10E3400009BD0000C0AD07101400000009B5044865
:10E350000068044B03441B68DB68029309BD00009E
:10E36000C0AD07101400000009B504480068044B54
:10E3700003441B681B69029309BD0000C0AD071070
:10E380001400000009B504480068044B03441B68EE
:10E390001B6A029309BD0000C0AD07101000000009
:10E3A00009B504480068044B03441B685B6A029388
:10E3B00009BD0000C0AD07101000000009B50448F9
:10E3C0000068044B03441B689B6A029309BD00006C
:10E3D000C0AD07101000000009B504480068044BE8
:10E3E00003441B68DB6A029309BD0000C0AD07103F
:10E3F0001000000009B504480068044B03441B6882
:10E400001B6B029309BD0000C0AD07101000000097
:10E4100009B504480068044B03441B685B6B029316
:10E4200009BD0000C0AD07101000000009B5044888
:10E430000068044B03441B681B6C029309BD000079
:10E44000C0AD07101000000009B504480068044B77
:10E4500003441B685B69029309BD0000C0AD07104F
:10E460004C00000009B504480068044B03441B68D5
:10E470009B68029309BD0000C0AD0710500000006A
:10E4800009B504480068044B03441B68DB68029329
:10E4900009BD0000C0AD07105000000009B50448D8
:10E4A0000068044B03441B68DB68029309BD00004D
:10E4B000C0AD07101800000009B504480068044BFF
:10E4C00003441B681B69029309BD0000C0AD07101F
:10E4D0001800000009B504480068044B03441B6899
:10E4E000DB69029309BD0000C0AD071018000000F1
:10E4F00009B504480068044B03441B681B6A029377
:10E5000009BD0000C0AD07101800000009B504489F
:10E510000068044B03441B685B6A029309BD00005A
:10E52000C0AD07101800000009B504480068044B8E
:10E5300003441B689B6A029309BD0000C0AD07102D
:10E540001800000009B504480068044B03441B6828
:10E55000DB6A029309BD0000C0AD0710180000007F
:10E5600009B504480068044B03441B689B6B029385
:10E5700009BD0000C0AD07101800000009B504482F
:10E580000068044B03441B681B6C029309BD000028
:10E59000C0AD07101800000009B504480068044B1E
:10E5A00003441B685B6C029309BD0000C0AD0710FB
:10E5B0001800000009B504480068044B03441B68B8
:10E5C000DB68029309BD0000C0AD07102400000005
:10E5D00009B504480068044B03441B681B69029397
:10E5E00009BD0000C0AD07102400000009B50448B3
:10E5F0000068044B03441B685B69029309BD00007B
:10E60000C0AD07102400000009B504480068044BA1
:10E6100003441B689B69029309BD0000C0AD07104D
:10E620002400000009B504480068044B03441B683B
:10E63000DB69029309BD0000C0AD07102400000093
:10E6400009B504480068044B03441B681B6A029325
:10E6500009BD0000C0AD07102400000009B5044842
:10E660000068044B03441B689B6A029309BD0000C9
:10E67000C0AD07102400000009B504480068044B31
:10E6800003441B681B6C029309BD0000C0AD07105A
:10E690002400000009B504480068044B03441B68CB
:10E6A0001B68029309BD0000C0AD071034000000D4
:10E6B00009B504480068044B03441B685B68029377
:10E6C00009BD0000C0AD07103400000009B50448C2
:10E6D0000068044B03441B681B69029309BD0000DA
:10E6E000C0AD07103400000009B504480068044BB1
:10E6F00003441B685B69029309BD0000C0AD0710AD
:10E700003400000009B504480068044B03441B684A
:10E710009B69029309BD0000C0AD071034000000E2
:10E7200009B504480068044B03441B68DB69029385
:10E7300009BD0000C0AD07103400000009B5044851
:10E740000068044B03441B681B6A029309BD000068
:10E75000C0AD07103400000009B504480068044B40
:10E7600003441B685B68029309BD0000C0AD07103D
:10E770000800000009B504480068044B03441B6806
:10E780005B69029309BD0000C0AD071008000000DE
:10E7900009B504480068044B03441B68DB6A029314
:10E7A00009BD0000C0AD07100800000009B504480D
:10E7B0000068044B03441B68D3F88830029309BDFA
:10E7C000C0AD07100800000009B504480068044BFC
:10E7D00003441B68D3F89430029309BDC0AD071001
:10E7E0000800000009B504480068044B03441B6896
:10E7F000DB6B029309BD0000C0AD07102C000000C8
:10E8000009B504480068044B03441B685B6C029321
:10E8100009BD0000C0AD07102C00000009B5044878
:10E820000068044B03441B685B68029309BD000049
:10E83000C0AD07102800000009B504480068044B6B
:10E8400003441B689B68029309BD0000C0AD07101C
:10E850002800000009B504480068044B03441B6805
:10E86000DB68029309BD0000C0AD0710280000005E
:10E8700009B504480068044B03441B681B690293F4
:10E8800009BD0000C0AD07102800000009B504480C
:10E890000068044B03441B685B69029309BD0000D8
:10E8A000C0AD07102800000009B504480068044BFB
:10E8B00003441B689B69029309BD0000C0AD0710AB
:10E8C0002800000009B504480068044B03441B6895
:10E8D000DB69029309BD0000C0AD071028000000ED
:10E8E00009B504480068044B03441B681B6A029383
:10E8F00009BD0000C0AD07102800000009B504489C
:10E900000068044B03441B681B6B029309BD0000A5
:10E91000C0AD07102800000009B504480068044B8A
:10E9200003441B685B6B029309BD0000C0AD071078
:10E930002800000009B504480068044B03441B6824
:10E940001B6C029309BD0000C0AD07102800000039
:10E9500009B504480068044B03441B685B6C0293D0
:10E9600009BD0000C0AD07102800000009B504482B
:10E970000068044B03441B681B68029309BD000038
:10E98000C0AD07100400000009B504480068044B3E
:10E9900003441B685B68029309BD0000C0AD07100B
:10E9A0000400000009B504480068044B03441B68D8
:10E9B0001B6C029309BD0000C0AD071004000000ED
:10E9C00009B504480068044B03441B685B6C029360
:10E9D00009BD0000C0AD0710040000000021FFF7D2
:10E9E000C9BE0000002302480360FFF777BC00BFE8
:10E9F0008CAE07101FB50C230021ADF8043003685E
:10EA0000ADF80D108DF80630037A8DF80F108DF8E3
:10EA1000073043680293437A01A88DF80C30FFF762
:10EA2000EFFE05B05DF804FB002240681146FFF7D9
:10EA300057BF002240681146FFF76EBF00224068B2
:10EA4000FFF75CBF0022406881F00101FFF73ABF89
:10EA5000002340681A461946FFF726BF0023406886
:10EA60001A461946FFF712BF002240681146FFF709
:10EA7000FFBE002240681146FFF7DEBE00220221E1
:10EA80004068FFF7E7BE002340681A46FFF7C6BE9E
:10EA90000322024B5A60024A1A60704790AE071078
:10EAA000E0FD3F027047F8B5064615460C468F1844
:10EAB000BC4206D0336830469B6814F8011B984767
:10EAC000F6E72846F8BD0022007CFFF75BBC00217A
:10EAD000007CFFF765BC0021007CFFF76FBC0021C4
:10EAE000007CFFF779BC0021007CFFF783BC10B5E8
:10EAF00004461421FEF7F7FF204610BD38B5044642
:10EB000015464FF47A730022C4E90123094B0846E5
:10EB1000217423602946FFF789FCBF3008D16B6957
:10EB2000DB0705D56868FFF72FFFE868FFF72CFFC4
:10EB3000204638BD1CFE3F02704710B50446182120
:10EB4000FEF7D1FF204610BDF0B5037D0E46062B23
:10EB50004FF000048DB000F1040712D000F1080559
:10EB600015F8011D0A22304600F05DF9AF42044459
:10EB700019D0002CF4D02E21304600F03BF904448B
:10EB8000EEE72F236A4639460A208DF80040FFF74A
:10EB90005BFC6846FEF780FF3368024669463046F4
:10EBA000DB689847044620460DB0F0BD10B504461A
:10EBB000044B1122002140F8043B00F026FE2046C1
:10EBC00010BD00BF44FE3F020346074A10B543F89C
:10EBD000042B01F1100251F8044B914243F8044B0D
:10EBE000F9D10A781A7010BD44FE3F0210B59DF8A5
:10EBF000084044EA032343EA0242042342EA016153
:10EC00004160037510BD000007B5064B0360CB786B
:10EC100000938B784A780978FFF7E8FF03B05DF836
:10EC200004FB00BF44FE3F02014B024A1A607047DA
:10EC300098AE071050FE3F02002340681A46FFF7C7
:10EC4000EDBD002202214068FFF704BE00224068AB
:10EC50001146FFF7F1BD002240681146FFF708BEDC
:10EC6000002340681A461946FFF710BE002340688B
:10EC70001A461946FFF718BE00214068FFF75ABE32
:10EC800000214068FFF764BE0022406881F0010166
:10EC9000FFF718BE00224068FFF730BE0022406830
:10ECA0001146FFF739BE002240681146FFF718BE33
:10ECB0002DE9F04395B014460D460746FFF776FF61
:10ECC00000211C220DA8009100F09FFD402320464A
:10ECD0000C9300216B460CAAFFF7D2FB04460028D8
:10ECE0004BD1024601216868FFF7C2FD0221804630
:10ECF00022466868FFF7BCFD21468146009E002E33
:10ED00003BD0002939D17368022B03D00A2B11D0D4
:10ED1000F669F4E7B8F1000FFAD0716906A804317A
:10ED20003C1D07ADFFF770FF0FCD0FC42B684146A8
:10ED30002370EDE7B9F1000FEAD0102201A8746941
:10ED400000F063FD062301AD8DF8143004F10803D3
:10ED500018342A4618685968083303C2A342154676
:10ED6000F7D101A906A83C1D07ADFFF72DFF0FCD78
:10ED70000FC42B6849462370CAE70098FFF772FB5F
:10ED8000384615B0BDE8F083024B034A1A600022F2
:10ED90005A6070479CAE07105CFE3F02F8B506460D
:10EDA0000D4600248F18BD420CD0336830469B6856
:10EDB00015F8011B9847031E01DB1C44F3E7002CE8
:10EDC00008BF1C462046F8BD13B50446084659B195
:10EDD0000191FEF761FE0246204623680199DB6837
:10EDE00002B0BDE81040184702B010BD08B5FFF7EB
:10EDF000EBFF08BD03689B68184738B50D21054631
:10EE0000FFF7F8FF0A2104462846FFF7F3FF2044E6
:10EE100038BD38B50546FFF7D7FF04462846FFF74B
:10EE2000ECFF204438BD0023012A98BF0A2230B5E8
:10EE30008BB08DF8243009AC0D46B1FBF2F101FB2B
:10EE4000125303F0FF03092B94BF30333733DBB287
:10EE5000AA4204F8013DEFD92146FFF7B5FF0BB0F8
:10EE600030BD00002DE9F74F55EC104B06460F461C
:10EE700010EE102A2B4610EE100A2946FEF75EFD12
:10EE800040B153493046FFF79FFF8246504603B0DA
:10EE9000BDE8F08F25F000494FF0FF32204649468B
:10EEA0004C4BFEF74BFD48B94FF0FF322046494628
:10EEB000484BFEF725FD08B94749E3E74FF06042AC
:10EEC00020462946454BFEF72FFD08B14449D9E7B6
:10EED0004FF0604220462946424BFEF707FD0028CE
:10EEE000F4D10022002320462946FEF7FFFCD0B1D2
:10EEF0002D213046FFF77EFF05F1004382461D4677
:10EF00004FF0000B00204FF000083749DFF8E09089
:10EF10005FFA8BF39F4208D942464B46FEF79EFBB1
:10EF20000BF1010BF4E78246EAE722462B46FEF797
:10EF3000B5F80D460446FEF73FFD8046FEF7EAF9B8
:10EF400002460B4620462946FEF7A6F80A2204464A
:10EF50000D4630464146FFF766FF8244002F95D0AC
:10EF600030462249FFF730FF4FF00008DFF880906D
:10EF70008244002F8AD042464B4620462946FEF75F
:10EF800043FA04460D46FEF7EFFCB0F1000B1CDA25
:10EF90002D213046FFF72EFF0346CBF100010A2258
:10EFA00030460193FFF73FFF019B013F1844824425
:10EFB0005846FEF7BFF902460B4620462946FEF7A3
:10EFC0006BF8FFB204460D46D3E759460023E6E747
:10EFD00090FE3F02FFFFEF7F94FE3F02FFFFEF41F5
:10EFE00098FE3F02FFFFEFC10000E03F9CFE3F02A2
:10EFF0000000244038B5044610EE100ACDB2FEF7EA
:10F00000ABF941EC100B29462046BDE83840FFF72C
:10F0100029BF00000022014B9A607047A4AE071080
:10F020000021FFF7B9BA0021FFF7A8BA10B50446CE
:10F0300008462170FFF74EFA00232046636010BD9A
:10F0400013B504460078CDE90021FFF7ECFFDDE9B8
:10F050000021034648B920780090FFF773FA009822
:10F0600002B0BDE81040FFF7DBBF02B010BD13B522
:10F07000044600780191FFF7D6FF019948B920783E
:10F080000190FFF70BFA019802B0BDE81040FFF7BE
:10F09000C7BF02B010BD0078FFF7C5BF0078FFF70B
:10F0A000BFBF000030B50024400818601868E5B202
:10F0B000884206D90134082C02D040081860F5E7D0
:10F0C0000725024B5B5D137030BD00BF9EFE3F0203
:10F0D00000232DE9F041044688B000780E4617461B
:10F0E0000293FFF7A0FF054600BB0146142203A8C8
:10F0F00094F8008000F089FB0B232A46404603A9C0
:10F10000ADF80C30FFF702FA07FB06F1049802ABEA
:10F110000DF107028DF80750FFF7C4FF20789DF826
:10F120000710FFF7C9F92078FFF77AFF029808B0B7
:10F13000BDE8F08130B587B00A9D0446009500789F
:10F14000FFF7F2F93DB9207802A9FFF709FA9DF817
:10F150001430DB07F7D407B030BD000002220020D6
:10F16000044B1A60044B054AC3E900009A60FFF79C
:10F17000F3BA00BFC0AE0710B4AE07100000FFFF27
:10F18000024B1A68024B1A60704700BFD0AD0710DF
:10F19000C4AE071070474174704708B5007CFFF794
:10F1A0005DFA20EAE07008BD08B5007CFFF710FAB0
:10F1B00020EAE07008BD08B5007CFFF725FA40EAB8
:10F1C000E07008BD08B5007CFFF710FA40EAE07077
:10F1D00008BD007CFFF726BA37B5457C04462DB143
:10F1E000207C03B0BDE83040FFF7E4B9007C01911A
:10F1F000FFF734FA00280199F2DC284603B030BD4D
:10F2000010B504461421FEF76EFC204610BD000028
:10F2100010B54FF47A730446084611460022C4E93B
:10F220000123044B2074236001236374FFF724FA45
:10F23000204610BDCCFE3F02007CFFF701BA4174AE
:10F2400070477047704708B50021007CFFF75AFAF5
:10F2500040EAE07008BD08B50121007CFFF752FAD2
:10F2600040EAE07008BD08B5007CFFF73DFA20EAEF
:10F27000E07008BD08B5007CFFF728FA20EAE070CE
:10F2800008BD13B50446007C0191FFF72DFA002854
:10F29000019901DC607C20B1207CFFF741FA20EA73
:10F2A000E07002B010BD007CFFF748BA10B504460C
:10F2B0001421FEF718FC204610BD000010B54FF4D5
:10F2C0007A73044608460021C4E90113044B2074F4
:10F2D0002360012311466374FFF7DCF9204610BD5B
:10F2E000FCFE3F020022007CFFF7E2B910B50446A5
:10F2F0001422002100F089FA204610BD10B588B014
:10F3000003A8FFF7F3FF0C4CD4E88F1F11F00101A5
:10F310000FD120460191FEF7E8FB019948B103AAFD
:10F320000648FFF7CBFF2046FEF7E4FB044800F059
:10F3300059FA024808B010BDC8AE0710CCAE07108D
:10F340009BF63F02002240681146FFF791BA002267
:10F3500040681146FFF7C4BA002240681146FFF723
:10F36000DBBA00224068FFF7C9BA0022406881F08A
:10F370000101FFF7A7BA002340681A461946FFF7B4
:10F3800093BA002340681A461946FFF77FBA002255
:10F3900040681146FFF750BA002202214068FFF78B
:10F3A00059BA002340681A46FFF738BA0422024BC4
:10F3B0005A60024A1A607047E0AE07102CFF3F0205
:10F3C000014B1860704700BFD4AD071008B50F4B54
:10F3D00043B1FFF793FF03681B699847002801DDDD
:10F3E00000E000BF0A4B43B100F06AF903681B69F3
:10F3F0009847002801DD00E000BF064B0BB100F08C
:10F40000A5F9054B0BB100F0D7F908BD00000000CD
:10F4100000000000000000000000000008B5FFF739
:10F42000D5FFFEF777FF014B186008BDF0AE07105F
:10F430000548064A08B5121A054900F0D9F9054BE6
:10F44000054A1A6008BD00BF00B4071004B40710D5
:10F450001CFC5F0800B407101E1C279A002307B588
:10F460001A466FF077010093FFF7AEF903B05DF82D
:10F4700004FB000007B543880A2B08D0502B0BD1A2
:10F48000094B1B684BB103B05DF804EB1847FFF75D
:10F49000E5FF03B05DF804FB00231A466FF0770127
:10F4A0000093FFF791F9F4E7ECAE0710002110B5D7
:10F4B0001148FFF785FA114B1A68114B9A420CBF9D
:10F4C000012200220F4B1A7001D0FFF7B1FFFEF7A7
:10F4D00013FF044600F0A2F90B4B13B1204600E0E5
:10F4E00000BF00210848FFF77DF9BDE8104000216A
:10F4F0000648FFF75BB900BF19F83F0200B40710D8
:10F500001E1C279AE8AE071000000000CDF83F024D
:10F510001B2837B5044602D9002003B030BDA0F146
:10F520000F03022B0BD9012821D800F075F8002118
:10F53000007CFEF76DFF80F00100C0B2EDE7114DD9
:10F54000D5E88F1F11F001010BD128460191FEF77C
:10F55000CCFA019928B10C48FFF768FD2846FEF760
:10F56000C9FA094B1878FEF7C3FF0028D4D1083C2C
:10F57000012C05D800F0A4F8007CFFF761F8DAE769
:10F580000120CAE77CAE071080AE07101B2838B5F3
:10F5900004460D460AD8FF2908D0FFF7B9FF28B165
:10F5A00029462046BDE83840FEF7C2BE38BD38B512
:10F5B00004460D46FEF7CAFEFF2810D0062804D8E0
:10F5C0004D2323FA00F0C30709D42046FFF7A0FF1C
:10F5D00028B129462046BDE83840FEF7C5BE38BDF3
:10F5E0007047000038B50A4B0446036001230949FF
:10F5F0004361202000F0F4F820256060054928468A
:10F60000A56000F0EDF8C4E90305204638BD00BF51
:10F610001800010060FF3F0230B50E4D87B0D5E8FD
:10F620008F1F11F0010411D12846FEF75EFA68B170
:10F630006846FFF7D7FF6A4621460748FFF75EFA9C
:10F640002846FEF757FA054800F0CCF8024807B004
:10F6500030BD00BFF4AE0710F8AE071039FA3F0214
:10F660007047000038B5142504462A46002100F0F2
:10F67000CCF825804025074928462581258200F0C1
:10F68000AFF804496060284600F0AAF8E060204620
:10F6900038BD00BF60FF3F027047704710B5044699
:10F6A000FFF7E0FF204610BD10B50446FFF7DAFF74
:10F6B000204610BD10B50446FFF7D4FF204610BD0C
:10F6C00030B50E4D87B0D5E88F1F11F0010411D170
:10F6D0002846FEF70AFA68B101A8FFF7DFFF2146C6
:10F6E00001AA0748FFF794FD2846FEF703FA0548EC
:10F6F00000F078F8024807B030BD00BF0CAF07102B
:10F7000018AF0710B9FA3F0210B50D4C86B0D4E817
:10F710008F3FDB0711D42046FEF7E7F968B101A857
:10F72000FFF7C2FF012101AA0648FFF771FD20463D
:10F73000FEF7E0F9044800F055F8024806B010BDA5
:10F7400010AF07102CAF0710F3FA3F0210B5FFF708
:10F75000DBFF074B044653B1FFF76EFD38B123685A
:10F7600020461B699847002801DD00E000BF10BD5E
:10F770000000000010B50D4C86B0D4E88F3FDB07C9
:10F7800011D42046FEF7B1F968B101A8FFF792FF46
:10F79000022101AA0648FFF73BFD2046FEF7AAF921
:10F7A000044800F01FF8024806B010BD14AF07105F
:10F7B00040AF0710F1FA3F0210B5FFF7DBFF074B30
:10F7C000044653B1FFF738FD38B1236820461B6962
:10F7D0009847002801DD00E000BF10BD00000000D8
:10F7E000FEF77FB9002301461A46184600F044B8D8
:10F7F0000A44431E914200D1704710B511F8014BE5
:10F80000914203F8014FF9D110BD024403469342DF
:10F8100000D1704703F8011BF9E7000038B5104B21
:10F8200004461D68AB6BB3B91820FFF79FF802467A
:10F83000A86320B90B4B42210B48FFF7B3F80B49E3
:10F840000B4BC0E900130B4B002183600B2383811A
:10F850000120C2E90401AB6B00221C615A6138BD72
:10F86000D4AD071061FF3F0278FF3F020E33CDABEE
:10F8700034126DE6ECDE05002DE9F843DFF8BC80BC
:10F8800006461F460D46D8F80000914600F058F88D
:10F89000264B1C6834B9264C1C60264B13B11B68E0
:10F8A000C4F8883063681F2B07DDD8F8000000F02B
:10F8B00049F84FF0FF30BDE8F8835EB3D4F8880014
:10F8C00088B91D4B23B9D8F8000000F03AF8F0E7EA
:10F8D0004FF48470FFF74AF80028F4D00023C0E901
:10F8E0004033C4F8880063680122022E40F8239058
:10F8F00002FA03F200EB8301D0F8003143EA02037D
:10F90000C0F80031C1F8807002BFD0F80431134351
:10F91000C0F804316368D8F800005A1C02336260F2
:10F9200044F8235000F00EF80020C4E7E0AF0710C1
:10F9300054AF071000000000C5ED3F0238AE0710BD
:10F94000704770477047000001DF3F0229DF3F0228
:10F950002DDF3F020000000076616C75653A2000E3
:10F96000203E20577269746520646174613A2000FA
:10F97000203E205265616420646174613A20000079
:10F980000000000000000000DFEE3F02D5EE3F0265
:10F99000CBEE3F02C1EE3F02B5EE3F02A9EE3F02C1
:10F9A000D1F03F02D9F03F029DEE3F0295EE3F02BB
:10F9B0008BEE3F0281EE3F0209F13F0200000000A2
:10F9C00000000000FDEE3F0247EF3F021FEF3F0245
:10F9D000FFEE3F0227EF3F022FEF3F0237EF3F02DC
:10F9E0003FEF3F020000000000000000A1EF3F02D7
:10F9F00091EF3F0293EF3F02617070000000000042
:10FA00000000000091F03F029BF03F02A5F03F0292
:10FA1000AFF03F02B9F03F02C5F03F02D1F03F0224
:10FA2000D9F03F02E1F03F02EDF03F02F5F03F0276
:10FA3000FFF03F0209F13F026E616E00696E6600E1
:10FA40006F7666002E0000081018202830382559DF
:10FA50002D256D2D25645425483A254D3A255325ED
:10FA60007A0061736374696D650000000000000036
:10FA700000000000EDF53F0259F63F0231F63F026B
:10FA8000F5F13F0201F63F021DF63F020FF63F027D
:10FA90002BF63F02EFF53F02F3F53F0200000000B6
:10FAA000000000009DF63F0205F73F02DBF63F0233
:10FAB000F5F13F02CDF63F029FF63F02AFF63F025F
:10FAC000FFF63F02BFF63F0297F63F02000000003C
:10FAD00000000000FBF73F02F1F73F02E7F73F02AB
:10FAE0009DF73F02DBF73F02CFF73F02D1F03F0225
:10FAF000D9F03F02C3F73F02BBF73F02B1F73F0225
:10FB0000A7F73F0209F13F02005245454E54206DD0
:10FB1000616C6C6F63207375636365656465640015
:10FB20002F746D702F6A656E6B696E732D4743433A
:10FB30002D31302D706970656C696E652D34385FBC
:10FB400032303230313132345F3136303631383064
:10FB50003633392F7372632F6E65776C69622F6E3F
:10FB600065776C69622F6C6962632F7374646C696A
:10FB7000622F72616E642E630000000001E13F029B
:10FB80003DEE3F02E9EE3F0281F03F02E1F13F022C
:10FB90006DF43F02B5F53F02D9F53F0205F83F028B
:10FBA000000000026D696B726F450D0A00000000D5
:10FBB000BAFE3F02D8AD07100000000000000000B0
:10FBC0000000000000000000000000000000000035
:10FBD0000000000000000000000000000000000025
:10FBE0000000000000000000000000000000000015
:10FBF0000000000000000000000000000000000005
:10FC000000000000000000000000000000000000F4
:0CFC10000000000000000000E4AF07103E
:04FC1C0000000000E4
:10FFBE000200100000D05F0888D05F08E0D43F0236
:10FFCE0001000A00FFFFFFFFFFFF00000102030414
:10FFDE0005060708090A0B0C0D0E0F10111213144B
:0EFFEE0015161718191A1B1C1D1E1F203E0089
:04FFFC0078563412ED
:04000005085FD018A8
:00000001FF
