:02000004085F93
:10C0000000C05F08FCFF5F0800000600200005017B
:08C010000401B414000000005B
:10C018000E480F4908B5884205D00E4A824202D020
:10C028000D4B121A98470D480D4A00210D4B121A54
:10C0380098470D480D49884205D00D4A824202D0E2
:10C04800054B121A9847014808BD00BFB8AD071044
:10C0580054EF5F0828AE07102D0D111028AE0710F9
:10C06800E8AF0710A10E111030D13F0288C05F0859
:0CC07800FCFF3F0219C05F080000000040
:08C088007CC05F0890FD3F023F
:10C0900081F0004102E000BF83F0004330B54FEA79
:10C0A00041044FEA430594EA050F08BF90EA020FE6
:10C0B0001FBF54EA000C55EA020C7FEA645C7FEA79
:10C0C000655C00F0E2804FEA5454D4EB5555B8BF9C
:10C0D0006D420CDD2C4480EA020281EA030382EA0D
:10C0E000000083EA010180EA020281EA0303362D9F
:10C0F00088BF30BD11F0004F4FEA01314FF4801C72
:10C100004CEA113102D0404261EB410113F0004F83
:10C110004FEA03334CEA133302D0524263EB43033A
:10C1200094EA050F00F0A780A4F10104D5F1200ED8
:10C130000DDB02FA0EFC22FA05F2801841F1000133
:10C1400003FA0EF2801843FA05F359410EE0A5F107
:10C1500020050EF1200E012A03FA0EFC28BF4CF038
:10C16000020C43FA05F3C01851EBE37101F00045EE
:10C1700007D54FF0000EDCF1000C7EEB00006EEBFB
:10C180000101B1F5801F1BD3B1F5001F0CD3490885
:10C190005FEA30004FEA3C0C04F101044FEA4452DC
:10C1A00012F5800F80F09A80BCF1004F08BF5FEA63
:10C1B000500C50F1000041EB045141EA050130BD43
:10C1C0005FEA4C0C404141EB0101013C28BFB1F555
:10C1D000801FE9D291F0000F04BF01460020B1FAA0
:10C1E00081F308BF2033A3F10B03B3F120020CDA73
:10C1F0000C3208DD02F1140CC2F10C0201FA0CF051
:10C2000021FA02F10CE002F11402D8BFC2F1200CB5
:10C2100001FA02F120FA0CFCDCBF41EA0C0190406B
:10C22000E41AA2BF01EB0451294330BD6FEA0404B4
:10C230001F3C1CDA0C340EDC04F11404C4F120029F
:10C2400020FA04F001FA02F340EA030021FA04F3B1
:10C2500045EA030130BDC4F10C04C4F1200220FA08
:10C2600002F001FA04F340EA0300294630BD21FA46
:10C2700004F0294630BD94F0000F83F4801306BF0C
:10C2800081F480110134013D4EE77FEA645C18BF00
:10C290007FEA655C29D094EA050F08BF90EA020F97
:10C2A00005D054EA000C04BF1946104630BD91EA8F
:10C2B000030F1EBF0021002030BD5FEA545C05D192
:10C2C0004000494128BF41F0004130BD14F58004D1
:10C2D0003CBF01F5801130BD01F0004545F0FE4145
:10C2E00041F470014FF0000030BD7FEA645C1ABF7A
:10C2F000194610467FEA655C1CBF0B46024650EAB1
:10C30000013406BF52EA033591EA030F41F40021DC
:10C3100030BD00BF90F0000F04BF0021704730B562
:10C320004FF4806404F132044FF000054FF0000137
:10C3300050E700BF90F0000F04BF0021704730B5F8
:10C340004FF4806404F1320410F0004548BF4042CD
:10C350004FF000013EE700BF42004FEAE2014FEA22
:10C3600031014FEA02701FBF12F07F4393F07F4FFD
:10C3700081F06051704732F07F4208BF704793F000
:10C380007F4F04BF41F40021704730B54FF4607413
:10C3900001F0004521F000411CE700BF50EA010216
:10C3A00008BF704730B54FF000050AE050EA0102BF
:10C3B00008BF704730B511F0004502D5404261EB2F
:10C3C00041014FF4806404F132045FEA915C3FF470
:10C3D000D8AE4FF003025FEADC0C18BF03325FEA0D
:10C3E000DC0C18BF033202EBDC02C2F1200300FABE
:10C3F00003FC20FA02F001FA03FE40EA0E0021FAE3
:10C4000002F11444BDE600BF70B54FF0FF0C4CF4D0
:10C41000E06C1CEA11541DBF1CEA135594EA0C0F82
:10C4200095EA0C0F00F0DEF82C4481EA030621EABD
:10C430004C5123EA4C5350EA013518BF52EA0335F8
:10C4400041F4801143F4801338D0A0FB02CE4FF0AA
:10C450000005E1FB02E506F00042E0FB03E54FF0DA
:10C460000006E1FB03569CF0000F18BF4EF0010ED2
:10C47000A4F1FF04B6F5007F64F5407404D25FEACE
:10C480004E0E6D4146EB060642EAC62141EA555181
:10C490004FEAC52040EA5E504FEACE2EB4F1FD0CC3
:10C4A00088BFBCF5E06F1ED8BEF1004F08BF5FEA41
:10C4B000500E50F1000041EB045170BD06F00046F3
:10C4C00046EA010140EA020081EA0301B4EB5C04A0
:10C4D000C2BFD4EB0C0541EA045170BD41F4801198
:10C4E0004FF0000E013C00F3AB8014F1360FDEBFBD
:10C4F000002001F0004170BDC4F10004203C35DA99
:10C500000C341BDC04F11404C4F1200500FA05F31B
:10C5100020FA04F001FA05F240EA020001F00042BC
:10C5200021F0004110EBD37021FA04F642EB060132
:10C530005EEA430E08BF20EAD37070BDC4F10C045C
:10C54000C4F1200500FA04F320FA05F001FA04F220
:10C5500040EA020001F0004110EBD37041F100010C
:10C560005EEA430E08BF20EAD37070BDC4F1200517
:10C5700000FA05F24EEA020E20FA04F301FA05F27F
:10C5800043EA020321FA04F001F0004121FA04F227
:10C5900020EA020000EBD3705EEA430E08BF20EAF7
:10C5A000D37070BD94F0000F0FD101F00046400031
:10C5B00041EB010111F4801F08BF013CF7D041EAB3
:10C5C000060195F0000F18BF704703F000465200B7
:10C5D00043EB030313F4801F08BF013DF7D043EA88
:10C5E0000603704794EA0C0F0CEA135518BF95EA3E
:10C5F0000C0F0CD050EA410618BF52EA4306D1D1C5
:10C6000081EA030101F000414FF0000070BD50EAE3
:10C61000410606BF1046194652EA430619D094EA6D
:10C620000C0F02D150EA013613D195EA0C0F05D157
:10C6300052EA03361CBF104619460AD181EA0301AB
:10C6400001F0004141F0FE4141F470014FF0000063
:10C6500070BD41F0FE4141F4780170BD70B54FF0FE
:10C66000FF0C4CF4E06C1CEA11541DBF1CEA13557E
:10C6700094EA0C0F95EA0C0F00F0A7F8A4EB050460
:10C6800081EA030E52EA03354FEA013100F0888057
:10C690004FEA03334FF0805545EA131343EA126320
:10C6A0004FEA022245EA111545EA10654FEA0026D5
:10C6B0000EF000419D4208BF964244F1FD0404F58E
:10C6C000407402D25B084FEA3202B61A65EB0305EA
:10C6D0005B084FEA32024FF480104FF4002CB6EBA7
:10C6E000020E75EB030E22BFB61A754640EA0C0027
:10C6F0005B084FEA3202B6EB020E75EB030E22BF67
:10C70000B61A754640EA5C005B084FEA3202B6EBA7
:10C71000020E75EB030E22BFB61A754640EA9C0066
:10C720005B084FEA3202B6EB020E75EB030E22BF36
:10C73000B61A754640EADC0055EA060E18D04FEAF4
:10C74000051545EA16754FEA06164FEAC30343EA94
:10C7500052734FEAC2025FEA1C1CC0D111F4801F61
:10C760000BD141EA00014FF000004FF0004CB6E75A
:10C7700011F4801F04BF01430020B4F1FD0C88BFF9
:10C78000BCF5E06F3FF6AFAEB5EB030C04BFB6EB04
:10C79000020C5FEA500C50F1000041EB045170BDF7
:10C7A0000EF0004E4EEA113114EB5C04C2BFD4EB24
:10C7B0000C0541EA045170BD41F480114FF0000EA8
:10C7C000013C90E645EA060E8DE60CEA135594EA24
:10C7D0000C0F08BF95EA0C0F3FF43BAF94EA0C0F27
:10C7E0000AD150EA01347FF434AF95EA0C0F7FF49C
:10C7F00025AF104619462CE795EA0C0F06D152EAF0
:10C8000003353FF4FDAE1046194622E750EA4106D3
:10C8100018BF52EA43067FF4C5AE50EA41047FF4E4
:10C820000DAF52EA43057FF4EBAE12E74FF0FF3C49
:10C8300006E000BF4FF0010C02E000BF4FF0010C1A
:10C840004DF804CD4FEA410C7FEA6C5C4FEA430C93
:10C8500018BF7FEA6C5C1BD001B050EA410C0CBFE2
:10C8600052EA430C91EA030F02BF90EA020F002044
:10C87000704710F1000F91EA030F58BF994208BFAB
:10C8800090422CBFD8176FEAE37040F00100704768
:10C890004FEA410C7FEA6C5C02D150EA013C07D1BF
:10C8A0004FEA430C7FEA6C5CD6D152EA033CD3D00A
:10C8B0005DF8040B704700BF8446104662468C4604
:10C8C0001946634600E000BF01B5FFF7B7FF002837
:10C8D00048BF10F1000F01BD4DF808EDFFF7F4FF60
:10C8E0000CBF012000205DF808FB00BF4DF808EDEB
:10C8F000FFF7EAFF34BF012000205DF808FB00BF0E
:10C900004DF808EDFFF7E0FF94BF012000205DF82F
:10C9100008FB00BF4DF808EDFFF7CEFF94BF0120E4
:10C9200000205DF808FB00BF4DF808EDFFF7C4FFDD
:10C9300034BF012000205DF808FB00BF4FEA410C26
:10C940007FEA6C5C02D150EA013C0AD14FEA430C09
:10C950007FEA6C5C02D152EA033C02D14FF0000046
:10C9600070474FF0010070474FEA410212F5001284
:10C9700015D211D56FF47873B3EB625212D94FEA26
:10C98000C12343F0004343EA505311F0004F23FA10
:10C9900002F018BF404270474FF00000704750EA65
:10C9A000013005D111F0004008BF6FF00040704722
:10C9B0004FF00000704700BF4A0011D212F500127C
:10C9C00011D20DD56FF47873B3EB62520ED44FEAE7
:10C9D000C12343F0004343EA505323FA02F0704767
:10C9E0004FF00000704750EA013002D14FF0FF30A5
:10C9F00070474FF0000070474FEA4102B2F1E04348
:10CA000024BFB3F5001CDCF1FE5C0DD901F0004C35
:10CA10004FEAC0024CEA5070B2F1004F40EB830085
:10CA200008BF20F00100704711F0804F21D113F1B1
:10CA30003872BCBF01F00040704741F480114FEAEA
:10CA40005252C2F11802C2F1200C10FA0CF320FA73
:10CA500002F018BF40F001004FEAC1234FEAD32390
:10CA600003FA0CFC40EA0C0023FA02F34FEA4303FA
:10CA7000CCE77FEA625307D150EA01331EBF4FF083
:10CA8000FE4040F44000704701F0004040F0FE409E
:10CA900040F40000704700BF034613F8012B002A42
:10CAA000FBD1181A0138704770B501F0CFFE002590
:10CAB000054E064CA41BA408AC4200D170BD56F82C
:10CAC000043B98470135F7E7D8FF3F02FCFF3F02E0
:10CAD00000F014B808B500F0D7F8BDE8084001F040
:10CAE0006DBE01F0D7B801F0E3B80078B0FA80F07D
:10CAF00040097047012303707047000010B50024FF
:10CB00008CB001F0CBFD4FF4165101F0BBFD08A82D
:10CB1000CDE90844ADF8284001F000F91948224653
:10CB200023462146406801F053F804A800F0D0F8ED
:10CB3000154B04A904930B2314488DF8143000F00E
:10CB4000D3F808A800F050F9114B124C089340F6A6
:10CB5000072308A92046ADF8243000F051F92046FB
:10CB600000F0EBF901A800F036FC01230A4C01A902
:10CB70002046ADF8043000F036FC204600F0E0FC22
:10CB80000CB010BDE0AE0710100F111248AE071028
:10CB9000100F110534AE07105CAE071007B50C4836
:10CBA00000F0E0F88DED010A01F078FD094901F08F
:10CBB000EDFA01F073FD0A219DED010A01F0EAFB97
:10CBC00001F06CFD044903B05DF804EB01F0F1BA2B
:10CBD00048AE0710A0FD3F02B0FD3F0238B5234824
:10CBE0002DED028B00F03CFC214D204885ED000A24
:10CBF0009FED208A00F072FCD5ED007AF4EE487AC1
:10CC0000F1EE10FA1C4C84ED000A10D001F046FD44
:10CC10001A4901F0BBFA01F041FD0A2195ED000A25
:10CC200001F0B8FB01F03AFD154901F0C2FAD4ED6C
:10CC3000007AF4EE487AF1EE10FA14D001F02EFDED
:10CC4000104901F0A3FA01F029FD0A2194ED000A30
:10CC500001F0A0FB01F022FDBDEC028BBDE83840E5
:10CC6000074901F0A6BABDEC028B38BD5CAE0710D7
:10CC70006CAE07100000804770AE0710B1FD3F0298
:10CC8000B0FD3F02C4FD3F0208B5FFF787FF4FF438
:10CC90007A7001F037F8FFF7A1FFBDE808404FF4C4
:10CCA000FA7001F02FB8000010B50024064B074AB7
:10CCB0000120C3E900449A6000F0E2FE2146BDE88D
:10CCC0001040012000F0F8BE28AE07100000FFFF62
:10CCD0004FF0FF3303600371024B836000238381B5
:10CCE000704700BFA0860100F0B50C46054600263F
:10CCF00085B001A800F026FAA368E1780293237BAF
:10CD000028468DF80C30A3788DF804608DF8053036
:10CD100023882F1DADF8063000F02DF9E378384652
:10CD20002B7401A900F0F4F9013019D031463846CE
:10CD300000F0D2F99DF80C10384600F027FA02995D
:10CD4000384600F02EFA607B00F0BEF92179A81C6D
:10CD500000F006F9287C00F0A5F9304605B0F0BDDA
:10CD6000FF20FBE7F0B506460A25002485B0071D25
:10CD7000307C00F087F9022201A9384600F09CFAC5
:10CD8000307C00F08FF99DF80430013D03F01F0264
:10CD90009DF8053015F0FF0543EA02231C44A4B2B8
:10CDA000E6D10A23B4FBF3F407EE904A9FED0B7A29
:10CDB000F8EEE77AC7EE877A17EE900AFFF7CCFA1B
:10CDC0000022074BFFF720FB0022064BFFF71CFB5E
:10CDD000FFF712FE00EE100A05B0F0BD00F07F452F
:10CDE0000080204000408F404FF0FF33036083807D
:10CDF000024B836000238381704700BFA08601003F
:10CE00007FB50C46054601A800F09CF9A3782E1DBD
:10CE10008DF8053023883046ADF80630E37801A957
:10CE20002B7400F075F9013003D14FF0FF3004B0DE
:10CE300070BD0021304600F04FF90130F5D030468A
:10CE4000217B00F0A3F90130EFD03046A16800F05B
:10CE5000A8F90130E9D0607B00F036F9287C00F0B9
:10CE600021F92179284600F086F86179A81C00F0A4
:10CE700082F80020DBE72DE9F04188460021C2B0AE
:10CE80000446174602A8FD2201911E4601F08DFEC0
:10CE9000012101AD85F80080B14206D87B1813F856
:10CEA000013C6B540131C9B2F6E7207C00F0EAF88E
:10CEB0002946721C201D00F0CFF90546207C00F0A9
:10CEC000F1F8284642B0BDE8F0817FB5044615462A
:10CED0001E46007C8DF80F1000F0D4F82B4601227E
:10CEE0000DF10F010096201D00F068F90546207C29
:10CEF00000F0D8F8284604B070BD002307B5082913
:10CF0000ADF8043008D1012301AAFFF7DEFF9DF937
:10CF1000040003B05DF804FB1A46FFF7ACFF0120E4
:10CF2000F7E7012307B58DF807100DF10702194641
:10CF3000FFF7A1FF03B05DF804FB10B50446012123
:10CF400000F024F806212046FFF7D7FF20460021F5
:10CF5000FFF7E7FFA01C012100F018F8002010BD2A
:10CF600010B50C4621B9007801F0E0FC204610BD58
:10CF70004FF0FF30FBE7012908B504D1008801F02C
:10CF8000D5FC002008BD4FF0FF30FBE7008801F022
:10CF9000DEBC000010B50024054B1C70054B1C6066
:10CFA00001F00AFD2146BDE8104000F059BF00BF66
:10CFB00074AE071078AE071008B501F0FDFC054B04
:10CFC000196800F04DFF01F0F7FC00F04DFF002064
:10CFD00008BD00BF78AE071010B50C46044B1960B1
:10CFE00001F0EAFC214600F03BFF002010BD00BF2D
:10CFF00078AE0710014B00201970704774AE07100F
:10D0000013B50C46019201F0D7FC0B4B197800F0D8
:10D010005AFF01F0D1FC03682146DB68019A98476A
:10D0200001F0CAFC012100F052FF013818BF4FF097
:10D03000FF3002B010BD00BF74AE07102DE9F04103
:10D0400015460E4601F0B8FC0D4901232A46097821
:10D0500000F027FF0027C4B25FFA87F8454507F1C3
:10D06000010707D901F0A8FC03685B69984706F837
:10D070000800F1E7B4FA84F040094042BDE8F081CD
:10D0800074AE071007B50121019001F04FFC044B6D
:10D090000198197803B05DF804EB01F058BC00BFAB
:10D0A00088AE071007B50121019001F03FFC054B48
:10D0B00001981978B1FA81F1490903B05DF804EBE0
:10D0C00001F045BC88AE071001289CBF014B1870C9
:10D0D000704700BF88AE07100020704713B50A4C98
:10D0E000D4E88F1F11F001010BD120460191FFF709
:10D0F000FCFC019928B1054801F068F92046FFF7CA
:10D10000F9FC024802B010BD7CAE071080AE0710DB
:10D1100008B50121122001F009FC0121052001F0D0
:10D1200005FC0121122001F012FC0121052001F073
:10D130000EFCFFF7D3FFFF22002101F051F9002080
:10D1400008BD000010B500240121122001F0EEFB03
:10D150000121052001F0EAFB0121122001F0F7FB7B
:10D160000121052001F0F3FB074B1C70FFF7B6FF10
:10D17000214601F04CF9FFF7B1FFBDE810404FF434
:10D180007A72642101F074B988AE071007B5019175
:10D19000FFF7A4FF019901F03AF9002003B05DF810
:10D1A00004FB10B50C46FFF799FF0122214601F060
:10D1B0005FF9201A18BF4FF0FF3010BD2DE9F04F76
:10D1C0000024154683B09846D31D23F0070302AF11
:10D1D000BE6AADEB030DA54202F1FF320DF109006D
:10D1E000D8BF2246894621468DF8084001F0DDFC73
:10D1F000F31D23F00703A6420DF1080BADEB030D61
:10D2000006F1FF322146D8BF22460DF109008DF804
:10D21000084001F0CAFCFFF761FF01F00CF9431C64
:10D220000DF1080A14D0FFF759FF2B465A4649461C
:10D23000009401F04FF9FFF751FF33464246514643
:10D24000009401F047F9FFF749FF01F0F7F8204695
:10D250000437BD46BDE8F08F2DE9F04100251446A6
:10D26000D31D23F0070382B0AC4202AFADEB030D38
:10D2700002F1FF320E46D8BF2A4629460DF10900B9
:10D280008DF8085001F091FCFFF728FF01F0D3F86A
:10D29000431C0DF108080CD0FFF720FF234642463F
:10D2A0003146009501F016F9FFF718FF01F0C6F8B6
:10D2B0002846BD46BDE8F0812DE9F0410025144621
:10D2C000D31D23F0070382B0AC4202AFADEB030DD8
:10D2D00002F1FF320E46D8BF2A4629460DF1090059
:10D2E0008DF8085001F061FCFFF7F8FE01F0A3F89B
:10D2F000431C0DF108080CD0FFF7F0FE2346324620
:10D300004146009501F0E6F8FFF7E8FE01F096F8D7
:10D310002846BD46BDE8F0812DE9F04F87B002AB4D
:10D3200001464FF4004210209C4630243125114222
:10D3300000F1FF3014BF1D701C7010F0FF004FEAA9
:10D34000520203F10103F2D10646074686468346A0
:10D35000034680468146024605461CF80510013505
:10D36000312908BF82F00102D4B2C246102D84EAEE
:10D37000030884EA0B034A46F3463146DBB222D166
:10D380008DF804306946002301228DF807908DF84E
:10D3900006A08DF805808DF803E08DF802708DF8F9
:10D3A00001608DF8004011F8014B0133E40748BFDC
:10D3B0001043DBB248BFC0B25200082B92B2F2D188
:10D3C00007B0BDE8F08FBE4626460F46D146C4E7FB
:10D3D000642000F097BC4FF6FF7303800023436086
:10D3E00040230372704730B50D46044685B001A84E
:10D3F000FFF7D0FD6B68204602932B7801A98DF8CA
:10D4000006306B788DF805302B7A2373FFF7D4FD47
:10D4100001300AD0217B2046FFF7ECFD20466968E9
:10D42000FFF7DAFD002005B030BDFF20FBE773B544
:10D430001E46044615468DF8071001220DF107011E
:10D44000FFF7DEFDFFF7C4FF324629462046FFF70F
:10D45000F5FDFFF7BDFF02B070BD00000000000049
:10D4600037B50323E32101AAFFF7E1FFBDF804402C
:10D470009DF8065064BAA4B22046FFF74DFF8542DE
:10D480001DD124F0030007EE900AFBEEC87A17EED8
:10D49000900AFEF761FF0DA3D3E90023FEF7B4FF66
:10D4A000FFF7AAFAFEF758FF0AA3D3E90023FEF715
:10D4B000F3FDFFF7A1FA00EE100A03B030BD9FEDB7
:10D4C000020AFAE7AFF3008000008047D7A3703D5F
:10D4D0000AF76540CDCCCCCCCC6C474037B50323A4
:10D4E000E52101AAFFF7A3FFBDF804409DF806500F
:10D4F00064BAA4B22046FFF70FFF854201BF24F0B3
:10D50000030307EE903AB9EE080AFBEEC87A0ABFA9
:10D510009FED037A9FED030AA7EE870A03B030BDA3
:10D520000000FA4200008047FE2307B501220DF1FA
:10D5300007018DF80730FFF763FD03B05DF804FBCA
:10D5400007B50190FFF744FFFFF742FFFFF740FFE9
:10D55000FFF73EFFFFF73CFF0198FFF7E5FFFFF7FE
:10D5600037FFFFF735FFFFF733FFFFF731FFFFF717
:10D570002FFF03B05DF804FB09B504480068044BB5
:10D5800003441B685B6C029309BD0000B8AD071033
:10D590003000000009B504480068044B03441B68D0
:10D5A0005B68029309BD0000B8AD071000000000E1
:10D5B00009B504480068044B03441B685B69029387
:10D5C00009BD0000B8AD07100000000009B504480F
:10D5D0000068044B03441B689B68029309BD00006C
:10D5E000B8AD07101400000009B504480068044BEA
:10D5F00003441B68DB68029309BD0000B8AD071047
:10D600001400000009B504480068044B03441B687B
:10D610001B69029309BD0000B8AD0710140000009B
:10D6200009B504480068044B03441B681B68029357
:10D6300009BD0000B8AD07101000000009B504488E
:10D640000068044B03441B68DB68029309BD0000BB
:10D65000B8AD07101000000009B504480068044B7D
:10D6600003441B689B69029309BD0000B8AD071015
:10D670001000000009B504480068044B03441B680F
:10D68000DB69029309BD0000B8AD0710100000006F
:10D6900009B504480068044B03441B681B6A0293E5
:10D6A00009BD0000B8AD07101000000009B504481E
:10D6B0000068044B03441B685B6A029309BD0000C9
:10D6C000B8AD07101000000009B504480068044B0D
:10D6D00003441B689B6A029309BD0000B8AD0710A4
:10D6E0001000000009B504480068044B03441B689F
:10D6F000DB6A029309BD0000B8AD071010000000FE
:10D7000009B504480068044B03441B681B6B029373
:10D7100009BD0000B8AD07101000000009B50448AD
:10D720000068044B03441B685B6B029309BD000057
:10D73000B8AD07101000000009B504480068044B9C
:10D7400003441B681B6C029309BD0000B8AD0710B1
:10D750001000000009B504480068044B03441B682E
:10D760001B6D029309BD0000B8AD0710100000004A
:10D7700009B504480068044B03441B685B690293C5
:10D7800009BD0000B8AD07104C00000009B5044801
:10D790000068044B03441B689B68029309BD0000AA
:10D7A000B8AD07105000000009B504480068044BEC
:10D7B00003441B68DB68029309BD0000B8AD071085
:10D7C0005000000009B504480068044B03441B687E
:10D7D000DB68029309BD0000B8AD07101800000017
:10D7E00009B504480068044B03441B681B69029395
:10D7F00009BD0000B8AD07101800000009B50448C5
:10D800000068044B03441B68DB69029309BD0000F8
:10D81000B8AD07101800000009B504480068044BB3
:10D8200003441B681B6A029309BD0000B8AD0710D2
:10D830001800000009B504480068044B03441B6845
:10D840005B6A029309BD0000B8AD07101800000024
:10D8500009B504480068044B03441B689B6A0293A3
:10D8600009BD0000B8AD07101800000009B5044854
:10D870000068044B03441B68DB6A029309BD000087
:10D88000B8AD07101800000009B504480068044B43
:10D8900003441B689B6B029309BD0000B8AD0710E1
:10D8A0001800000009B504480068044B03441B68D5
:10D8B0001B6C029309BD0000B8AD071018000000F2
:10D8C00009B504480068044B03441B685B6C029371
:10D8D00009BD0000B8AD07101800000009B50448E4
:10D8E0000068044B03441B68DB68029309BD000019
:10D8F000B8AD07102400000009B504480068044BC7
:10D9000003441B681B69029309BD0000B8AD0710F2
:10D910002400000009B504480068044B03441B6858
:10D920005B69029309BD0000B8AD07102400000038
:10D9300009B504480068044B03441B689B690293C3
:10D9400009BD0000B8AD07102400000009B5044867
:10D950000068044B03441B68DB69029309BD0000A7
:10D96000B8AD07102400000009B504480068044B56
:10D9700003441B681B6A029309BD0000B8AD071081
:10D980002400000009B504480068044B03441B68E8
:10D990009B6A029309BD0000B8AD07102400000087
:10D9A00009B504480068044B03441B681B6C0293D0
:10D9B00009BD0000B8AD07102400000009B50448F7
:10D9C0000068044B03441B681B68029309BD0000F8
:10D9D000B8AD07103400000009B504480068044BD6
:10D9E00003441B685B68029309BD0000B8AD0710D3
:10D9F0003400000009B504480068044B03441B6868
:10DA00001B69029309BD0000B8AD07103400000087
:10DA100009B504480068044B03441B685B69029322
:10DA200009BD0000B8AD07103400000009B5044876
:10DA30000068044B03441B689B69029309BD000006
:10DA4000B8AD07103400000009B504480068044B65
:10DA500003441B68DB69029309BD0000B8AD0710E1
:10DA60003400000009B504480068044B03441B68F7
:10DA70001B6A029309BD0000B8AD07103400000016
:10DA800009B504480068044B03441B685B680293B3
:10DA900009BD0000B8AD07100800000009B5044832
:10DAA0000068044B03441B685B69029309BD0000D6
:10DAB000B8AD07100800000009B504480068044B21
:10DAC00003441B68DB6A029309BD0000B8AD071070
:10DAD0000800000009B504480068044B03441B68B3
:10DAE000D3F88830029309BDB8AD071008000000D4
:10DAF00009B504480068044B03441B68D3F894300C
:10DB0000029309BDB8AD07100800000009B504482C
:10DB10000068044B03441B68DB6B029309BD0000E3
:10DB2000B8AD07102C00000009B504480068044B8C
:10DB300003441B685B6C029309BD0000B8AD07107D
:10DB40002C00000009B504480068044B03441B681E
:10DB50005B68029309BD0000B8AD07102800000003
:10DB600009B504480068044B03441B689B68029392
:10DB700009BD0000B8AD07102800000009B5044831
:10DB80000068044B03441B68DB68029309BD000076
:10DB9000B8AD07102800000009B504480068044B20
:10DBA00003441B681B69029309BD0000B8AD071050
:10DBB0002800000009B504480068044B03441B68B2
:10DBC0005B69029309BD0000B8AD07102800000092
:10DBD00009B504480068044B03441B689B69029321
:10DBE00009BD0000B8AD07102800000009B50448C1
:10DBF0000068044B03441B68DB69029309BD000005
:10DC0000B8AD07102800000009B504480068044BAF
:10DC100003441B681B6A029309BD0000B8AD0710DE
:10DC20002800000009B504480068044B03441B6841
:10DC30001B6B029309BD0000B8AD0710280000005F
:10DC400009B504480068044B03441B685B6B0293EE
:10DC500009BD0000B8AD07102800000009B5044850
:10DC60000068044B03441B681B6C029309BD000051
:10DC7000B8AD07102800000009B504480068044B3F
:10DC800003441B685B6C029309BD0000B8AD07102C
:10DC90002800000009B504480068044B03441B68D1
:10DCA0001B68029309BD0000B8AD07100400000016
:10DCB00009B504480068044B03441B685B68029381
:10DCC00009BD0000B8AD07100400000009B5044804
:10DCD0000068044B03441B681B6C029309BD0000E1
:10DCE000B8AD07100400000009B504480068044BF3
:10DCF00003441B685B6C029309BD0000B8AD0710BC
:10DD0000040000000021FFF7C9BE00000023024804
:10DD10000360FFF731BC00BF8CAE07101FB50C23AA
:10DD20000021ADF804300368ADF80D108DF8063011
:10DD3000037A8DF80F108DF8073043680293437A09
:10DD400001A88DF80C30FFF7EFFE05B05DF804FB7D
:10DD5000002240681146FFF757BF00224068114675
:10DD6000FFF76EBF00224068FFF75CBF00224068EB
:10DD700081F00101FFF73ABF002340681A461946B7
:10DD8000FFF726BF002340681A461946FFF712BF67
:10DD9000002240681146FFF7FFBE0022406811468E
:10DDA000FFF7DEBE002202214068FFF7E7BE002336
:10DDB00040681A46FFF7C6BE0322024B5A60024A69
:10DDC0001A60704790AE0710E4FD3F027047F8B547
:10DDD000064615460C468F18BC4206D033683046BE
:10DDE0009B6814F8011B9847F6E72846F8BD002207
:10DDF000007CFFF74DBC0021007CFFF757BC0021E1
:10DE0000007CFFF761BC0021007CFFF76BBC0021A8
:10DE1000007CFFF775BC10B504461421FEF763FEC5
:10DE2000204610BD38B5044615464FF47A730022DB
:10DE3000C4E90123094B0846217423602946FFF7F2
:10DE40007BFCBF3008D16B69DB0705D56868FFF73D
:10DE50002FFFE868FFF72CFF204638BD20FE3F0269
:10DE60000022007CFFF7DCBB0023007C1A46194629
:10DE7000FFF7E4BB7FB500221423CDE90122ADF802
:10DE800004300B78007C8DF808304B680393CB6826
:10DE900004930B7A01A90593FFF75CFC07B05DF8CA
:10DEA00004FB1FB5003B8DF800104FF0640118BF54
:10DEB00001230391694601928DF80830FFF7DAFFDC
:10DEC00005B05DF804FB0022007CFFF7C5BB002213
:10DED000007CFFF7CFBB704710B504461821FEF752
:10DEE00002FE204610BDF0B5037D0E46062B4FF016
:10DEF00000048DB000F1040712D000F1080515F8F8
:10DF0000011D0A22304600F05EF9AF42044419D0E8
:10DF1000002CF4D02E21304600F03CF90444EEE70A
:10DF20002F236A4639460A208DF80040FFF720FC6F
:10DF30006846FEF7B1FD3368024669463046DB6845
:10DF40009847044620460DB0F0BD000010B50446C9
:10DF5000044B1122002140F8043B00F026FE20462D
:10DF600010BD00BF48FE3F020346074A10B543F804
:10DF7000042B01F1100251F8044B914243F8044B79
:10DF8000F9D10A781A7010BD48FE3F0210B59DF80D
:10DF9000084044EA032343EA0242042342EA0161BF
:10DFA0004160037510BD000007B5064B0360CB78D8
:10DFB00000938B784A780978FFF7E8FF03B05DF8A3
:10DFC00004FB00BF48FE3F02014B024A1A60704743
:10DFD00098AE071054FE3F02002340681A46FFF730
:10DFE000B1BD002202214068FFF7C8BD0022406891
:10DFF0001146FFF7B5BD002240681146FFF7CCBDC2
:10E00000002340681A461946FFF7D4BD0023406834
:10E010001A461946FFF7DCBD00214068FFF71EBE17
:10E0200000214068FFF728BE0022406881F001010E
:10E03000FFF7DCBD00224068FFF7F4BD0022406816
:10E040001146FFF7FDBD002240681146FFF7DCBD19
:10E050002DE9F04395B014460D460746FFF776FFCD
:10E0600000211C220DA8009100F09FFD40232046B6
:10E070000C9300216B460CAAFFF796FB0446002880
:10E080004BD1024601216868FFF786FD02218046D8
:10E0900022466868FFF780FD21468146009E002EDB
:10E0A0003BD0002939D17368022B03D00A2B11D041
:10E0B000F669F4E7B8F1000FFAD0716906A80431E7
:10E0C0003C1D07ADFFF770FF0FCD0FC42B68414615
:10E0D0002370EDE7B9F1000FEAD0102201A87469AE
:10E0E00000F063FD062301AD8DF8143004F1080340
:10E0F00018342A4618685968083303C2A3421546E3
:10E10000F7D101A906A83C1D07ADFFF72DFF0FCDE4
:10E110000FC42B6849462370CAE70098FFF736FB07
:10E12000384615B0BDE8F083024B034A1A6000225E
:10E130005A6070479CAE071060FE3F02F8B5064675
:10E140000D4600248F18BD420CD0336830469B68C2
:10E1500015F8011B9847031E01DB1C44F3E7002C54
:10E1600008BF1C462046F8BD13B50446084659B101
:10E170000191FEF791FC0246204623680199DB6875
:10E1800002B0BDE81040184702B010BD08B5FFF757
:10E19000EBFF08BD03689B68184738B50D2105469D
:10E1A000FFF7F8FF0A2104462846FFF7F3FF204453
:10E1B00038BD38B50546FFF7D7FF04462846FFF7B8
:10E1C000ECFF204438BD0023012A98BF0A2230B555
:10E1D0008BB08DF8243009AC0D46B1FBF2F101FB98
:10E1E000125303F0FF03092B94BF30333733DBB2F4
:10E1F000AA4204F8013DEFD92146FFF7B5FF0BB065
:10E2000030BD00002DE9F74F55EC104B06460F4688
:10E2100010EE102A2B4610EE100A2946FEF78EFB50
:10E2200040B153493046FFF79FFF8246504603B046
:10E23000BDE8F08F25F000494FF0FF3220464946F7
:10E240004C4BFEF77BFB48B94FF0FF322046494666
:10E25000484BFEF755FB08B94749E3E74FF06042EA
:10E2600020462946454BFEF75FFB08B14449D9E7F4
:10E270004FF0604220462946424BFEF737FB00280C
:10E28000F4D10022002320462946FEF72FFBD0B10F
:10E290002D213046FFF77EFF05F1004382461D46E3
:10E2A0004FF0000B00204FF000083749DFF8E090F6
:10E2B0005FFA8BF39F4208D942464B46FEF7CEF9F0
:10E2C0000BF1010BF4E78246EAE722462B46FDF705
:10E2D000E5FE0D460446FEF76FFB8046FEF71AF892
:10E2E00002460B4620462946FDF7D6FE0A22044682
:10E2F0000D4630464146FFF766FF8244002F95D019
:10E3000030462249FFF730FF4FF00008DFF88090D9
:10E310008244002F8AD042464B4620462946FEF7CB
:10E3200073F804460D46FEF71FFBB0F1000B1CDA34
:10E330002D213046FFF72EFF0346CBF100010A22C4
:10E3400030460193FFF73FFF019B013F1844824491
:10E350005846FDF7EFFF02460B4620462946FDF7DB
:10E360009BFEFFB204460D46D3E759460023E6E77D
:10E3700094FE3F02FFFFEF7F98FE3F02FFFFEF4159
:10E380009CFE3F02FFFFEFC10000E03FA0FE3F0206
:10E390000000244038B5044610EE100ACDB2FDF757
:10E3A000DBFF41EC100B29462046BDE83840FFF763
:10E3B00029BF00000022014B9A607047A4AE0710ED
:10E3C0000021FFF77DBA0021FFF76CBA10B50446B3
:10E3D00008462170FFF712FA00232046636010BD43
:10E3E00013B504460078CDE90021FFF7ECFFDDE925
:10E3F0000021034648B920780090FFF737FA0098CB
:10E4000002B0BDE81040FFF7DBBF02B010BD13B58E
:10E41000044600780191FFF7D6FF019948B92078AA
:10E420000190FFF7CFF9019802B0BDE81040FFF767
:10E43000C7BF02B010BD0078FFF7C5BF0078FFF777
:10E44000BFBF000030B50024400818601868E5B26E
:10E45000884206D90134082C02D040081860F5E73C
:10E460000725024B5B5D137030BD00BFA2FE3F026B
:10E4700000232DE9F041044688B000780E46174687
:10E480000293FFF7A0FF054600BB0146142203A834
:10E4900094F8008000F089FB0B232A46404603A92C
:10E4A000ADF80C30FFF7C6F907FB06F1049802AB94
:10E4B0000DF107028DF80750FFF7C4FF20789DF893
:10E4C0000710FFF78DF92078FFF77AFF029808B060
:10E4D000BDE8F08130B587B00A9D0446009500780C
:10E4E000FFF7B6F93DB9207802A9FFF7CDF99DF8FD
:10E4F0001430DB07F7D407B030BD00000222002043
:10E50000044B1A60044B054AC3E900009A60FFF708
:10E51000B7BA00BFC0AE0710B4AE07100000FFFFCF
:10E52000024B1A68024B1A60704700BFBCAD07105F
:10E53000C4AE071070474174704708B5007CFFF700
:10E5400021FA20EAE07008BD08B5007CFFF7D4F995
:10E5500020EAE07008BD08B5007CFFF7E9F940EA61
:10E56000E07008BD08B5007CFFF7D4F940EAE07020
:10E5700008BD007CFFF7EAB937B5457C04462DB1EC
:10E58000207C03B0BDE83040FFF7A8B9007C0191C2
:10E59000FFF7F8F900280199F2DC284603B030BDF6
:10E5A00010B504461421FEF79EFA204610BD000067
:10E5B00010B54FF47A730446084611460022C4E9A8
:10E5C0000123044B2074236001236374FFF7E8F9EF
:10E5D000204610BDD0FE3F02007CFFF7C5B9417454
:10E5E00070477047704708B50021007CFFF71EFA9E
:10E5F00040EAE07008BD08B50121007CFFF716FA7B
:10E6000040EAE07008BD08B5007CFFF701FA20EA97
:10E61000E07008BD08B5007CFFF7ECF920EAE07077
:10E6200008BD13B50446007C0191FFF7F1F90028FD
:10E63000019901DC607C20B1207CFFF705FA20EA1B
:10E64000E07002B010BD007CFFF70CBA10B50446B4
:10E650001421FEF748FA204610BD000010B54FF413
:10E660007A73044608460021C4E90113044B207460
:10E670002360012311466374FFF7A0F9204610BD03
:10E6800000FF3F020022007CFFF7A6B910B5044648
:10E690001422002100F089FA204610BD10B588B080
:10E6A00003A8FFF7F3FF0C4CD4E88F1F11F0010112
:10E6B0000FD120460191FEF718FA019948B103AA3B
:10E6C0000648FFF7CBFF2046FEF714FA044800F097
:10E6D00059FA024808B010BDC8AE0710CCAE0710FA
:10E6E0008BF63F02002240681146FFF755BA002220
:10E6F00040681146FFF788BA002240681146FFF7CC
:10E700009FBA00224068FFF78DBA0022406881F06E
:10E710000101FFF76BBA002340681A461946FFF75C
:10E7200057BA002340681A461946FFF743BA002239
:10E7300040681146FFF714BA002202214068FFF733
:10E740001DBA002340681A46FFF7FCB90422024BA9
:10E750005A60024A1A607047E0AE071030FF3F026D
:10E76000014B1860704700BFC0AD071008B50F4BD4
:10E7700043B1FFF793FF03681B699847002801DD49
:10E7800000E000BF0A4B43B100F06AF903681B695F
:10E790009847002801DD00E000BF064B0BB100F0F8
:10E7A000A5F9054B0BB100F0D7F908BD000000003A
:10E7B00000000000000000000000000008B5FFF7A6
:10E7C000D5FFFEF7F5FE014B186008BDF0AE07104F
:10E7D0000548064A08B5121A054900F0D9F9054B53
:10E7E000054A1A6008BD00BF00B4071004B4071042
:10E7F000C4EF5F0800B407101E1C279A002307B55A
:10E800001A466FF077010093FFF772F903B05DF8D5
:10E8100004FB000007B543880A2B08D0502B0BD10E
:10E82000094B1B684BB103B05DF804EB1847FFF7C9
:10E83000E5FF03B05DF804FB00231A466FF0770193
:10E840000093FFF755F9F4E7ECAE0710002110B57F
:10E850001148FFF749FA114B1A68114B9A420CBF45
:10E86000012200220F4B1A7001D0FFF7B1FFFEF713
:10E8700091FE044600F0A2F90B4B13B1204600E0D4
:10E8800000BF00210848FFF741F9BDE81040002112
:10E890000648FFF71FB900BF09F83F0200B4071090
:10E8A0001E1C279AE8AE071000000000BDF83F02CA
:10E8B0001B2837B5044602D9002003B030BDA0F1B3
:10E8C0000F03022B0BD9012821D800F075F8002185
:10E8D000007CFEF723FF80F00100C0B2EDE7114D90
:10E8E000D5E88F1F11F001010BD128460191FEF7E9
:10E8F000FCF8019928B10C48FFF768FD2846FEF79F
:10E90000F9F8094B1878FEF787FF0028D4D1083CA6
:10E91000012C05D800F0A4F8007CFFF725F8DAE711
:10E920000120CAE77CAE071080AE07101B2838B55F
:10E9300004460D460AD8FF2908D0FFF7B9FF28B1D1
:10E9400029462046BDE83840FEF740BE38BD38B500
:10E9500004460D46FEF748FEFF2810D0062804D8CE
:10E960004D2323FA00F0C30709D42046FFF7A0FF88
:10E9700028B129462046BDE83840FEF743BE38BDE1
:10E980007047000038B50A4B04460360012309496B
:10E990004361202000F0F4F82025606005492846F6
:10E9A000A56000F0EDF8C4E90305204638BD00BFBE
:10E9B0001800010064FF3F0230B50E4D87B0D5E866
:10E9C0008F1F11F0010411D12846FEF78EF868B1AF
:10E9D0006846FFF7D7FF6A4621460748FFF722FA45
:10E9E0002846FEF787F8054800F0CCF8024807B043
:10E9F00030BD00BFF4AE0710F8AE071029FA3F0291
:10EA00007047000038B5142504462A46002100F05E
:10EA1000CCF825804025074928462581258200F02D
:10EA2000AFF804496060284600F0AAF8E06020468C
:10EA300038BD00BF64FF3F027047704710B5044601
:10EA4000FFF7E0FF204610BD10B50446FFF7DAFFE0
:10EA5000204610BD10B50446FFF7D4FF204610BD78
:10EA600030B50E4D87B0D5E88F1F11F0010411D1DC
:10EA70002846FEF73AF868B101A8FFF7DFFF214604
:10EA800001AA0748FFF794FD2846FEF733F805482A
:10EA900000F078F8024807B030BD00BF0CAF071097
:10EAA00018AF0710A9FA3F0210B50D4C86B0D4E894
:10EAB0008F3FDB0711D42046FEF717F868B101A895
:10EAC000FFF7C2FF012101AA0648FFF771FD2046AA
:10EAD000FEF710F8044800F055F8024806B010BDE3
:10EAE00010AF07102CAF0710E3FA3F0210B5FFF785
:10EAF000DBFF074B044653B1FFF76EFD38B12368C7
:10EB000020461B699847002801DD00E000BF10BDCA
:10EB10000000000010B50D4C86B0D4E88F3FDB0735
:10EB200011D42046FDF7E1FF68B101A8FFF792FF7D
:10EB3000022101AA0648FFF73BFD2046FDF7DAFF58
:10EB4000044800F01FF8024806B010BD14AF0710CB
:10EB500040AF0710E1FA3F0210B5FFF7DBFF074BAC
:10EB6000044653B1FFF738FD38B1236820461B69CE
:10EB70009847002801DD00E000BF10BD0000000044
:10EB8000FDF7AFBF002301461A46184600F044B80F
:10EB90000A44431E914200D1704710B511F8014B51
:10EBA000914203F8014FF9D110BD0244034693424C
:10EBB00000D1704703F8011BF9E7000038B5104B8E
:10EBC00004461D68AB6BB3B91820FFF763F8024623
:10EBD000A86320B90B4B42210B48FFF777F80B498C
:10EBE0000B4BC0E900130B4B002183600B23838187
:10EBF0000120C2E90401AB6B00221C615A6138BDDF
:10EC0000C0AD071065FF3F027CFF3F020E33CDAB66
:10EC100034126DE6ECDE05002DE9F843DFF8BC8028
:10EC200006461F460D46D8F80000914600F058F8F9
:10EC3000264B1C6834B9264C1C60264B13B11B684C
:10EC4000C4F8883063681F2B07DDD8F8000000F097
:10EC500049F84FF0FF30BDE8F8835EB3D4F8880080
:10EC600088B91D4B23B9D8F8000000F03AF8F0E756
:10EC70004FF48470FFF70EF80028F4D00023C0E9A9
:10EC80004033C4F8880063680122022E40F82390C4
:10EC900002FA03F200EB8301D0F8003143EA0203E9
:10ECA000C0F80031C1F8807002BFD0F804311343BE
:10ECB000C0F804316368D8F800005A1C023362605F
:10ECC00044F8235000F00EF80020C4E7E0AF07102E
:10ECD00054AF0710000000003DED3F0224AE0710C6
:10ECE000704770477047000051DB3F0279DB3F02FD
:10ECF0007DDB3F020000000043757272656E742078
:10ED000076616C7565203D200054656D7020696EDC
:10ED10002043656C63756973203D200052656C610A
:10ED2000746976652048756D6964697479203D2041
:10ED300000000000000000000000000057EE3F024D
:10ED40004DEE3F0243EE3F0239EE3F022DEE3F0211
:10ED500021EE3F02C1F03F02C9F03F0215EE3F0233
:10ED60000DEE3F0203EE3F02F9ED3F02F9F03F02E4
:10ED7000000000000000000075EE3F02BFEE3F0201
:10ED800097EE3F0277EE3F029FEE3F02A7EE3F0273
:10ED9000AFEE3F02B7EE3F020000000000000000AF
:10EDA0008FEF3F027FEF3F0281EF3F026170700003
:10EDB000000000000000000081F03F028BF03F02E5
:10EDC00095F03F029FF03F02A9F03F02B5F03F02ED
:10EDD000C1F03F02C9F03F02D1F03F02DDF03F0237
:10EDE000E5F03F02EFF03F02F9F03F026E616E0086
:10EDF000696E66006F7666002E00000810182028E5
:10EE0000303825592D256D2D25645425483A254D3A
:10EE10003A2553257A0061736374696D65000000BB
:10EE20000000000000000000DDF53F0249F63F024F
:10EE300021F63F02E5F13F02F1F53F020DF63F02F8
:10EE4000FFF53F021BF63F02DFF53F02E3F53F020D
:10EE500000000000000000008DF63F02F5F63F02C2
:10EE6000CBF63F02E5F13F02BDF63F028FF63F02CF
:10EE70009FF63F02EFF63F02AFF63F0287F63F02F2
:10EE80000000000000000000EBF73F02E1F73F0246
:10EE9000D7F73F028DF73F02CBF73F02BFF73F02A4
:10EEA000C1F03F02C9F03F02B3F73F02ABF73F02A8
:10EEB000A1F73F0297F73F02F9F03F0200524545A4
:10EEC0004E54206D616C6C6F632073756363656570
:10EED000646564002F746D702F6A656E6B696E7364
:10EEE0002D4743432D31302D706970656C696E6517
:10EEF0002D34385F32303230313132345F31363098
:10EF0000363138303633392F7372632F6E65776C34
:10EF100069622F6E65776C69622F6C6962632F730B
:10EF200074646C69622F72616E642E63000000006D
:10EF300051DD3F02B5ED3F0261EE3F0271F03F024D
:10EF4000D1F13F025DF43F02A5F53F02C9F53F0252
:04EF5000F5F73F0290
:10EF540000000002BEFE3F02C4AD07100000000026
:10EF6400000000000000000000000000000000009D
:10EF7400000000000000000000000000000000008D
:10EF8400000000000000000000000000000000007D
:10EF9400000000000000000000000000000000006D
:10EFA400000000000000000000000000000000005D
:10EFB400000000000000000000000000E4AF0710A3
:04EFC4000000000049
:10FFBE000200100000C05F0888C05F0830D13F0209
:10FFCE0001000A00FFFFFFFFFFFF00000102030414
:10FFDE0005060708090A0B0C0D0E0F10111213144B
:0EFFEE0015161718191A1B1C1D1E1F203E0089
:04FFFC0078563412ED
:04000005085FC018B8
:00000001FF
