:02000004085F93
:10E0000000E05F08FCFF5F0800000600200005013B
:08E010000401B414000000003B
:10E018000E480F4908B5884205D00E4A824202D000
:10E028000D4B121A98470D480D4A00210D4B121A34
:10E0380098470D480D49884205D00D4A824202D0C2
:10E04800054B121A9847014808BD00BF0CAE0710CF
:10E05800C4F65F087CAE07102D0D11107CAE0710BA
:10E06800E8AF0710A10E1110C0E93F0288E05F0871
:0CE07800FCFF3F0219E05F080000000000
:08E088007CE05F08C4FD3F02CB
:10E09000034613F8012B002AFBD1181A01387047E8
:10E0A00070B500F093FF0025054E064CA41BA40894
:10E0B000AC4200D170BD56F8043B98470135F7E7F4
:10E0C000D8FF3F02FCFF3F0200F013B808B500F094
:10E0D00021F8BDE8084000F031BF00F05DBB00F062
:10E0E00069BB0078B0FA80F04009704701230370E3
:10E0F000704708B50121132000F05AF800211220C2
:10E1000000F069F800F08AFEBDE808404FF41651AF
:10E1100000F078BE38B5132000F051F84FF4FA70D3
:10E1200000F07EF8122000F05CF8044600F076FE65
:10E13000164900F057FD00F071FE002C054623DA69
:10E140002D2100F053FD61420A22284600F067FDB0
:10E1500000F064FE0E4900F058FD4FF47A7000F0B4
:10E1600053FB00F05BFE0B4900F03CFD00F056FE57
:10E17000094B0A22197800F052FD00F04FFEBDE86D
:10E180003840034900F041BD2146DDE7D4FD3F02A0
:10E19000F0FD3F02E2FD3F027CAE0710024B1A7811
:10E1A000024B1A70704700BF7DAE07107CAE07109F
:10E1B000012908B501D100F079FF002008BD10B594
:10E1C000044600F09DFFB0FA80F12046BDE8104003
:10E1D000490900F07CBF08B509B900F067FF0020CD
:10E1E00008BD00F08DBF000009B504480068044B6D
:10E1F00003441B685B6C029309BD00000CAE071062
:10E200003000000009B504480068044B03441B6853
:10E210005B68029309BD00000CAE0710000000000F
:10E2200009B504480068044B03441B68DB6802938B
:10E2300009BD00000CAE07100000000009B504483D
:10E240000068044B03441B685B69029309BD00002E
:10E250000CAE07100000000009B504480068044B2C
:10E2600003441B689B68029309BD00000CAE0710B5
:10E270001400000009B504480068044B03441B68FF
:10E28000DB68029309BD00000CAE0710140000000B
:10E2900009B504480068044B03441B681B690293DA
:10E2A00009BD00000CAE07101400000009B50448B9
:10E2B0000068044B03441B685B69029309BD0000BE
:10E2C0000CAE07101400000009B504480068044BA8
:10E2D00003441B681B6A029309BD00000CAE0710C3
:10E2E0001000000009B504480068044B03441B6893
:10E2F0005B6A029309BD00000CAE0710100000001D
:10E3000009B504480068044B03441B689B6A0293E8
:10E3100009BD00000CAE07101000000009B504484C
:10E320000068044B03441B68DB6A029309BD0000CC
:10E330000CAE07101000000009B504480068044B3B
:10E3400003441B681B6B029309BD00000CAE071051
:10E350001000000009B504480068044B03441B6822
:10E360005B6B029309BD00000CAE071010000000AB
:10E3700009B504480068044B03441B681B6C0293F6
:10E3800009BD00000CAE07101000000009B50448DC
:10E390000068044B03441B685B69029309BD0000DD
:10E3A0000CAE07104C00000009B504480068044B8F
:10E3B00003441B689B68029309BD00000CAE071064
:10E3C0005000000009B504480068044B03441B6872
:10E3D000DB68029309BD00000CAE0710500000007E
:10E3E00009B504480068044B03441B68DB690293C9
:10E3F00009BD00000CAE07101800000009B5044864
:10E400000068044B03441B681B6A029309BD0000AB
:10E410000CAE07101800000009B504480068044B52
:10E4200003441B68DB68029309BD00000CAE0710B3
:10E430002400000009B504480068044B03441B682D
:10E440001B69029309BD00000CAE071024000000F8
:10E4500009B504480068044B03441B685B690293D8
:10E4600009BD00000CAE07102400000009B50448E7
:10E470000068044B03441B689B69029309BD0000BC
:10E480000CAE07102400000009B504480068044BD6
:10E4900003441B68DB69029309BD00000CAE071042
:10E4A0002400000009B504480068044B03441B68BD
:10E4B0001B6A029309BD00000CAE07102400000087
:10E4C00009B504480068044B03441B689B6A029327
:10E4D00009BD00000CAE07102400000009B5044877
:10E4E0000068044B03441B681B6C029309BD0000C9
:10E4F0000CAE07102400000009B504480068044B66
:10E5000003441B681B68029309BD00000CAE071092
:10E510003400000009B504480068044B03441B683C
:10E520005B68029309BD00000CAE071034000000C8
:10E5300009B504480068044B03441B681B69029337
:10E5400009BD00000CAE07103400000009B50448F6
:10E550000068044B03441B685B69029309BD00001B
:10E560000CAE07103400000009B504480068044BE5
:10E5700003441B689B69029309BD00000CAE0710A1
:10E580003400000009B504480068044B03441B68CC
:10E59000DB69029309BD00000CAE071034000000D7
:10E5A00009B504480068044B03441B681B6A0293C6
:10E5B00009BD00000CAE07103400000009B5044886
:10E5C0000068044B03441B685B68029309BD0000AC
:10E5D0000CAE07100800000009B504480068044BA1
:10E5E00003441B685B69029309BD00000CAE071071
:10E5F0000800000009B504480068044B03441B6888
:10E60000D3F88830029309BD0CAE07100800000053
:10E6100009B504480068044B03441B68D3F89430E0
:10E62000029309BD0CAE07100800000009B50448AC
:10E630000068044B03441B68DB6B029309BD0000B8
:10E640000CAE07102C00000009B504480068044B0C
:10E6500003441B685B68029309BD00000CAE071001
:10E660002800000009B504480068044B03441B68F7
:10E670009B68029309BD00000CAE07102800000043
:10E6800009B504480068044B03441B68DB68029327
:10E6900009BD00000CAE07102800000009B50448B1
:10E6A0000068044B03441B681B69029309BD00000A
:10E6B0000CAE07102800000009B504480068044BA0
:10E6C00003441B685B69029309BD00000CAE071090
:10E6D0002800000009B504480068044B03441B6887
:10E6E0009B69029309BD00000CAE071028000000D2
:10E6F00009B504480068044B03441B68DB690293B6
:10E7000009BD00000CAE07102800000009B5044840
:10E710000068044B03441B681B6A029309BD000098
:10E720000CAE07102800000009B504480068044B2F
:10E7300003441B681B6B029309BD00000CAE07105D
:10E740002800000009B504480068044B03441B6816
:10E750005B6B029309BD00000CAE0710280000009F
:10E7600009B504480068044B03441B681B6C029302
:10E7700009BD00000CAE07102800000009B50448D0
:10E780000068044B03441B685B6C029309BD0000E6
:10E790000CAE07102800000009B504480068044BBF
:10E7A00003441B681B68029309BD00000CAE0710F0
:10E7B0000400000009B504480068044B03441B68CA
:10E7C0005B68029309BD00000CAE07100400000056
:10E7D00009B504480068044B03441B681B6C029392
:10E7E00009BD00000CAE07100400000009B5044884
:10E7F0000068044B03441B685B6C029309BD000076
:10E800000CAE0710040000000021FFF7E5BE000079
:10E81000002302480360FFF7E7BC00BF80AE07108B
:10E82000002240681146FFF771BF00224068114680
:10E83000FFF788BF00224068FFF776BF00224068DC
:10E8400081F00101FFF754BF002340681A461946C2
:10E85000FFF740BF002340681A461946FFF72CBF58
:10E86000002240681146FFF719BF00224068114698
:10E87000FFF7F8BE002202214068FFF701BF002326
:10E8800040681A46FFF7E0BE0322024B5A60024A74
:10E890001A60704784AE0710FCFD3F027047F8B560
:10E8A000064615460C468F18BC4206D033683046E3
:10E8B0009B6814F8011B9847F6E72846F8BD00222C
:10E8C000007CFFF701BD0021007CFFF70BBD00219C
:10E8D000007CFFF715BD0021007CFFF71FBD002164
:10E8E000007CFFF729BD10B504461421FFF7F7FBA4
:10E8F000204610BD38B5044615464FF47A73002201
:10E90000C4E90123094B0846217423602946FFF717
:10E910002FFDBF3008D16B69DB0705D56868FFF7AD
:10E9200049FFE868FFF746FF204638BD38FE3F0242
:10E93000704710B504461821FFF7D1FB204610BDE3
:10E94000F0B5037D0E46062B4FF000048DB000F1AC
:10E95000040712D000F1080515F8011D0A223046FF
:10E9600000F05DF9AF42044419D0002CF4D02E2100
:10E97000304600F03BF90444EEE72F236A4639465F
:10E980000A208DF80040FFF701FD6846FFF780FB85
:10E990003368024669463046DB689847044620469D
:10E9A0000DB0F0BD10B50446044B1122002140F813
:10E9B000043B00F0CCFC204610BD00BF60FE3F02CF
:10E9C0000346074A10B543F8042B01F1100251F831
:10E9D000044B914243F8044BF9D10A781A7010BDE8
:10E9E00060FE3F0210B59DF8084044EA032343EA65
:10E9F0000242042342EA01614160037510BD000038
:10EA000007B5064B0360CB7800938B784A7809787A
:10EA1000FFF7E8FF03B05DF804FB00BF60FE3F02B4
:10EA2000014B024A1A6070478CAE07106CFE3F0221
:10EA3000002340681A46FFF707BE00220221406803
:10EA4000FFF71EBE002240681146FFF70BBE0022F2
:10EA500040681146FFF722BE002340681A46194657
:10EA6000FFF72ABE002340681A461946FFF732BE58
:10EA700000214068FFF774BE00214068FFF77EBEAA
:10EA80000022406881F00101FFF732BE0022406899
:10EA9000FFF74ABE002240681146FFF753BE00222E
:10EAA00040681146FFF732BE2DE9F04395B0144699
:10EAB0000D460746FFF776FF00211C220DA80091A6
:10EAC00000F045FC402320460C9300216B460CAA25
:10EAD000FFF778FC044600284BD102460121686804
:10EAE000FFF7DCFD0221804622466868FFF7D6FD6D
:10EAF00021468146009E002E3BD0002939D1736803
:10EB0000022B03D00A2B11D0F669F4E7B8F1000FFD
:10EB1000FAD0716906A804313C1D07ADFFF770FFFC
:10EB20000FCD0FC42B6841462370EDE7B9F1000FFC
:10EB3000EAD0102201A8746900F009FC062301AD97
:10EB40008DF8143004F1080318342A4618685968FF
:10EB5000083303C2A3421546F7D101A906A83C1DFC
:10EB600007ADFFF72DFF0FCD0FC42B68494623706B
:10EB7000CAE70098FFF718FC384615B0BDE8F083E7
:10EB8000024B034A1A6000225A60704790AE071089
:10EB900078FE3F02F8B506460D4600248F18BD42A8
:10EBA0000CD0336830469B6815F8011B9847031E4C
:10EBB00001DB1C44F3E7002C08BF1C462046F8BDCF
:10EBC00013B50446084659B10191FFF761FA0246B0
:10EBD000204623680199DB6802B0BDE81040184761
:10EBE00002B010BD08B5FFF7EBFF08BD03689B68D6
:10EBF000184738B50D210546FFF7F8FF0A210446EE
:10EC00002846FFF7F3FF204438BD38B50546FFF727
:10EC1000D7FF04462846FFF7ECFF204438BD002309
:10EC2000012A98BF0A2230B58BB08DF8243009AC88
:10EC30000D46B1FBF2F101FB125303F0FF03092B68
:10EC400094BF30333733DBB2AA4204F8013DEFD929
:10EC50002146FFF7B5FF0BB030BD00000022014B8D
:10EC60009A60704798AE071010B5044608462170A8
:10EC7000FFF7B6FB00232046636010BD0222002090
:10EC8000044B1A60044B054AC3E900009A60FFF781
:10EC900095BC00BFB4AE0710A8AE07100000FFFF80
:10ECA000024B1A68024B1A60704700BF10AE071083
:10ECB000B8AE071070474174704708B5007CFFF785
:10ECC000FFFB20EAE07008BD08B5007CFFF7B2FB4F
:10ECD00020EAE07008BD08B5007CFFF7C7FB40EAFA
:10ECE000E07008BD08B5007CFFF7B2FB40EAE070B9
:10ECF00008BD007CFFF7C8BB37B5457C04462DB185
:10ED0000207C03B0BDE83040FFF786BB007C01915A
:10ED1000FFF7D6FB00280199F2DC284603B030BD8E
:10ED200010B504461421FFF7DAF9204610BD0000A3
:10ED300010B54FF47A730446084611460022C4E920
:10ED40000123044B2074236001236374FFF7C6FB87
:10ED5000204610BDD0FE3F02007CFFF7A3BB4174EC
:10ED600070477047704708B50021007CFFF7FCFB37
:10ED700040EAE07008BD08B50121007CFFF7F4FB14
:10ED800040EAE07008BD08B5007CFFF7DFFB20EA31
:10ED9000E07008BD08B5007CFFF7CAFB20EAE07010
:10EDA00008BD13B50446007C0191FFF7CFFB002896
:10EDB000019901DC607C20B1207CFFF7E3FB20EAB5
:10EDC000E07002B010BD007CFFF7EABB10B504464E
:10EDD0001421FFF784F9204610BD000010B54FF450
:10EDE0007A73044608460021C4E90113044B2074D9
:10EDF0002360012311466374FFF77EFB204610BD9C
:10EE000000FF3F020022007CFFF784BB10B50446E0
:10EE10001422002100F09BFA204610BD10B588B0E6
:10EE200003A8FFF7F3FF0C4CD4E88F1F11F001018A
:10EE30000FD120460191FFF754F9019948B103AA77
:10EE40000648FFF7CBFF2046FFF750F9044800F0D3
:10EE50006BFA024808B010BDBCAE0710C0AE071078
:10EE60009BF63F02002240681146FFF717BC0022C4
:10EE700040681146FFF74ABC002240681146FFF780
:10EE800061BC00224068FFF74FBC0022406881F05F
:10EE90000101FFF72DBC002340681A461946FFF711
:10EEA00019BC002340681A461946FFF705BC00222A
:10EEB00040681146FFF7D6BB002202214068FFF7E9
:10EEC000DFBB002340681A46FFF7BEBB0422024B9B
:10EED0005A60024A1A607047D4AE071030FF3F02F2
:10EEE000014B1860704700BF14AE071008B50F4BF8
:10EEF00043B1FFF793FF03681B699847002801DDC2
:10EF000000E000BF0A4B43B100F07CF903681B69C5
:10EF10009847002801DD00E000BF064B0BB100F070
:10EF2000B7F9054B0BB100F0E9F908BD000000008E
:10EF300000000000000000000000000008B5FFF71E
:10EF4000D5FFFFF77BF9014B186008BDF0AE071045
:10EF50000548064A08B5121A054900F0EBF9054BB9
:10EF6000054A1A6008BD00BF00B4071004B40710BA
:10EF700034F75F0800B407101E1C279A002307B55A
:10EF80001A466FF077010093FFF742FB03B05DF87C
:10EF900004FB000007B543880A2B08D0502B0BD187
:10EFA000094B1B684BB103B05DF804EB1847FFF742
:10EFB000E5FF03B05DF804FB00231A466FF077010C
:10EFC0000093FFF725FBF4E7E0AE0710002110B532
:10EFD0001148FFF70BFC114B1A68114B9A420CBFFA
:10EFE000012200220F4B1A7001D0FFF7B1FFFFF78B
:10EFF00009F9044600F0B4F90B4B13B1204600E0C8
:10F0000000BF00210848FFF711FBBDE810400021B8
:10F010000648FFF7EFBA00BF19F83F0200B4071027
:10F020001E1C279ADCAE071000000000CDF83F023E
:10F030001B2837B5044602D9002003B030BDA0F12B
:10F040000F03022B0BD9012821D800F087F80021EB
:10F05000007CFFF77FF980F00100C0B2EDE7114DB1
:10F06000D5E88F1F11F001010BD128460191FFF760
:10F0700038F8019928B10C48FFF7F6FD2846FFF74C
:10F0800035F8094B1878FFF7B9F90028D4D1083CB6
:10F09000012C05D800F0B6F8007CFFF703FADAE798
:10F0A0000120CAE7E4AE0710E8AE07101B2838B508
:10F0B00004460D460AD8FF2908D0FFF7B9FF28B14A
:10F0C00029462046BDE83840FFF7C6B838BD38B5F8
:10F0D00004460D46FFF7CEF8FF2810D0062804D8C6
:10F0E0004D2323FA00F0C30709D42046FFF7A0FF01
:10F0F00028B129462046BDE83840FFF7C9B838BDD9
:10F1000010B50446FFF7B6F8031FDBB2012B08D990
:10F110002046FFF78DFF20B12046BDE81040FFF7E5
:10F12000C5B8002010BD704738B50A4B04460360CF
:10F13000012309494361202000F0F4F82025606094
:10F1400005492846A56000F0EDF8C4E9030520460E
:10F1500038BD00BF1800010064FF3F0230B50E4DFE
:10F1600087B0D5E88F1F11F0010411D12846FEF7B2
:10F17000B8FF68B16846FFF7D7FF6A4621460748DF
:10F18000FFF7B8FB2846FEF7B1FF054800F0CCF8C2
:10F19000024807B030BD00BFF4AE0710F8AE07104C
:10F1A0005FFA3F027047000038B5142504462A462E
:10F1B000002100F0CCF8258040250749284625810C
:10F1C000258200F0AFF804496060284600F0AAF8F4
:10F1D000E060204638BD00BF64FF3F0270477047C3
:10F1E00010B50446FFF7E0FF204610BD10B50446F9
:10F1F000FFF7DAFF204610BD10B50446FFF7D4FF35
:10F20000204610BD30B50E4D87B0D5E88F1F11F0E8
:10F21000010411D12846FEF764FF68B101A8FFF789
:10F22000DFFF214601AA0748FFF782FD2846FEF7C7
:10F230005DFF054800F078F8024807B030BD00BF18
:10F240000CAF071018AF0710DDFA3F0210B50D4CD8
:10F2500086B0D4E88F3FDB0711D42046FEF741FF8C
:10F2600068B101A8FFF7C2FF012101AA0648FFF714
:10F270005FFD2046FEF73AFF044800F055F80248CB
:10F2800006B010BD10AF07102CAF071017FB3F02E0
:10F2900010B5FFF7DBFF074B044653B1FFF75CFDEA
:10F2A00038B1236820461B699847002801DD00E03B
:10F2B00000BF10BD0000000010B50D4C86B0D4E8B2
:10F2C0008F3FDB0711D42046FEF70BFF68B101A882
:10F2D000FFF792FF022101AA0648FFF729FD204609
:10F2E000FEF704FF044800F01FF8024806B010BD06
:10F2F00014AF071040AF071015FB3F0210B5FFF722
:10F30000DBFF074B044653B1FFF726FD38B12368F6
:10F3100020461B699847002801DD00E000BF10BDB2
:10F3200000000000FEF7D9BE002301461A46184629
:10F3300000F044B80A44431E914200D1704710B512
:10F3400011F8014B914203F8014FF9D110BD02446D
:10F350000346934200D1704703F8011BF9E7000010
:10F3600038B5104B04461D68AB6BB3B91820FFF7D6
:10F3700013FA0246A86320B90B4B42210B48FFF752
:10F3800027FA0B490B4BC0E900130B4B002183609C
:10F390000B2383810120C2E90401AB6B00221C61B5
:10F3A0005A6138BD14AE071065FF3F027CFF3F0273
:10F3B0000E33CDAB34126DE6ECDE05002DE9F843DB
:10F3C000DFF8BC8006461F460D46D8F8000091467F
:10F3D00000F058F8264B1C6834B9264C1C60264BAC
:10F3E00013B11B68C4F8883063681F2B07DDD8F899
:10F3F000000000F049F84FF0FF30BDE8F8835EB33D
:10F40000D4F8880088B91D4B23B9D8F8000000F063
:10F410003AF8F0E74FF48470FFF7BEF90028F4D013
:10F420000023C0E94033C4F8880063680122022E3B
:10F4300040F8239002FA03F200EB8301D0F8003188
:10F4400043EA0203C0F80031C1F8807002BFD0F86F
:10F4500004311343C0F804316368D8F800005A1C23
:10F460000233626044F8235000F00EF80020C4E735
:10F47000E0AF071054AF071000000000D1F03F02CA
:10F4800078AE07107047704770470000D9E93F0217
:10F4900001EA3F0205EA3F0200000000496E707574
:10F4A000742056616C75653A20006275732073652F
:10F4B0006C65637465643A20000000000000000081
:10F4C00000000000B7F13F02ADF13F02A3F13F029F
:10F4D00099F13F028DF13F0281F13F02A9F33F0212
:10F4E000B1F33F0275F13F026DF13F0263F13F025C
:10F4F00059F13F02E1F33F0200000000000000006C
:10F50000D5F13F021FF23F02F7F13F02D7F13F0270
:10F51000FFF13F0207F23F020FF23F0217F23F02F4
:10F52000000000000000000079F23F0269F23F0293
:10F530006BF23F02617070000000000000000000EC
:10F5400069F33F0273F33F027DF33F0287F33F020B
:10F5500091F33F029DF33F02A9F33F02B1F33F0253
:10F56000B9F33F02C5F33F02CDF33F02D7F33F02A9
:10F57000E1F33F0225592D256D2D25645425483A88
:10F58000254D3A2553257A0061736374696D6500D2
:10F590000000000000000000EDF53F0259F63F02B8
:10F5A00031F63F02CDF43F0201F63F021DF63F0265
:10F5B0000FF63F022BF63F02EFF53F02F3F53F0255
:10F5C00000000000000000009DF63F0205F73F022A
:10F5D000DBF63F02CDF43F02CDF63F029FF63F023D
:10F5E000AFF63F02FFF63F02BFF63F0297F63F023B
:10F5F0000000000000000000FBF73F02F1F73F02AF
:10F60000E7F73F029DF73F02DBF73F02CFF73F02EC
:10F61000A9F33F02B1F33F02C3F73F02BBF73F023A
:10F62000B1F73F02A7F73F02E1F33F020052454521
:10F630004E54206D616C6C6F6320737563636565F8
:10F64000646564002F746D702F6A656E6B696E73EC
:10F650002D4743432D31302D706970656C696E659F
:10F660002D34385F32303230313132345F31363020
:10F67000363138303633392F7372632F6E65776CBD
:10F6800069622F6E65776C69622F6C6962632F7394
:10F6900074646C69622F72616E642E6300000000F6
:10F6A000D5EA3F0249F13F02C1F13F0259F33F025F
:10F6B000B9F43F0295F53F02B5F53F02D9F53F0297
:04F6C00005F83F0208
:10F6C40000000002C0FE3F0218AE07100000000058
:10F6D4000000000000000000000000000000000026
:10F6E4000000000000000000000000000000000016
:10F6F4000000000000000000000000000000000006
:10F7040000000000000000000000000000000000F5
:10F7140000000000000000000000000000000000E5
:10F72400000000000000000000000000E4AF07102B
:04F7340000000000D1
:10FFBE000200100000E05F0888E05F08C0E93F0221
:10FFCE0001000A00FFFFFFFFFFFF00000102030414
:10FFDE0005060708090A0B0C0D0E0F10111213144B
:0EFFEE0015161718191A1B1C1D1E1F203E0089
:04FFFC0078563412ED
:04000005085FE01898
:00000001FF
