:02000004085F93
:10C0000000C05F08FCFF5F0800000600200005017B
:08C010000401B414000000005B
:10C018000E480F4908B5884205D00E4A824202D020
:10C028000D4B121A98470D480D4A00210D4B121A54
:10C0380098470D480D49884205D00D4A824202D0E2
:10C04800054B121A9847014808BD00BFC8AD071034
:10C058001CF65F0840AE07102D0D111040AE0710FA
:10C06800E8AF0710A10E111068CA3F0288C05F0828
:0CC07800FCFF3F0219C05F080000000040
:08C088007CC05F08CCFD3F0203
:10C0900081F0004102E000BF83F0004330B54FEA79
:10C0A00041044FEA430594EA050F08BF90EA020FE6
:10C0B0001FBF54EA000C55EA020C7FEA645C7FEA79
:10C0C000655C00F0E2804FEA5454D4EB5555B8BF9C
:10C0D0006D420CDD2C4480EA020281EA030382EA0D
:10C0E000000083EA010180EA020281EA0303362D9F
:10C0F00088BF30BD11F0004F4FEA01314FF4801C72
:10C100004CEA113102D0404261EB410113F0004F83
:10C110004FEA03334CEA133302D0524263EB43033A
:10C1200094EA050F00F0A780A4F10104D5F1200ED8
:10C130000DDB02FA0EFC22FA05F2801841F1000133
:10C1400003FA0EF2801843FA05F359410EE0A5F107
:10C1500020050EF1200E012A03FA0EFC28BF4CF038
:10C16000020C43FA05F3C01851EBE37101F00045EE
:10C1700007D54FF0000EDCF1000C7EEB00006EEBFB
:10C180000101B1F5801F1BD3B1F5001F0CD3490885
:10C190005FEA30004FEA3C0C04F101044FEA4452DC
:10C1A00012F5800F80F09A80BCF1004F08BF5FEA63
:10C1B000500C50F1000041EB045141EA050130BD43
:10C1C0005FEA4C0C404141EB0101013C28BFB1F555
:10C1D000801FE9D291F0000F04BF01460020B1FAA0
:10C1E00081F308BF2033A3F10B03B3F120020CDA73
:10C1F0000C3208DD02F1140CC2F10C0201FA0CF051
:10C2000021FA02F10CE002F11402D8BFC2F1200CB5
:10C2100001FA02F120FA0CFCDCBF41EA0C0190406B
:10C22000E41AA2BF01EB0451294330BD6FEA0404B4
:10C230001F3C1CDA0C340EDC04F11404C4F120029F
:10C2400020FA04F001FA02F340EA030021FA04F3B1
:10C2500045EA030130BDC4F10C04C4F1200220FA08
:10C2600002F001FA04F340EA0300294630BD21FA46
:10C2700004F0294630BD94F0000F83F4801306BF0C
:10C2800081F480110134013D4EE77FEA645C18BF00
:10C290007FEA655C29D094EA050F08BF90EA020F97
:10C2A00005D054EA000C04BF1946104630BD91EA8F
:10C2B000030F1EBF0021002030BD5FEA545C05D192
:10C2C0004000494128BF41F0004130BD14F58004D1
:10C2D0003CBF01F5801130BD01F0004545F0FE4145
:10C2E00041F470014FF0000030BD7FEA645C1ABF7A
:10C2F000194610467FEA655C1CBF0B46024650EAB1
:10C30000013406BF52EA033591EA030F41F40021DC
:10C3100030BD00BF90F0000F04BF0021704730B562
:10C320004FF4806404F132044FF000054FF0000137
:10C3300050E700BF90F0000F04BF0021704730B5F8
:10C340004FF4806404F1320410F0004548BF4042CD
:10C350004FF000013EE700BF42004FEAE2014FEA22
:10C3600031014FEA02701FBF12F07F4393F07F4FFD
:10C3700081F06051704732F07F4208BF704793F000
:10C380007F4F04BF41F40021704730B54FF4607413
:10C3900001F0004521F000411CE700BF50EA010216
:10C3A00008BF704730B54FF000050AE050EA0102BF
:10C3B00008BF704730B511F0004502D5404261EB2F
:10C3C00041014FF4806404F132045FEA915C3FF470
:10C3D000D8AE4FF003025FEADC0C18BF03325FEA0D
:10C3E000DC0C18BF033202EBDC02C2F1200300FABE
:10C3F00003FC20FA02F001FA03FE40EA0E0021FAE3
:10C4000002F11444BDE600BF70B54FF0FF0C4CF4D0
:10C41000E06C1CEA11541DBF1CEA135594EA0C0F82
:10C4200095EA0C0F00F0DEF82C4481EA030621EABD
:10C430004C5123EA4C5350EA013518BF52EA0335F8
:10C4400041F4801143F4801338D0A0FB02CE4FF0AA
:10C450000005E1FB02E506F00042E0FB03E54FF0DA
:10C460000006E1FB03569CF0000F18BF4EF0010ED2
:10C47000A4F1FF04B6F5007F64F5407404D25FEACE
:10C480004E0E6D4146EB060642EAC62141EA555181
:10C490004FEAC52040EA5E504FEACE2EB4F1FD0CC3
:10C4A00088BFBCF5E06F1ED8BEF1004F08BF5FEA41
:10C4B000500E50F1000041EB045170BD06F00046F3
:10C4C00046EA010140EA020081EA0301B4EB5C04A0
:10C4D000C2BFD4EB0C0541EA045170BD41F4801198
:10C4E0004FF0000E013C00F3AB8014F1360FDEBFBD
:10C4F000002001F0004170BDC4F10004203C35DA99
:10C500000C341BDC04F11404C4F1200500FA05F31B
:10C5100020FA04F001FA05F240EA020001F00042BC
:10C5200021F0004110EBD37021FA04F642EB060132
:10C530005EEA430E08BF20EAD37070BDC4F10C045C
:10C54000C4F1200500FA04F320FA05F001FA04F220
:10C5500040EA020001F0004110EBD37041F100010C
:10C560005EEA430E08BF20EAD37070BDC4F1200517
:10C5700000FA05F24EEA020E20FA04F301FA05F27F
:10C5800043EA020321FA04F001F0004121FA04F227
:10C5900020EA020000EBD3705EEA430E08BF20EAF7
:10C5A000D37070BD94F0000F0FD101F00046400031
:10C5B00041EB010111F4801F08BF013CF7D041EAB3
:10C5C000060195F0000F18BF704703F000465200B7
:10C5D00043EB030313F4801F08BF013DF7D043EA88
:10C5E0000603704794EA0C0F0CEA135518BF95EA3E
:10C5F0000C0F0CD050EA410618BF52EA4306D1D1C5
:10C6000081EA030101F000414FF0000070BD50EAE3
:10C61000410606BF1046194652EA430619D094EA6D
:10C620000C0F02D150EA013613D195EA0C0F05D157
:10C6300052EA03361CBF104619460AD181EA0301AB
:10C6400001F0004141F0FE4141F470014FF0000063
:10C6500070BD41F0FE4141F4780170BD70B54FF0FE
:10C66000FF0C4CF4E06C1CEA11541DBF1CEA13557E
:10C6700094EA0C0F95EA0C0F00F0A7F8A4EB050460
:10C6800081EA030E52EA03354FEA013100F0888057
:10C690004FEA03334FF0805545EA131343EA126320
:10C6A0004FEA022245EA111545EA10654FEA0026D5
:10C6B0000EF000419D4208BF964244F1FD0404F58E
:10C6C000407402D25B084FEA3202B61A65EB0305EA
:10C6D0005B084FEA32024FF480104FF4002CB6EBA7
:10C6E000020E75EB030E22BFB61A754640EA0C0027
:10C6F0005B084FEA3202B6EB020E75EB030E22BF67
:10C70000B61A754640EA5C005B084FEA3202B6EBA7
:10C71000020E75EB030E22BFB61A754640EA9C0066
:10C720005B084FEA3202B6EB020E75EB030E22BF36
:10C73000B61A754640EADC0055EA060E18D04FEAF4
:10C74000051545EA16754FEA06164FEAC30343EA94
:10C7500052734FEAC2025FEA1C1CC0D111F4801F61
:10C760000BD141EA00014FF000004FF0004CB6E75A
:10C7700011F4801F04BF01430020B4F1FD0C88BFF9
:10C78000BCF5E06F3FF6AFAEB5EB030C04BFB6EB04
:10C79000020C5FEA500C50F1000041EB045170BDF7
:10C7A0000EF0004E4EEA113114EB5C04C2BFD4EB24
:10C7B0000C0541EA045170BD41F480114FF0000EA8
:10C7C000013C90E645EA060E8DE60CEA135594EA24
:10C7D0000C0F08BF95EA0C0F3FF43BAF94EA0C0F27
:10C7E0000AD150EA01347FF434AF95EA0C0F7FF49C
:10C7F00025AF104619462CE795EA0C0F06D152EAF0
:10C8000003353FF4FDAE1046194622E750EA4106D3
:10C8100018BF52EA43067FF4C5AE50EA41047FF4E4
:10C820000DAF52EA43057FF4EBAE12E74FF0FF3C49
:10C8300006E000BF4FF0010C02E000BF4FF0010C1A
:10C840004DF804CD4FEA410C7FEA6C5C4FEA430C93
:10C8500018BF7FEA6C5C1BD001B050EA410C0CBFE2
:10C8600052EA430C91EA030F02BF90EA020F002044
:10C87000704710F1000F91EA030F58BF994208BFAB
:10C8800090422CBFD8176FEAE37040F00100704768
:10C890004FEA410C7FEA6C5C02D150EA013C07D1BF
:10C8A0004FEA430C7FEA6C5CD6D152EA033CD3D00A
:10C8B0005DF8040B704700BF8446104662468C4604
:10C8C0001946634600E000BF01B5FFF7B7FF002837
:10C8D00048BF10F1000F01BD4DF808EDFFF7F4FF60
:10C8E0000CBF012000205DF808FB00BF4DF808EDEB
:10C8F000FFF7EAFF34BF012000205DF808FB00BF0E
:10C900004DF808EDFFF7E0FF94BF012000205DF82F
:10C9100008FB00BF4DF808EDFFF7CEFF94BF0120E4
:10C9200000205DF808FB00BF4DF808EDFFF7C4FFDD
:10C9300034BF012000205DF808FB00BF4FEA410C26
:10C940007FEA6C5C02D150EA013C0AD14FEA430C09
:10C950007FEA6C5C02D152EA033C02D14FF0000046
:10C9600070474FF0010070474FEA410212F5001284
:10C9700015D211D56FF47873B3EB625212D94FEA26
:10C98000C12343F0004343EA505311F0004F23FA10
:10C9900002F018BF404270474FF00000704750EA65
:10C9A000013005D111F0004008BF6FF00040704722
:10C9B0004FF00000704700BF4FEA4102B2F1E04380
:10C9C00024BFB3F5001CDCF1FE5C0DD901F0004C76
:10C9D0004FEAC0024CEA5070B2F1004F40EB8300C6
:10C9E00008BF20F00100704711F0804F21D113F1F2
:10C9F0003872BCBF01F00040704741F480114FEA2B
:10CA00005252C2F11802C2F1200C10FA0CF320FAB3
:10CA100002F018BF40F001004FEAC1234FEAD323D0
:10CA200003FA0CFC40EA0C0023FA02F34FEA43033A
:10CA3000CCE77FEA625307D150EA01331EBF4FF0C3
:10CA4000FE4040F44000704701F0004040F0FE40DE
:10CA500040F40000704700BF034613F8012B002A82
:10CA6000FBD1181A0138704770B501F0A9F90025FB
:10CA7000054E064CA41BA408AC4200D170BD56F86C
:10CA8000043B98470135F7E7D8FF3F02FCFF3F0220
:10CA900000F014B808B500F083F8BDE8084001F0D4
:10CAA00047B900F053BD00F05FBD0078B0FA80F0E8
:10CAB00040097047012303707047000010B500243F
:10CAC00086B001F0A5F84FF4165101F095F803A8CF
:10CAD000CDE90344ADF8144000F08AFD1448224625
:10CAE00023462146406800F0CFFC03A800F076F909
:10CAF0000123104C03A92046ADF80C3000F076F964
:10CB0000204600F0A3F901A800F044F90E230A4CD6
:10CB100001A920468DF8043000F042F99FED070A84
:10CB2000204600F054F9204600F053F906B010BD3D
:10CB3000E0AE07105CAE07104CAE0710000000001E
:10CB400010B5134C94F90000FFF7F4FB0022114BD1
:10CB5000FFF784FDFFF730FF00EE100A0E4800F0EB
:10CB600036F90D4800F035F94FF4FA7000F034FD55
:10CB700094F90020094B0A2A05D1FF2119701B786E
:10CB80001344237010BD002AF9D10121F6E700BF3C
:10CB9000CCAD0710000024404CAE0710CDAD0710FF
:10CBA000FFF7CEBF10B50024064B074A0120C3E9AA
:10CBB00000449A6000F0C0FB2146BDE8104001200F
:10CBC00000F0D6BB40AE07100000FFFF10B50024F8
:10CBD000054B1C70054B1C6001F0F8F92146BDE8BF
:10CBE000104000F0A7BD00BF6CAE071070AE07107C
:10CBF00008B501F0EBF9054B196800F09BFD01F059
:10CC0000E5F900F09BFD002008BD00BF70AE0710E5
:10CC100010B50C46044B196001F0D8F9214600F01C
:10CC200089FD002010BD00BF70AE0710014B002031
:10CC3000197070476CAE071013B50C46019201F0E5
:10CC4000C5F90B4B197800F07FFD01F0BFF90368BF
:10CC50002146DB68019A984701F0B8F9012100F0FC
:10CC600077FD013818BF4FF0FF3002B010BD00BF94
:10CC70006CAE07100023054A00781360044A0121B6
:10CC80001360044B188001F00BB900BF7CAE071095
:10CC900074AE071078AE071010B5064C0878012165
:10CCA000208001F0FDF82088002101F00AF9002021
:10CCB00010BD00BF78AE071010B5064B0C461888A3
:10CCC00001F05EF9A04223BF034B00201C604FF02F
:10CCD000FF3010BD78AE07107CAE071000000000DA
:10CCE00008B52DED028B204BB0EE408A188801F07C
:10CCF0002AF9FFF70FFB9FED180B41EC110B01F028
:10CD00004BFA17A3D3E9002351EC100BFFF7C6F938
:10CD1000FFF72AFEB5EEC08AF1EE10FA00F1FF30FF
:10CD200006DAF7EE007AB4EEE78AF1EE10FA0ED8E2
:10CD300007EE900AF8EE677A27EE880ABCEEC00A82
:10CD40000A4B002083ED000ABDEC028B08BD4FF0BA
:10CD5000FF30F9E7AFF30080000000000000004062
:10CD600095D626E80B2E113E78AE071074AE07104C
:10CD700008B5054B1A68054B1968054B188801F072
:10CD8000C6F8002008BD00BF7CAE071074AE0710C7
:10CD900078AE0710FF23037041F288334360704779
:10CDA00037B50D4604466846FFF764FF2B786946A1
:10CDB0008DF800306B682046E3600193FFF76CFF4D
:10CDC00020460199FFF778FF002003B030BDFFF740
:10CDD00087BFFFF7CDBF642000F0FEBB4FF6FF73A7
:10CDE00003800023436040230372704730B50D4633
:10CDF000044685B001A8FFF7E9FE6B682046029360
:10CE00002B7801A98DF806306B788DF805302B7AD8
:10CE10002373FFF7EDFE01300AD0217B2046FFF798
:10CE200005FF20466968FFF7F3FE002005B030BD1E
:10CE3000FF20FBE7FE2307B501220DF107018DF866
:10CE40000730FFF7F9FE03B05DF804FB07B501906A
:10CE5000FFF7C1FFFFF7BFFFFFF7BDFFFFF7BBFF06
:10CE6000FFF7B9FF0198FFF7E5FFFFF7B4FFFFF702
:10CE7000B2FFFFF7B0FFFFF7AEFFFFF7ACFF03B065
:10CE80005DF804FB09B504480068044B03441B68C3
:10CE90005B6C029309BD0000C8AD071030000000B4
:10CEA00009B504480068044B03441B685B6802939F
:10CEB00009BD0000C8AD07100000000009B5044816
:10CEC0000068044B03441B685B69029309BD0000C2
:10CED000C8AD07100000000009B504480068044B05
:10CEE00003441B685B68029309BD0000C8AD0710CE
:10CEF0001400000009B504480068044B03441B6893
:10CF00009B68029309BD0000C8AD07101400000023
:10CF100009B504480068044B03441B68DB680293AE
:10CF200009BD0000C8AD07101400000009B5044891
:10CF30000068044B03441B689B6A029309BD000010
:10CF4000C8AD07101400000009B504480068044B80
:10CF500003441B685B6E029309BD0000C8AD071057
:10CF60001400000009B504480068044B03441B6822
:10CF70001B6F029309BD0000C8AD0710140000002C
:10CF800009B504480068044B03441B689B6F029377
:10CF900009BD0000C8AD07101400000009B5044821
:10CFA0000068044B03441B68DB6F029309BD00005B
:10CFB000C8AD07101400000009B504480068044B10
:10CFC00003441B68D3F88830029309BDC8AD07102D
:10CFD0001400000009B504480068044B03441B68B2
:10CFE0001B68029309BD0000C8AD071010000000C7
:10CFF00009B504480068044B03441B68DB680293CE
:10D0000009BD0000C8AD07101000000009B50448B4
:10D010000068044B03441B689B69029309BD000030
:10D02000C8AD07101000000009B504480068044BA3
:10D0300003441B68DB69029309BD0000C8AD0710FB
:10D040001000000009B504480068044B03441B6845
:10D050001B6A029309BD0000C8AD07101000000054
:10D0600009B504480068044B03441B685B6A0293DB
:10D0700009BD0000C8AD07101000000009B5044844
:10D080000068044B03441B689B6A029309BD0000BF
:10D09000C8AD07101000000009B504480068044B33
:10D0A00003441B68DB6A029309BD0000C8AD07108A
:10D0B0001000000009B504480068044B03441B68D5
:10D0C0001B6B029309BD0000C8AD071010000000E3
:10D0D00009B504480068044B03441B685B6B02936A
:10D0E00009BD0000C8AD07101000000009B50448D4
:10D0F0000068044B03441B681B6C029309BD0000CD
:10D10000C8AD07101000000009B504480068044BC2
:10D1100003441B685B69029309BD0000C8AD07109A
:10D120004C00000009B504480068044B03441B6828
:10D130009B68029309BD0000C8AD071050000000B5
:10D1400009B504480068044B03441B68DB6802937C
:10D1500009BD0000C8AD07105000000009B5044823
:10D160000068044B03441B68DB69029309BD00009F
:10D17000C8AD07101800000009B504480068044B4A
:10D1800003441B681B6A029309BD0000C8AD071069
:10D190001800000009B504480068044B03441B68EC
:10D1A000DB68029309BD0000C8AD07102400000031
:10D1B00009B504480068044B03441B681B690293CB
:10D1C00009BD0000C8AD07102400000009B50448DF
:10D1D0000068044B03441B685B69029309BD0000AF
:10D1E000C8AD07102400000009B504480068044BCE
:10D1F00003441B689B69029309BD0000C8AD07107A
:10D200002400000009B504480068044B03441B686F
:10D21000DB69029309BD0000C8AD071024000000BF
:10D2200009B504480068044B03441B681B6A029359
:10D2300009BD0000C8AD07102400000009B504486E
:10D240000068044B03441B689B6A029309BD0000FD
:10D25000C8AD07102400000009B504480068044B5D
:10D2600003441B681B6C029309BD0000C8AD071086
:10D270002400000009B504480068044B03441B68FF
:10D280001B68029309BD0000C8AD07103400000000
:10D2900009B504480068044B03441B685B680293AB
:10D2A00009BD0000C8AD07103400000009B50448EE
:10D2B0000068044B03441B681B69029309BD00000E
:10D2C000C8AD07103400000009B504480068044BDD
:10D2D00003441B685B69029309BD0000C8AD0710D9
:10D2E0003400000009B504480068044B03441B687F
:10D2F0009B69029309BD0000C8AD0710340000000F
:10D3000009B504480068044B03441B68DB690293B9
:10D3100009BD0000C8AD07103400000009B504487D
:10D320000068044B03441B681B6A029309BD00009C
:10D33000C8AD07103400000009B504480068044B6C
:10D3400003441B685B68029309BD0000C8AD071069
:10D350000800000009B504480068044B03441B683A
:10D360005B69029309BD0000C8AD0710080000000A
:10D3700009B504480068044B03441B68DB6A029348
:10D3800009BD0000C8AD07100800000009B5044839
:10D390000068044B03441B68D3F88830029309BD2E
:10D3A000C8AD07100800000009B504480068044B28
:10D3B00003441B68D3F89430029309BDC8AD07102D
:10D3C0000800000009B504480068044B03441B68CA
:10D3D000DB6B029309BD0000C8AD07102C000000F4
:10D3E00009B504480068044B03441B685B6C029356
:10D3F00009BD0000C8AD07102C00000009B50448A5
:10D400000068044B03441B685B68029309BD00007D
:10D41000C8AD07102800000009B504480068044B97
:10D4200003441B689B68029309BD0000C8AD071048
:10D430002800000009B504480068044B03441B6839
:10D44000DB68029309BD0000C8AD0710280000008A
:10D4500009B504480068044B03441B681B69029328
:10D4600009BD0000C8AD07102800000009B5044838
:10D470000068044B03441B685B69029309BD00000C
:10D48000C8AD07102800000009B504480068044B27
:10D4900003441B689B69029309BD0000C8AD0710D7
:10D4A0002800000009B504480068044B03441B68C9
:10D4B000DB69029309BD0000C8AD07102800000019
:10D4C00009B504480068044B03441B681B6A0293B7
:10D4D00009BD0000C8AD07102800000009B50448C8
:10D4E0000068044B03441B681B6B029309BD0000DA
:10D4F000C8AD07102800000009B504480068044BB7
:10D5000003441B685B6B029309BD0000C8AD0710A4
:10D510002800000009B504480068044B03441B6858
:10D520001B6C029309BD0000C8AD07102800000065
:10D5300009B504480068044B03441B685B6C029304
:10D5400009BD0000C8AD07102800000009B5044857
:10D550000068044B03441B681B68029309BD00006C
:10D56000C8AD07100400000009B504480068044B6A
:10D5700003441B685B68029309BD0000C8AD071037
:10D580000400000009B504480068044B03441B680C
:10D59000DB6B029309BD0000C8AD0710040000005A
:10D5A00009B504480068044B03441B681B6C0293D4
:10D5B00009BD0000C8AD07100400000009B504480B
:10D5C0000068044B03441B685B6C029309BD0000B8
:10D5D000C8AD0710040000000021FFF7BBBE00002B
:10D5E000002302480360FFF74DBC00BF8CAE07105C
:10D5F0001FB50C230021ADF804300368ADF80D1001
:10D600008DF80630037A8DF80F108DF807304368D7
:10D610000293437A01A88DF80C30FFF7E1FE05B0C4
:10D620005DF804FB002240681146FFF749BF002265
:10D6300040681146FFF760BF00224068FFF74EBF09
:10D640000022406881F00101FFF72CBF00234068F1
:10D650001A461946FFF718BF002340681A461946B4
:10D66000FFF704BF002240681146FFF7F1BE002219
:10D6700040681146FFF7D0BE002202214068FFF744
:10D68000D9BE002340681A46FFF7B8BE0322024BFA
:10D690005A60024A1A60704790AE0710E4FD3F02DC
:10D6A0007047F8B5064615460C468F18BC4206D0A2
:10D6B000336830469B6814F8011B9847F6E7284604
:10D6C000F8BD0022007CFFF7BDBC0021007CFFF705
:10D6D000C7BC0021007CFFF7D1BC0021007CFFF714
:10D6E000DBBC0021007CFFF7E5BC10B5044614212B
:10D6F000FFF7D9F9204610BD38B5044615464FF45A
:10D700007A730022C4E90123094B0846217423607F
:10D710002946FFF7EBFCBF3008D16B69DB0705D565
:10D720006868FFF721FFE868FFF71EFF204638BD55
:10D7300020FE3F020022007CFFF74CBC0023007C4F
:10D740001A461946FFF754BC0022007CFFF75EBC66
:10D750000022007CFFF768BC704710B50446182112
:10D76000FFF7A1F9204610BDF0B5037D0E46062B4C
:10D770004FF000048DB000F1040712D000F108054D
:10D7800015F8011D0A22304600F043F9AF42044467
:10D7900019D0002CF4D02E21304600F037F9044483
:10D7A000EEE72F236A4639460A208DF80040FFF73E
:10D7B000ABFC6846FFF750F93368024669463046CD
:10D7C000DB689847044620460DB0F0BD10B504460E
:10D7D000044B1122002140F8043B01F068FD204673
:10D7E00010BD00BF48FE3F020346074A10B543F88C
:10D7F000042B01F1100251F8044B914243F8044B01
:10D80000F9D10A781A7010BD48FE3F0210B59DF894
:10D81000084044EA032343EA0242042342EA016146
:10D820004160037510BD000007B5064B0360CB785F
:10D8300000938B784A780978FFF7E8FF03B05DF82A
:10D8400004FB00BF48FE3F02014B024A1A607047CA
:10D8500098AE071054FE3F02002340681A46FFF7B7
:10D86000CDBD002202214068FFF7E4BD00224068E0
:10D870001146FFF7D1BD002240681146FFF7E8BD11
:10D88000002340681A461946FFF7F0BD00234068A0
:10D890001A461946FFF7F8BD00214068FFF73ABE67
:10D8A00000214068FFF744BE0022406881F001017A
:10D8B000FFF7F8BD00224068FFF710BE0022406865
:10D8C0001146FFF719BE002240681146FFF7F8BD68
:10D8D0002DE9F04395B014460D460746FFF776FF55
:10D8E00000211C220DA8009101F0E1FC40232046FC
:10D8F0000C9300216B460CAAFFF722FC044600287B
:10D900004BD1024601216868FFF7A2FD0221804643
:10D9100022466868FFF79CFD21468146009E002E46
:10D920003BD0002939D17368022B03D00A2B11D0C8
:10D93000F669F4E7B8F1000FFAD0716906A804316E
:10D940003C1D07ADFFF770FF0FCD0FC42B6841469C
:10D950002370EDE7B9F1000FEAD0102201A8746935
:10D9600001F0A5FC062301AD8DF8143004F1080385
:10D9700018342A4618685968083303C2A34215466A
:10D98000F7D101A906A83C1D07ADFFF72DFF0FCD6C
:10D990000FC42B6849462370CAE70098FFF7C2FB03
:10D9A000384615B0BDE8F083024B034A1A600022E6
:10D9B0005A6070479CAE071060FE3F02F8B50646FD
:10D9C0000D4600248F18BD420CD0336830469B684A
:10D9D00015F8011B9847031E01DB1C44F3E7002CDC
:10D9E00008BF1C462046F8BD13B50446084659B189
:10D9F0000191FFF731F80246204623680199DB6860
:10DA000002B0BDE81040184702B010BD03689B6823
:10DA100018470023012A98BF0A2230B58BB08DF831
:10DA2000243009AC0D46B1FBF2F101FB125303F0B7
:10DA3000FF03092B94BF30333733DBB2AA4204F81B
:10DA4000013DEFD92146FFF7CFFF0BB030BD0000FD
:10DA50000022014B9A607047A4AE071010B504462F
:10DA600008462170FFF77AFB00232046636010BD53
:10DA700002220020044B1A60044B054AC3E900004F
:10DA80009A60FFF759BC00BFC0AE0710B4AE0710D4
:10DA90000000FFFF024B1A68024B1A60704700BF7C
:10DAA000D0AD0710C4AE071070474174704708B579
:10DAB000007CFFF7C3FB20EAE07008BD08B5007CDE
:10DAC000FFF776FB20EAE07008BD08B5007CFFF7A1
:10DAD0008BFB40EAE07008BD08B5007CFFF776FBE1
:10DAE00040EAE07008BD007CFFF78CBB37B5457C91
:10DAF00004462DB1207C03B0BDE83040FFF74ABB9F
:10DB0000007C0191FFF79AFB00280199F2DC28467E
:10DB100003B030BD10B504461421FEF7C4FF204603
:10DB200010BD000010B54FF47A7304460846114644
:10DB30000022C4E90123044B207423600123637491
:10DB4000FFF78AFB204610BDB8FE3F02007CFFF7BE
:10DB500067BB417470477047704708B50021007C6F
:10DB6000FFF7C0FB40EAE07008BD08B50121007C6A
:10DB7000FFF7B8FB40EAE07008BD08B5007CFFF78E
:10DB8000A3FB20EAE07008BD08B5007CFFF78EFB20
:10DB900020EAE07008BD13B50446007C0191FFF750
:10DBA00093FB0028019901DC607C20B1207CFFF709
:10DBB000A7FB20EAE07002B010BD007CFFF7AEBB0F
:10DBC00010B504461421FEF76EFF204610BD00007C
:10DBD00010B54FF47A73044608460021C4E90113D6
:10DBE000044B20742360012311466374FFF742FB4A
:10DBF000204610BDE8FE3F020022007CFFF748BB34
:10DC000010B504461422002101F051FB204610BD3E
:10DC100010B588B003A8FFF7F3FF0C4CD4E88F1FB2
:10DC200011F001010FD120460191FEF73EFF01994D
:10DC300048B103AA0648FFF7CBFF2046FEF73AFF9C
:10DC4000044801F021FB024808B010BDC8AE07101F
:10DC5000CCAE071037E53F02002240681146FFF7BF
:10DC6000F7BB002240681146FFF72ABC002240683B
:10DC70001146FFF741BC00224068FFF72FBC00228D
:10DC8000406881F00101FFF70DBC002340681A468F
:10DC90001946FFF7F9BB002340681A461946FFF7FB
:10DCA000E5BB002240681146FFF7B6BB0022022107
:10DCB0004068FFF7BFBB002340681A46FFF79EBBD2
:10DCC0000422024B5A60024A1A607047E0AE071005
:10DCD00018FF3F02014B1860704700BFD8AD071016
:10DCE00008B50F4B43B1FFF793FF03681B699847D3
:10DCF000002801DD00E000BF0A4B43B100F0BAF993
:10DD000003681B699847002801DD00E000BF064B4F
:10DD10000BB100F0F5F9054B0BB100F027FA08BD87
:10DD200000000000000000000000000000000000F3
:10DD300008B5FFF7D5FFFFF7C1F8014B186008BD24
:10DD4000F0AE07100548064A08B5121A054901F059
:10DD5000A1FA054B054A1A6008BD00BF00B40710C0
:10DD600004B4071094F65F0800B407101E1C279A2D
:10DD7000002307B51A466FF077010093FFF714FBF5
:10DD800003B05DF804FB000007B543880A2B08D0F8
:10DD9000502B0BD1094B1B684BB103B05DF804EB62
:10DDA0001847FFF7E5FF03B05DF804FB00231A46B0
:10DDB0006FF077010093FFF7F7FAF4E7ECAE071086
:10DDC000002110B51148FFF7F9FB114B1A68114BF0
:10DDD0009A420CBF012200220F4B1A7001D0FFF7AC
:10DDE000B1FFFFF75DF8044601F06AFA0B4B13B17F
:10DDF000204600E000BF00210848FFF7E3FABDE835
:10DE0000104000210648FFF7C1BA00BFB5E63F0247
:10DE100000B407101E1C279AE8AE0710000000008F
:10DE200069E73F021B2837B5044602D9002003B03A
:10DE300030BDA0F10F03022B0BD9012821D800F02F
:10DE4000C5F80021007CFFF743F980F00100C0B263
:10DE5000EDE7114DD5E88F1F11F001010BD12846D8
:10DE60000191FEF722FE019928B10C48FFF7F6FD5B
:10DE70002846FEF71FFE094B1878FFF77DF90028AA
:10DE8000D4D1083C012C05D800F0F4F8007CFFF751
:10DE9000C7F9DAE70120CAE780AE071084AE0710A1
:10DEA0001B2838B504460D460AD8FF2908D0FFF7CD
:10DEB000B9FF28B129462046BDE83840FFF71AB817
:10DEC00038BD38B504460D46FFF7ACFFF0B104216C
:10DED0002046FFF701F8042805D12046A9B2BDE885
:10DEE0003840FFF723B802212046FEF7F5FF02284D
:10DEF0000CD12046FFF70CF8012801D0042805D1E9
:10DF000029462046BDE83840FFF73AB838BD70B51D
:10DF100004460D461646FFF785FF98B102212046BC
:10DF2000FEF7DAFF02280DD12046FEF7F1FF0128A7
:10DF300001D0042806D1324629462046BDE870406B
:10DF4000FFF72CB870BD10B50446FFF76BFFA8B102
:10DF500004212046FEF7C0FF042804D12046BDE876
:10DF60001040FEF7F1BF02212046FEF7B5FF022860
:10DF700004D12046BDE81040FEF7F4BF002010BDDC
:10DF800010B50446FFF74EFF20B12046BDE8104013
:10DF9000FFF712B810BD704738B50A4B044603604E
:10DFA000012309494361202000F0F4F82025606036
:10DFB00005492846A56000F0EDF8C4E903052046B0
:10DFC00038BD00BF180001004CFF3F0230B50E4DB8
:10DFD00087B0D5E88F1F11F0010411D12846FEF754
:10DFE00064FD68B16846FFF7D7FF6A4621460748D7
:10DFF000FFF782FB2846FEF75DFD054801F044F976
:10E00000024807B030BD00BFF4AE0710F8AE0710ED
:10E0100077E93F027047000038B5142504462A46C8
:10E02000002101F044F92580402507492846258133
:10E03000258200F0AFF804496060284600F0AAF895
:10E04000E060204638BD00BF4CFF3F02704770477C
:10E0500010B50446FFF7E0FF204610BD10B504469A
:10E06000FFF7DAFF204610BD10B50446FFF7D4FFD6
:10E07000204610BD30B50E4D87B0D5E88F1F11F08A
:10E08000010411D12846FEF710FD68B101A8FFF781
:10E09000DFFF214601AA0748FFF744FD2846FEF7A7
:10E0A00009FD054801F0F0F8024807B030BD00BF97
:10E0B0000CAF071018AF0710F5E93F0210B50D4C73
:10E0C00086B0D4E88F3FDB0711D42046FEF7EDFC85
:10E0D00068B101A8FFF7C2FF012101AA0648FFF7B6
:10E0E00021FD2046FEF7E6FC044801F0CDF8024889
:10E0F00006B010BD10AF07102CAF07102FEA3F027B
:10E1000010B5FFF7DBFF074B044653B1FFF71EFDC9
:10E1100038B1236820461B699847002801DD00E0DC
:10E1200000BF10BD0000000010B50D4C86B0D4E853
:10E130008F3FDB0711D42046FEF7B7FC68B101A87A
:10E14000FFF792FF022101AA0648FFF7EBFC2046E9
:10E15000FEF7B0FC044801F097F8024806B010BD85
:10E1600014AF071040AF07102DEA3F0210B5FFF7BC
:10E17000DBFF074B044653B1FFF7E8FC38B12368D7
:10E1800020461B699847002801DD00E000BF10BD54
:10E1900000000000FEF785BCF8B52DED028B57ECB2
:10E1A000106B55EC114B00F0CBF8634BB0EE408A8E
:10E1B000F0EE608A93F9003001332AD022462B46D4
:10E1C00020462946FEF7BAFB18BB32463B4630468E
:10E1D0003946FEF7B3FB002844D100220023304625
:10E1E0003946FEF779FBD8B10022002320462946A4
:10E1F000FEF772FB00283DD145EC104B00F0FEFE0F
:10E2000038B12046294600220023FEF76FFB002884
:10E210005CD1B0EE480AF0EE680ABDEC028BF8BDA6
:10E22000B0EE480AF0EE680A00F0E8FE58B30022AB
:10E23000002351EC180BFEF74FFB0028E9D047EC08
:10E24000106B00F0DBFE0028E3D045EC104B00F033
:10E25000D5FE0028DDD0FFF795F922239FED2E8B08
:10E260000360D6E72046294600220023FEF734FB50
:10E270000028CED09FED2A8BB0EE480AF0EE680A57
:10E28000BDEC028BF8BD47EC106B00F0B7FE002828
:10E29000CDD045EC104B00F0B1FE0028C7D018EEF1
:10E2A000100A53EC182B1946FEF748FB20BBFFF76A
:10E2B00069F922220346394630461A6000220023BB
:10E2C000FEF714FB48B99FED188BA2E7FFF75AF948
:10E2D00021239FED178B03609BE745EC104B00F06B
:10E2E000A3FE22462B4651EC100BFEF7F5FA002850
:10E2F000E9D19FED0F8B8CE7FFF744F90022002353
:10E300002121016010461946FEF7A8F941EC180BCF
:10E310007FE700BFAFF300800000000000000000B6
:10E32000000000000000F03F000000000000F07F4F
:10E33000000000000000F0FFD4AD07100000000056
:10E340002DE9F04F55EC114B25F0004A5AEA040232
:10E350002DED0C8B87B01FD05D4910EE102A57ECC5
:10E36000106B27F00048B946884511DCAB4611EE2A
:10E37000103A08D13EB1574807B0BDEC0C8BBDE850
:10E38000F04F00F049BE52498A4501DC0BD153B130
:10E39000514B43441343EED19FED490B07B0BDEC05
:10E3A0000C8BBDE8F08FB9F1000F45DB0021009127
:10E3B00083B9474B9A455BD0484B9A456AD0BBF12D
:10E3C000804F00F0B084464B9B4503D1B9F1000F5C
:10E3D00080F20D85029247EC106B00F005FE029A68
:10E3E0004AB929F040433D4A934200F0A883B8F16E
:10E3F000000F00F0A4834FEAD973009A013B049305
:10E4000013434ED0374B9A4572DD03F104739A459E
:10E41000354B40F32B84984540F3A983BBF1000FA3
:10E4200040F3A98328A3D3E9002310461946FDF73A
:10E43000EBFF41EC100BB1E72C498A4527DCA1F139
:10E4400054718A45B2DD4FEA2A51A1F2FF311429F5
:10E4500040F37D84C1F1340123FA01F000FA01F1A7
:10E460009942A3D100F00100C0F1020100919FE7A1
:10E47000194B434413438FD01B4B984540F3AB8358
:10E48000BBF1000FC0F2778345EC104B86E7022109
:10E4900000918DE7BBF1000FC0F24F8447EC106B89
:10E4A0007CE732463B4610461946FDF7F5FD02462D
:10E4B0000B46FEF7D3F841EC100B6FE7AFF300808B
:10E4C000000000000000F03F9C7500883CE4377EAF
:10E4D0000000F07F50FF3F02000010C00000F03F3E
:10E4E0000000E03F0000E041FFFFEF3FFFFF3F4340
:10E4F000E34B002209EA030353B9E24B51EC100B42
:10E50000FDF782FF6FF0340241EC100B10EE908AA1
:10E510004FEA2853C8F31308DB4EA3F2FF3348EA4F
:10E5200006069A18D94B9845059207DDD84B9845B1
:10E5300040F333840132A6F58016059200279FED43
:10E54000B87B9FEDB96BB0EE47DAF0EE67DAB0EE6C
:10E5500047CAF0EE67CA51EC160B53EC102B33464A
:10E56000761043EC192B41EC1A0B02460B4646F091
:10E57000005651EC190BFDF78FFD8046894653EC90
:10E580001A2B51EC190BFDF789FD02460B460020B2
:10E59000BD49FEF763F841EC1B0B53EC1B2B4046C7
:10E5A0004946FDF731FF0A4606F5002341EC180BFA
:10E5B00001460020CDE902120021064602460291E2
:10E5C000D919DDE902AB0F460B4650465946FDF717
:10E5D0001BFF02460B4640464946FDF75DFD80465F
:10E5E00089463046394653EC1A2BFDF755FD024655
:10E5F0000B4651EC190BFDF74FFD52465B46FDF7FC
:10E6000003FF02460B4640464946FDF745FD53ECE5
:10E610001B2BFDF7F9FE53EC182B41EC1A0B51ECB8
:10E62000180BFDF7F1FE06460F4681A3D3E9002340
:10E63000FDF7EAFE80A3D3E90023FDF72FFD324664
:10E640003B46FDF7E1FE7EA3D3E90023FDF726FD5F
:10E6500032463B46FDF7D8FE7BA3D3E90023FDF706
:10E660001DFD32463B46FDF7CFFE79A3D3E90023DB
:10E67000FDF714FD32463B46FDF7C6FE76A3D3E90F
:10E680000023FDF70BFD8046894632463B46304667
:10E690003946FDF7B9FE02460B46404649464FF063
:10E6A0000008FDF7B1FE524606460F465B4651ECA8
:10E6B000180BFDF7F3FC53EC1A2BFDF7A5FE3246C1
:10E6C0003B46FDF7EBFC52465B4641EC190B5046CE
:10E6D0005946FDF799FE00226E4B06460F46FDF7A0
:10E6E000DDFC53EC192BFDF7D9FC89464246504618
:10E6F0004B465946FDF788FE002282468B46654B05
:10E7000040464946FDF7C8FC32463B46FDF7C4FC8F
:10E7100002460B4651EC190BFDF7BEFC53EC182BCF
:10E72000FDF772FE06460F4642464B4651EC1A0B69
:10E73000FDF76AFE02460B4630463946FDF7AEFC51
:10E74000804689465046424659464B46FDF7A6FC50
:10E7500000200F46064642A3D3E90023FDF754FEEE
:10E7600052465B4641EC190B30463946FDF794FCA6
:10E7700002460B4640464946FDF78EFC3AA3D3E9D4
:10E780000023FDF741FE804689463046394638A3CE
:10E79000D3E90023FDF738FE02460B4640464946C2
:10E7A000FDF77CFC53EC1C2BFDF778FC06460F466E
:10E7B0000598FDF7BFFD3246804689463B4651EC41
:10E7C000190BFDF76BFC53EC1D2BFDF767FC424664
:10E7D0004B46FDF763FC002042464B4682468B4683
:10E7E000FDF75AFC53EC1D2BFDF756FC53EC192B8F
:10E7F000FDF752FC02460B4630463946FDF74CFC0D
:10E80000009B049A013B134341EC180B40F0DC8160
:10E810009FED197BB0EE479AF0EE679A3CE000BF9F
:10E820000000000000000000000000000000F03FB9
:10E83000EF4E454A287ECA3F65DBC9934A86CD3FE5
:10E8400001411DA96074D13F4D268F515555D53FCB
:10E85000FFAB6FDBB66DDB3F033333333333E33F63
:10E86000000000E009C7EE3FFD033ADC09C7EE3FB8
:10E87000F5015B14E02F3EBE000000000000F0BF79
:10E880000000F07F000040430000F03F8E9803003E
:10E8900079B60B0000000840002320462946CDE948
:10E8A00000450093DDE9008942464B46FDF7F4FB45
:10E8B0005B465246FDF7A8FD06460F4622462B460C
:10E8C00051EC180BFDF7A0FD02460B4630463946C9
:10E8D000FDF7E4FB424604460D464B46594650467A
:10E8E000A046FDF791FD06460F46204629463246D2
:10E8F0003B46A946FDF7D2FBD54B04460D4699424F
:10E900008B4640F33B81D34B0B44034340F03582AD
:10E9100040464946B6A3D3E90023FDF7BFFB324684
:10E920003B4641EC180B20462946FDF7B5FB024655
:10E930000B4651EC180BFDF7F7FF002840F01D8245
:10E94000CBF30A534FF48012A3F2FE33C24CBBF157
:10E95000000F42FA03F34FF000005B44C3F30A5286
:10E96000C3F3130AA2F2FF324AF4801A44FA02F403
:10E97000C2F1140223EA04014AFA02FA02463046BE
:10E980000B46B8BFCAF1000A3946FDF785FB0246BF
:10E990000B4606460F46404649464FEA0A5BFDF7DE
:10E9A0007DFB0D460024294693A3D3E9002320468E
:10E9B000FDF72AFD32463B4606460F4620462946CD
:10E9C000FDF76AFB02460B4640464946FDF764FBED
:10E9D0008BA3D3E90023FDF717FD80468946204627
:10E9E000294689A3D3E90023FDF70EFD02460B4615
:10E9F00040464946FDF752FB80468946304642462E
:10EA000039464B46FDF74AFB324604460D463B4627
:10EA1000FDF742FB02460B4640464946FDF73CFBEC
:10EA20002246804689462B4620462946FDF7ECFCC7
:10EA300006460F4676A3D3E90023FDF7E5FC76A34F
:10EA4000D3E90023FDF728FB32463B46FDF7DCFC0B
:10EA500073A3D3E90023FDF721FB32463B46FDF7C4
:10EA6000D3FC71A3D3E90023FDF716FB32463B46E6
:10EA7000FDF7CAFC6EA3D3E90023FDF70FFB324676
:10EA80003B46FDF7C1FC02460B4620462946FDF7F2
:10EA900003FB06460F462046324629463B46FDF715
:10EAA000B3FC00224FF0804341EC180B304639464E
:10EAB000FDF7F2FA02460B4651EC180BFDF7CEFDBE
:10EAC000424606460F464B4620462946FDF79CFC2B
:10EAD00042464B46FDF7E2FA02460B4630463946BF
:10EAE000FDF7DAFA22462B46FDF7D6FA02460B4628
:10EAF00000205A49FDF7D0FA8B4402460B46BBF57D
:10EB0000801FC0F26C81594653EC192BFDF77CFC39
:10EB100041EC100B42E447EC106B009200F064FAF9
:10EB2000009A002A7FF4BDAC29F040434B4A93423F
:10EB300003D0B8F1000F7FF4B4AC00230093BBF115
:10EB4000000F07DA0020454953EC102BFDF786FD36
:10EB500041EC100BB9F1000FBFF620AC404B009A0E
:10EB60004344134340F02D8153EC102B9BE4BBF145
:10EB7000000FFFF657AC9FED300B0FE421F0004380
:10EB8000DFF8E4C0634540F3F080364B0B440343A9
:10EB90000AD132463B46FDF77FFA42464B46FDF727
:10EBA000B9FE00283FF4CCAE25A3D3E9002351ECF5
:10EBB000190BFDF729FC22A3D3E90023FDF724FC60
:10EBC00041EC100BFFF7EABB9FED1F7BB0EE479ABD
:10EBD000F0EE679A60E6BBF1000FCCDA05F1004376
:10EBE00000EE104A00EE903AFFF7D8BBAFF300807A
:10EBF000FE822B654715973C00000000432EE63F40
:10EC0000EF39FAFE422EE63F396CA80C615C20BE5B
:10EC1000D0A4BE726937663EF16BD2C541BDBB3E22
:10EC20002CDE25AF6A56113F93BDBE166CC1663F00
:10EC30003E5555555555C53F0000000000000000E9
:10EC400059F3F8C21F6EA501000000000000F03F5C
:10EC5000FFFF8F40000070BFFFFF0F000000F03F7C
:10EC6000000010C000346F3FFFCB90409845FFF686
:10EC70007EAF794B98453FF7D1AB0022764B51ECF4
:10EC8000100BFDF709FA06460F4663A3D3E90023EC
:10EC9000FDF7BAFB82468B463046394660A3D3E97E
:10ECA0000023FDF7B1FB00226C4B41EC180B304602
:10ECB0003946FDF7A9FB02460B465BA1D1E90001ED
:10ECC000FDF7EAF932463B46FDF79EFB02460B464E
:10ECD00000206349FDF7E0F98046894632463B460D
:10ECE00030463946FDF790FB02460B464046494602
:10ECF000FDF78AFB4EA3D3E90023FDF785FB02460F
:10ED00000B4651EC180BFDF7C7F906460F46504667
:10ED1000594632463B46FDF7C1F9002052465B4654
:10ED200082468B4664E532463B4630463946FDF71F
:10ED30006BFB41EC100BFFF731BB0020464932461C
:10ED40003B46FDF78BFC41EC100BFFF727BB002B7C
:10ED50007FF4E1AEC1F114014AFA01F000FA01F1C9
:10ED600051454DD00093FFF727BB3D4A93424EDCFF
:10ED7000DDE900239346924614E62FA3D3E900234E
:10ED800051EC190BFDF740FB2BA3D3E90023FDF752
:10ED90003BFB41EC100BFFF701BB9FED297B4FF4D0
:10EDA0008027B0EE47DAF0EE67DA9FED277BB0EE12
:10EDB00047CAF0EE67CA9FED267B51EC170BFFF7B1
:10EDC000CCBB009B012B7FF4E9AA10EE901A10EE49
:10EDD000102A01F1004343EC102BFFF7DFBA504635
:10EDE00043EC102B00F0BCF951EC100B8CE647EC17
:10EDF000106B07B0BDEC0C8BBDE8F04F00F032B8E3
:10EE000000F00100C0F102030093FFF7D5BA1B1513
:10EE100098E500BFAFF30080000000604715F73FA2
:10EE200044DF5DF80BAE543E555555555555D53F0D
:10EE3000FE822B654715F73F9C7500883CE4377EC2
:10EE40000000004003B8E23F06D0CF43EBFD4C3E4C
:10EE5000000000000000F83F0000F03F0000D03F3D
:10EE60000000E03F5E492DE9F04155EC104BA9430D
:10EE700000F09480002D2B4610EE102A5ADD281544
:10EE800067D0C3F31303C107A0F2FF3743F4801325
:10EE900003D45B0003EBD2735200D10F00267F1026
:10EEA0004FF0160C01EB4303B64652004FF400112D
:10EEB0000EEB0100984203DC1B1A00EB010E0E441E
:10EEC0005B00BCF1010C4FEA510103EBD2734FEA36
:10EED0004202EDD1654620244FF0004114E00AD1F2
:10EEE000904208D8002800EB010C1DDBF0460023FF
:10EEF000121A0D44C646D00F013C4FEA510100EBF7
:10EF000043034FEA420233D0734501EB0C00E6DDC8
:10EF1000002800EB010C07DBF046A3EB0E03904248
:10EF200088BF03F1FF33E3E7BCF1000FF4DB0EF120
:10EF30000108F2E725F00041214328D0002D3DD102
:10EF40002846D10A153852050B460029F9D0CF02C0
:10EF500041D400245B0025460134DE02FAD519466F
:10EF60001346A240C4F12004E340401B0B4388E752
:10EF700013430ED16C08F3071A4948BF44F000440C
:10EF800001EB6601224601EB075343EC102BBDE871
:10EF9000F0816A1C1DD06C1C6408ECE710EE102A8E
:10EFA0002B4610EE100A2946FDF72EFA22462B4674
:10EFB000FDF774F841EC100BBDE8F08120462946BE
:10EFC000FDF76AF802460B46FDF748FB41EC100BD3
:10EFD000DDE70136CFE7134620244FF0FF35C3E7C6
:10EFE0000000F07F0000E03F51EC100B10EE102A03
:10EFF00021F0004343EC102B704700BF82B005485E
:10F000008DED000B019B23F000431844C00F02B0AC
:10F01000704700BF000010809FED010B704700BFDC
:10F02000000000000000F87F53EC102BC3F30A5CD3
:10F0300010EE100AACF2FF311329F0B51C4683B074
:10F040004FEAD37E3ADC002930DB424D45FA01FC21
:10F0500003EA0C0515432DD003EA5C034FEA5C0C70
:10F0600018430CD024EA0C0C4FF48024132944FAE2
:10F0700001F10CBF4FF0004000204CEA010436497A
:10F080002346024601EBCE0EDEE900452046294626
:10F09000FDF704F822462B46CDE90001DDE9000129
:10F0A000FCF7FAFF41EC100B03B0F0BD23F0004178
:10F0B000114324D143EC102B03B0F0BD332908DDFC
:10F0C000B1F5806FF6D11946FCF7E8FF41EC100B63
:10F0D000F2E7ACF2134C4FF0FF3121FA0CF10A4287
:10F0E000E8D010EA51024FEA5103C8D020EA0303E6
:10F0F0004FF0804040FA0CFC43EA0C00BFE7C3F33A
:10F100001303164A1843224004F0004443420343C9
:10F110001B0B03F4002343EA02070F4B10EE102AE7
:10F1200003EBCE0E3B46DEE9006730463946FCF77E
:10F13000B5FF32463B46CDE90001DDE90001FCF7B1
:10F14000ABFF21F00041024641EA040343EC102BDF
:10F1500003B0F0BDFFFF0F0058FF3F020000FEFFAD
:10F1600038B553EC102BC3F30A519C46044689BBB7
:10F1700023F0004C10EE101A5CEA010129D03E4D3C
:10F18000194600223D4B10EE100AFDF73DF9AC4246
:10F1900002460B4616DB8C46C1F30A513639214430
:10F1A00040F2FE70814221DC002947DC11F1350F6D
:10F1B00034DA4CF250318C4218DC002B26A1D1E914
:10F1C000000143DB24A3D3E90023FDF71DF941EC43
:10F1D000100B38BD40F2FF7E7145E0D110EE100AF1
:10F1E0001946FCF75BFF41EC100B38BD002B1CA14E
:10F1F000D1E9000107DB1AA3D3E90023FDF704F9E5
:10F2000041EC100B38BD18A1D1E9000114A3D3E9DA
:10F210000023FDF7F9F841EC100BF3E718483631FD
:10F220001446184B0CEA0000002240EA0155204623
:10F230002946FDF7E9F841EC100B38BD10480CEAFF
:10F24000000040EA015343EC102B38BD08A1D1E97E
:10F250000001B7E7AFF3008059F3F8C21F6EA501B4
:10F260009C7500883CE4377E9C7500883CE437FE42
:10F2700059F3F8C21F6EA581B03CFFFF0000504358
:10F28000FFFF0F800000903C002301461A461846FD
:10F2900000F044B80A44431E914200D1704710B5B3
:10F2A00011F8014B914203F8014FF9D110BD02440E
:10F2B0000346934200D1704703F8011BF9E70000B1
:10F2C00038B5104B04461D68AB6BB3B91820FEF778
:10F2D0003DF90246A86320B90B4B42210B48FEF7CB
:10F2E0005FF90B490B4BC0E900130B4B0021836006
:10F2F0000B2383810120C2E90401AB6B00221C6156
:10F300005A6138BDD8AD071068FF3F027FFF3F024A
:10F310000E33CDAB34126DE6ECDE05002DE9F8437B
:10F32000DFF8BC8006461F460D46D8F8000091461F
:10F3300000F058F8264B1C6834B9264C1C60264B4C
:10F3400013B11B68C4F8883063681F2B07DDD8F839
:10F35000000000F049F84FF0FF30BDE8F8835EB3DD
:10F36000D4F8880088B91D4B23B9D8F8000000F004
:10F370003AF8F0E74FF48470FEF7E8F80028F4D08C
:10F380000023C0E94033C4F8880063680122022EDC
:10F3900040F8239002FA03F200EB8301D0F8003129
:10F3A00043EA0203C0F80031C1F8807002BFD0F810
:10F3B00004311343C0F804316368D8F800005A1CC4
:10F3C0000233626044F8235000F00EF80020C4E7D6
:10F3D000E0AF071054AF0710000000002DDF3F0220
:10F3E0003CAE0710704770477047000049D43F0299
:10F3F00071D43F0275D43F020000000000000000FD
:10F400000000000063E03F0259E03F024FE03F028E
:10F4100045E03F0239E03F022DE03F0279E23F0242
:10F4200081E23F0221E03F0219E03F020FE03F028C
:10F4300005E03F02B1E23F020000000000000000D2
:10F4400081E03F02CBE03F02A3E03F0283E03F02C6
:10F45000ABE03F02B3E03F02BBE03F02C3E03F024C
:10F46000000000000000000049E13F0239E13F02D6
:10F470003BE13F02617070000000000000000000EE
:10F4800039E23F0243E23F024DE23F0257E23F02D0
:10F4900061E23F026DE23F0279E23F0281E23F0218
:10F4A00089E23F0295E23F029DE23F02A7E23F026E
:10F4B000B1E23F0225592D256D2D25645425483A8A
:10F4C000254D3A2553257A0061736374696D650093
:10F4D000000000000000000089E43F02F5E43F0264
:10F4E000CDE43F029DE33F029DE43F02B9E43F02C9
:10F4F000ABE43F02C7E43F028BE43F028FE43F02EC
:10F50000000000000000000039E53F02A1E53F02D5
:10F5100077E53F029DE33F0269E53F023BE53F029D
:10F520004BE53F029BE53F025BE53F0233E53F02CF
:10F53000000000000000000097E63F028DE63F0259
:10F5400083E63F0239E63F0277E63F026BE63F0281
:10F5500079E23F0281E23F025FE63F0257E63F0267
:10F560004DE63F0243E63F02B1E23F0200000000E9
:10F570000000000000000000000000000000304318
:10F5800000000000000030C35245454E54206D611C
:10F590006C6C6F6320737563636565646564002FCD
:10F5A000746D702F6A656E6B696E732D4743432DC2
:10F5B00031302D706970656C696E652D34385F323D
:10F5C000303230313132345F3136303631383036E6
:10F5D00033392F7372632F6E65776C69622F6E6596
:10F5E000776C69622F6C6962632F7374646C6962F3
:10F5F0002F72616E642E630085D53F02C1DF3F022A
:10F600006DE03F0229E23F0289E33F0231E43F021D
:0CF6100051E43F0275E43F02A1E63F0216
:10F61C000000000201010000A8FE3F02FF000000F4
:10F62C00DCAD07100000000000000000000000002E
:10F63C0000000000000000000000000000000000BE
:10F64C0000000000000000000000000000000000AE
:10F65C00000000000000000000000000000000009E
:10F66C00000000000000000000000000000000008E
:10F67C00000000000000000000000000000000007E
:08F68C0000000000E4AF0710CC
:04F694000000000072
:10FFBE000200100000C05F0888C05F0868CA3F02D8
:10FFCE0001000A00FFFFFFFFFFFF00000102030414
:10FFDE0005060708090A0B0C0D0E0F10111213144B
:0EFFEE0015161718191A1B1C1D1E1F203E0089
:04FFFC0078563412ED
:04000005085FC018B8
:00000001FF
