:02000004085F93
:10E0000000E05F08FCFF5F0800000600200005013B
:08E010000401B414000000003B
:10E018000E480F4908B5884205D00E4A824202D000
:10E028000D4B121A98470D480D4A00210D4B121A34
:10E0380098470D480D49884205D00D4A824202D0C2
:10E04800054B121A9847014808BD00BFD0A9071010
:10E0580000FB5F0840AA07102D0D111040AA0710F9
:10E06800E8AF0710A10E111080E53F0288E05F08B5
:0CE07800F8FF3F0219E05F080000000004
:08E088007CE05F08D8FD3F02B7
:10E09000034613F8012B002AFBD1181A01387047E8
:10E0A00070B501F0E9F90025054E064CA41BA40843
:10E0B000AC4200D170BD56F8043B98470135F7E7F4
:10E0C000D4FF3F02F8FF3F0200F014B808B500F09B
:10E0D00067F8BDE8084001F087B900F09BBD00F08B
:10E0E000A7BD0078B0FA80F04009704701230370A3
:10E0F0007047000010B5002486B001F0E5F84FF439
:10E10000165101F0D5F803A8CDE90344ADF8144049
:10E1100000F0C4FD0F48224623462146406800F027
:10E1200017FD684600F020FA01230B4C6946204693
:10E13000ADF8003000F020FA204600F04DFA03A8B8
:10E1400000F0C9F9054B03A90548039300F0CDF988
:10E1500006B010BDE0AE071058AE07100908121344
:10E160004CAA071007B50C4B18689A889B79009049
:10E1700068468DF80630ADF80420FFF789FF694640
:10E1800082B2064800F0EAF94FF47A7000F07AFDA6
:10E1900003B05DF804FB00BFE8FD3F024CAA071086
:10E1A00008B5FFF7DFFFBDE808404FF4FA7000F054
:10E1B00069BD000010B50024064B074A0120C3E9E1
:10E1C00000449A6000F01CFC2146BDE8104001208C
:10E1D00000F032BC40AA07100000FFFF10B50C464B
:10E1E00021B9007801F0B8F9204610BD4FF0FF309A
:10E1F000FBE7012908B504D1008801F0ADF9002042
:10E2000008BD4FF0FF30FBE710B50024054B1C7034
:10E21000054B1C6001F0CCF92146BDE8104000F030
:10E22000DFBD00BF68AE07106CAE071008B501F087
:10E23000BFF9054B196800F0D3FD01F0B9F900F002
:10E24000D3FD002008BD00BF6CAE071010B50C4612
:10E25000044B196001F0ACF9214600F0C1FD00202B
:10E2600010BD00BF6CAE0710014B00201970704745
:10E2700068AE071013B50C46019201F099F90B4BEB
:10E28000197800F0B7FD01F093F903682146DB68C7
:10E29000019A984701F08CF9012100F0AFFD013897
:10E2A00018BF4FF0FF3002B010BD00BF68AE0710BE
:10E2B000F8B54FF4E1330B4C0022236001230A4FE1
:10E2C0000A4E0B4D3B6032602B6001F0C5F932689D
:10E2D0003B68216813432A681A43BDE8F84000F000
:10E2E0008BBF00BF7CAE071084AE071080AE071056
:10E2F00088AE071008B501F0AFF9074B074A1B6855
:10E3000012681343064A12681A43064B196800F054
:10E3100073FF002008BD00BF84AE071080AE071059
:10E3200088AE07107CAE0710B1F5614F10B50C46F2
:10E330000DD01ED8B1F5165F09D011D8B1F5166F02
:10E3400005D0B1F5965F02D0B1F5966F27D1154B88
:10E350001C6001F081F9214600F052FF002010BD41
:10E36000B1F5E14FF3D0B1F5164FF0D0B1F5964FBE
:10E37000ECE70D4B9942EAD008D8B1F5E13FE6D081
:10E38000B1F5613FE3D0B1F5963FDFE7B1F5612F1D
:10E39000DDD0064B9942DAD0B1F5E12FD6E74FF048
:10E3A000FF30DCE77CAE071090D0030040420F0046
:10E3B000012908B505D0022916D0C1B14FF0FF30B0
:10E3C00008BD04220B4B1A6001F046F90A4B094ABA
:10E3D0001B6812681343094A12681A43084B1968EC
:10E3E00000F00AFF0020EBE70822024BEBE7014BAD
:10E3F0001960E9E780AE071084AE071088AE0710F9
:10E400007CAE071008B503291FD8DFE801F002151C
:10E41000181B02220E4B1A6001F01EF90D4B0E4A1A
:10E420001B68126813430A4A12681A430B4B196897
:10E4300000F0E2FE002008BD0022054BEBE70322BE
:10E44000034BE8E70122024BE5E74FF0FF30F2E72C
:10E4500088AE071084AE071080AE07107CAE0710A0
:10E46000012908B515D0022916D0C1B920220D4BBB
:10E470001A6001F0F1F80B4B0B4A1B68126813434A
:10E480000A4A12681A430A4B196800F0B5FE0020C8
:10E4900008BD0022034BEBE71022024BE8E74FF0E8
:10E4A000FF30F5E784AE071080AE071088AE071086
:10E4B0007CAE0710704713B51446019101F0CCF8FB
:10E4C00003682246DB6801999847201A18BF4FF06D
:10E4D000FF3002B010BD4FF416534FF0FF32C0E9C9
:10E4E00000234FF001238360704770B505460C464A
:10E4F00086B001A8FFF7DCFE05F50673AB6105F1F8
:10E500002403EB6123882E1D5BBAADF804304FF471
:10E51000FA7301A93046CDE90433FFF7EBFE6168D9
:10E520003046FFF701FFA17A3046FFF741FFE17A5D
:10E530003046FFF767FF617A3046FFF791FF3046BC
:10E54000217AFFF7B7FFA1782846FFF752FEE1785E
:10E55000A81CFFF743FE002006B070BD0430FFF793
:10E56000AABF642000F08EBB4FF6FF730380002328
:10E57000436040230372704730B50D46044685B0B2
:10E5800001A8FFF741FE6B68204602932B7801A992
:10E590008DF806306B788DF805302B7A2373FFF7F2
:10E5A00045FE01300AD0217B2046FFF75DFE204664
:10E5B0006968FFF74BFE002005B030BDFF20FBE788
:10E5C000FE2307B501220DF107018DF80730FFF793
:10E5D00051FE03B05DF804FB07B50190FFF7C1FFE2
:10E5E000FFF7BFFFFFF7BDFFFFF7BBFFFFF7B9FF67
:10E5F0000198FFF7E5FFFFF7B4FFFFF7B2FFFFF762
:10E60000B0FFFFF7AEFFFFF7ACFF03B05DF804FB10
:10E6100009B504480068044B03441B685B6C029313
:10E6200009BD0000D0A907103000000009B504485A
:10E630000068044B03441B685B68029309BD00003B
:10E64000D0A907100000000009B504480068044B79
:10E6500003441B685B69029309BD0000D0A9071041
:10E660000000000009B504480068044B03441B681F
:10E670009B68029309BD0000D0A907101400000098
:10E6800009B504480068044B03441B681B680293E7
:10E6900009BD0000D0A907101000000009B504480A
:10E6A0000068044B03441B68DB68029309BD00004B
:10E6B000D0A907101000000009B504480068044BF9
:10E6C00003441B689B69029309BD0000D0A9071091
:10E6D0001000000009B504480068044B03441B689F
:10E6E000DB69029309BD0000D0A9071010000000EB
:10E6F00009B504480068044B03441B681B6A029375
:10E7000009BD0000D0A907101000000009B5044899
:10E710000068044B03441B685B6A029309BD000058
:10E72000D0A907101000000009B504480068044B88
:10E7300003441B689B6A029309BD0000D0A907101F
:10E740001000000009B504480068044B03441B682E
:10E75000DB6A029309BD0000D0A907101000000079
:10E7600009B504480068044B03441B681B6B029303
:10E7700009BD0000D0A907101000000009B5044829
:10E780000068044B03441B685B6B029309BD0000E7
:10E79000D0A907101000000009B504480068044B18
:10E7A00003441B681B6C029309BD0000D0A907102D
:10E7B0001000000009B504480068044B03441B68BE
:10E7C0005B69029309BD0000D0A907104C0000004E
:10E7D00009B504480068044B03441B689B68029316
:10E7E00009BD0000D0A907105000000009B5044879
:10E7F0000068044B03441B68DB68029309BD0000FA
:10E80000D0A907105000000009B504480068044B67
:10E8100003441B68DB69029309BD0000D0A90710FF
:10E820001800000009B504480068044B03441B6845
:10E830001B6A029309BD0000D0A907101800000050
:10E8400009B504480068044B03441B68DB68029365
:10E8500009BD0000D0A907102400000009B5044834
:10E860000068044B03441B681B69029309BD000048
:10E87000D0A907102400000009B504480068044B23
:10E8800003441B685B69029309BD0000D0A907100F
:10E890002400000009B504480068044B03441B68C9
:10E8A0009B69029309BD0000D0A907102400000055
:10E8B00009B504480068044B03441B68DB690293F4
:10E8C00009BD0000D0A907102400000009B50448C4
:10E8D0000068044B03441B681B6A029309BD0000D7
:10E8E000D0A907102400000009B504480068044BB3
:10E8F00003441B689B6A029309BD0000D0A907105E
:10E900002400000009B504480068044B03441B6858
:10E91000DB6A029309BD0000D0A9071024000000A3
:10E9200009B504480068044B03441B681B6C029340
:10E9300009BD0000D0A907102400000009B5044853
:10E940000068044B03441B681B68029309BD000068
:10E95000D0A907103400000009B504480068044B32
:10E9600003441B685B68029309BD0000D0A907102F
:10E970003400000009B504480068044B03441B68D8
:10E980001B69029309BD0000D0A9071034000000E4
:10E9900009B504480068044B03441B685B69029393
:10E9A00009BD0000D0A907103400000009B50448D3
:10E9B0000068044B03441B689B69029309BD000077
:10E9C000D0A907103400000009B504480068044BC2
:10E9D00003441B68DB69029309BD0000D0A907103E
:10E9E0003400000009B504480068044B03441B6868
:10E9F0001B6A029309BD0000D0A907103400000073
:10EA000009B504480068044B03441B685B68029323
:10EA100009BD0000D0A907100800000009B504488E
:10EA20000068044B03441B685B69029309BD000046
:10EA3000D0A907100800000009B504480068044B7D
:10EA400003441B68DB6A029309BD0000D0A90710CC
:10EA50000800000009B504480068044B03441B6823
:10EA6000D3F88830029309BDD0A907100800000030
:10EA700009B504480068044B03441B68D3F894307C
:10EA8000029309BDD0A907100800000009B5044889
:10EA90000068044B03441B68DB6B029309BD000054
:10EAA000D0A907102C00000009B504480068044BE9
:10EAB00003441B685B6C029309BD0000D0A90710DA
:10EAC0002C00000009B504480068044B03441B688F
:10EAD0005B68029309BD0000D0A907102800000060
:10EAE00009B504480068044B03441B689B68029303
:10EAF00009BD0000D0A907102800000009B504488E
:10EB00000068044B03441B68DB68029309BD0000E6
:10EB1000D0A907102800000009B504480068044B7C
:10EB200003441B681B69029309BD0000D0A90710AC
:10EB30002800000009B504480068044B03441B6822
:10EB40005B69029309BD0000D0A9071028000000EE
:10EB500009B504480068044B03441B689B69029391
:10EB600009BD0000D0A907102800000009B504481D
:10EB70000068044B03441B68DB69029309BD000075
:10EB8000D0A907102800000009B504480068044B0C
:10EB900003441B681B6A029309BD0000D0A907103B
:10EBA0002800000009B504480068044B03441B68B2
:10EBB0001B6B029309BD0000D0A9071028000000BC
:10EBC00009B504480068044B03441B685B6B02935F
:10EBD00009BD0000D0A907102800000009B50448AD
:10EBE0000068044B03441B681B6C029309BD0000C2
:10EBF000D0A907102800000009B504480068044B9C
:10EC000003441B685B6C029309BD0000D0A9071088
:10EC10002800000009B504480068044B03441B6841
:10EC20001B68029309BD0000D0A907100400000072
:10EC300009B504480068044B03441B685B680293F1
:10EC400009BD0000D0A907100400000009B5044860
:10EC50000068044B03441B681B6C029309BD000051
:10EC6000D0A907100400000009B504480068044B4F
:10EC700003441B685B6C029309BD0000D0A9071018
:10EC8000040000000021FFF7C9BE00000023024875
:10EC90000360FFF7BDBC00BF8CAE07101FB50C238F
:10ECA0000021ADF804300368ADF80D108DF8063082
:10ECB000037A8DF80F108DF8073043680293437A7A
:10ECC00001A88DF80C30FFF7EFFE05B05DF804FBEE
:10ECD000002240681146FFF757BF002240681146E6
:10ECE000FFF76EBF00224068FFF75CBF002240685C
:10ECF00081F00101FFF73ABF002340681A46194628
:10ED0000FFF726BF002340681A461946FFF712BFD7
:10ED1000002240681146FFF7FFBE002240681146FE
:10ED2000FFF7DEBE002202214068FFF7E7BE0023A6
:10ED300040681A46FFF7C6BE0322024B5A60024AD9
:10ED40001A60704790AE0710F8FD3F027047F8B5A3
:10ED5000064615460C468F18BC4206D0336830462E
:10ED60009B6814F8011B9847F6E72846F8BD002277
:10ED7000007CFFF7BDBC0021007CFFF7C7BC002171
:10ED8000007CFFF7D1BC0021007CFFF7DBBC002139
:10ED9000007CFFF7E5BC10B504461421FFF79FF98E
:10EDA000204610BD38B5044615464FF47A7300224C
:10EDB000C4E90123094B0846217423602946FFF763
:10EDC000EBFCBF3008D16B69DB0705D56868FFF73E
:10EDD0002FFFE868FFF72CFF204638BD34FE3F02C6
:10EDE0000022007CFFF74CBC0023007C1A46194629
:10EDF000FFF754BC0022007CFFF75EBC0022007CC1
:10EE0000FFF768BC704710B504461821FFF767F993
:10EE1000204610BDF0B5037D0E46062B4FF00004D2
:10EE20008DB000F1040712D000F1080515F8011D9E
:10EE30000A22304600F043F9AF42044419D0002CB6
:10EE4000F4D02E21304600F037F90444EEE72F23AA
:10EE50006A4639460A208DF80040FFF7ABFC684649
:10EE6000FFF716F93368024669463046DB68984773
:10EE7000044620460DB0F0BD10B50446044B1122E7
:10EE8000002140F8043B00F08CFC204610BD00BF80
:10EE90005CFE3F020346074A10B543F8042B01F11C
:10EEA000100251F8044B914243F8044BF9D10A780F
:10EEB0001A7010BD5CFE3F0210B59DF8084044EA90
:10EEC000032343EA0242042342EA016141600375DD
:10EED00010BD000007B5064B0360CB7800938B781C
:10EEE0004A780978FFF7E8FF03B05DF804FB00BF3C
:10EEF0005CFE3F02014B024A1A60704798AE071051
:10EF000068FE3F02002340681A46FFF7DBBD00227F
:10EF100002214068FFF7F2BD002240681146FFF76A
:10EF2000DFBD002240681146FFF7F6BD00234068B0
:10EF30001A461946FFF7FEBD002340681A461946D7
:10EF4000FFF706BE00214068FFF748BE0021406879
:10EF5000FFF752BE0022406881F00101FFF706BEB4
:10EF600000224068FFF71EBE002240681146FFF7EE
:10EF700027BE002240681146FFF706BE2DE9F04388
:10EF800095B014460D460746FFF776FF00211C2278
:10EF90000DA8009100F005FC402320460C930021B1
:10EFA0006B460CAAFFF722FC044600284BD1024610
:10EFB00001216868FFF7B0FD02218046224668689B
:10EFC000FFF7AAFD21468146009E002E3BD0002976
:10EFD00039D17368022B03D00A2B11D0F669F4E7FC
:10EFE000B8F1000FFAD0716906A804313C1D07ADD5
:10EFF000FFF770FF0FCD0FC42B6841462370EDE77C
:10F00000B9F1000FEAD0102201A8746900F0C9FB21
:10F01000062301AD8DF8143004F1080318342A4694
:10F0200018685968083303C2A3421546F7D101A9ED
:10F0300006A83C1D07ADFFF72DFF0FCD0FC42B68B1
:10F0400049462370CAE70098FFF7C2FB384615B05F
:10F05000BDE8F083024B034A1A6000225A607047F1
:10F060009CAE071074FE3F02F8B506460D4600241C
:10F070008F18BD420CD0336830469B6815F8011BD1
:10F080009847031E01DB1C44F3E7002C08BF1C4615
:10F090002046F8BD13B50446084659B10191FEF764
:10F0A000F7FF0246204623680199DB6802B0BDE8FD
:10F0B0001040184702B010BD03689B681847002332
:10F0C000012A98BF0A2230B58BB08DF8243009ACE4
:10F0D0000D46B1FBF2F101FB125303F0FF03092BC4
:10F0E00094BF30333733DBB2AA4204F8013DEFD985
:10F0F0002146FFF7CFFF0BB030BD00000022014BCF
:10F100009A607047A4AE071010B5044608462170F7
:10F11000FFF77AFB00232046636010BD0222002027
:10F12000044B1A60044B054AC3E900009A60FFF7DC
:10F1300067BC00BFC0AE0710B4AE07100000FFFFF1
:10F14000024B1A68024B1A60704700BFD4A907101F
:10F15000C4AE071070474174704708B5007CFFF7D4
:10F16000C3FB20EAE07008BD08B5007CFFF776FB22
:10F1700020EAE07008BD08B5007CFFF78BFB40EA91
:10F18000E07008BD08B5007CFFF776FB40EAE07050
:10F1900008BD007CFFF78CBB37B5457C04462DB11C
:10F1A000207C03B0BDE83040FFF74ABB007C0191F2
:10F1B000FFF79AFB00280199F2DC284603B030BD26
:10F1C00010B504461421FEF78AFF204610BD00004A
:10F1D00010B54FF47A730446084611460022C4E97C
:10F1E0000123044B2074236001236374FFF798FB11
:10F1F000204610BDCCFE3F020023007CFFF782BBFF
:10F200000022FFF7F9BF007CFFF760BB4174704735
:10F210007047704708B50021007CFFF7C7FB40EA44
:10F22000E07008BD08B50121007CFFF7BFFB40EA94
:10F23000E07008BD08B5007CFFF7AAFB20EAE0708B
:10F2400008BD08B5007CFFF795FB20EAE07008BD1B
:10F2500013B50446007C0191FFF79AFB0028019941
:10F2600001DC607C20B1207CFFF7AEFB20EAE0707F
:10F2700002B010BD007CFFF7B5BB10B504461421E9
:10F28000FEF72DFF204610BD10B54FF47A730446EB
:10F2900008460021C4E90113044B207423600123B4
:10F2A00011466374FFF74AFB204610BDFCFE3F0287
:10F2B0000022007CFFF750BB10B504461422002149
:10F2C00000F06FFA204610BD10B588B003A8FFF714
:10F2D000F3FF0C4CD4E88F1F11F001010FD1204631
:10F2E0000191FEF7FEFE019948B103AA0648FFF717
:10F2F000CBFF2046FEF7FAFE044800F03FFA024832
:10F3000008B010BDC8AE0710CCAE071009F73F0219
:10F31000002240681146FFF7FFBB002240681146FB
:10F32000FFF732BC002240681146FFF749BC0022BB
:10F330004068FFF737BC0022406881F00101FFF709
:10F3400015BC002340681A461946FFF701BC00238C
:10F3500040681A461946FFF7EDBB00224068114687
:10F36000FFF7BEBB002202214068FFF7C7BB0023A6
:10F3700040681A46FFF7A6BB0422024B5A60024AB5
:10F380001A607047E0AE07102CFF3F02014B186077
:10F39000704700BFD8A9071008B50F4B43B1FFF75E
:10F3A00093FF03681B699847002801DD00E000BF58
:10F3B0000A4B43B100F050F903681B6998470028D5
:10F3C00001DD00E000BF064B0BB100F08BF9054BEF
:10F3D0000BB100F0BDF908BD000000000000000006
:10F3E000000000000000000008B5FFF7D5FFFFF7A0
:10F3F0002BF9014B186008BDF0AE07100548064A0E
:10F4000008B5121A054900F0BFF9054B054A1A6004
:10F4100008BD00BF00B4071004B4071070FB5F08FC
:10F4200000B407101E1C279A002307B51A466FF078
:10F4300077010093FFF71CFB03B05DF804FB0000AD
:10F4400007B543880A2B08D0502B0BD1094B1B68FA
:10F450004BB103B05DF804EB1847FFF7E5FF03B0CD
:10F460005DF804FB00231A466FF077010093FFF765
:10F47000FFFAF4E7ECAE0710002110B51148FFF7D2
:10F48000F3FB114B1A68114B9A420CBF0122002268
:10F490000F4B1A7001D0FFF7B1FFFFF7C7F8044612
:10F4A00000F088F90B4B13B1204600E000BF0021AB
:10F4B0000848FFF7EBFABDE8104000210648FFF7C7
:10F4C000C9BA00BF85F83F0200B407101E1C279A76
:10F4D000E8AE07100000000039F93F021B2837B5DD
:10F4E000044602D9002003B030BDA0F10F03022B67
:10F4F0000BD9012821D800F05BF80021007CFFF730
:10F500003DF980F00100C0B2EDE7114DD5E88F1F45
:10F5100011F001010BD128460191FEF7E2FD01999E
:10F5200028B10C48FFF7F0FD2846FEF7DFFD094B38
:10F530001878FFF777F90028D4D1083C012C05D8BA
:10F5400000F08AF8007CFFF7C1F9DAE70120CAE78A
:10F5500070AE071074AE07101B2838B504460D4670
:10F560000AD8FF2908D0FFF7B9FF28B1294620465D
:10F57000BDE83840FFF776B838BD704738B50A4B5C
:10F5800004460360012309494361202000F0F4F898
:10F590002025606005492846A56000F0EDF8C4E923
:10F5A0000305204638BD00BF1800010060FF3F0280
:10F5B00030B50E4D87B0D5E88F1F11F0010411D181
:10F5C0002846FEF78EFD68B16846FFF7D7FF6A460A
:10F5D00021460748FFF7E6FB2846FEF787FD05486A
:10F5E00000F0CCF8024807B030BD00BFF4AE071001
:10F5F000F8AE071073FA3F027047000038B51425C3
:10F6000004462A46002100F0CCF825804025074911
:10F6100028462581258200F0AFF80449606028461D
:10F6200000F0AAF8E060204638BD00BF60FF3F024E
:10F630007047704710B50446FFF7E0FF204610BD45
:10F6400010B50446FFF7DAFF204610BD10B504469A
:10F65000FFF7D4FF204610BD30B50E4D87B0D5E87A
:10F660008F1F11F0010411D12846FEF73AFD68B151
:10F6700001A8FFF7DFFF214601AA0748FFF7A8FD11
:10F680002846FEF733FD054800F078F8024807B039
:10F6900030BD00BF0CAF071018AF0710F1FA3F02E2
:10F6A00010B50D4C86B0D4E88F3FDB0711D420464F
:10F6B000FEF717FD68B101A8FFF7C2FF012101AAFB
:10F6C0000648FFF785FD2046FEF710FD044800F0D0
:10F6D00055F8024806B010BD10AF07102CAF071048
:10F6E0002BFB3F0210B5FFF7DBFF074B044653B17E
:10F6F000FFF789FD38B1236820461B699847002829
:10F7000001DD00E000BF10BD0000000010B50D4C91
:10F7100086B0D4E88F3FDB0711D42046FEF7E1FC2A
:10F7200068B101A8FFF792FF022101AA0648FFF77E
:10F730004FFD2046FEF7DAFC044800F01FF80248AF
:10F7400006B010BD14AF071040AF071029FB3F02F1
:10F7500010B5FFF7DBFF074B044653B1FFF753FD2E
:10F7600038B1236820461B699847002801DD00E076
:10F7700000BF10BD00000000FEF7AFBC0023014633
:10F780001A46184600F044B80A44431E914200D17C
:10F79000704710B511F8014B914203F8014FF9D1B0
:10F7A00010BD02440346934200D1704703F8011B89
:10F7B000F9E7000038B5104B04461D68AB6BB3B9D0
:10F7C0001820FFF727FA0246A86320B90B4B422105
:10F7D0000B48FFF73BFA0B490B4BC0E900130B4BEF
:10F7E000002183600B2383810120C2E90401AB6BFC
:10F7F00000221C615A6138BDD8A9071061FF3F0281
:10F8000078FF3F020E33CDAB34126DE6ECDE05001F
:10F810002DE9F843DFF8BC8006461F460D46D8F8B0
:10F820000000914600F058F8264B1C6834B9264C6D
:10F830001C60264B13B11B68C4F8883063681F2B0B
:10F8400007DDD8F8000000F049F84FF0FF30BDE8C0
:10F85000F8835EB3D4F8880088B91D4B23B9D8F873
:10F86000000000F03AF8F0E74FF48470FFF7D2F9A7
:10F870000028F4D00023C0E94033C4F8880063684E
:10F880000122022E40F8239002FA03F200EB8301DA
:10F89000D0F8003143EA0203C0F80031C1F88070AB
:10F8A00002BFD0F804311343C0F804316368D8F8BC
:10F8B00000005A1C0233626044F8235000F00EF836
:10F8C0000020C4E7E0AF071054AF071000000000AD
:10F8D0000DF13F023CAA07107047704770470000C7
:10F8E00099E53F02C1E53F02C5E53F020000000087
:10F8F0004D696B726F4500000000000000000000C1
:10F9000027F23F021DF23F0213F23F0209F23F02CB
:10F91000FDF13F02F1F13F023DF43F0245F43F02A9
:10F92000E5F13F02DDF13F02D3F13F02C9F13F02B1
:10F9300075F43F02000000000000000045F23F02A5
:10F940008FF23F0267F23F0247F23F026FF23F023F
:10F9500077F23F027FF23F0287F23F020000000091
:10F96000000000000DF33F02FDF23F02FFF23F02F4
:10F97000617070000000000000000000FDF33F0215
:10F9800007F43F0211F43F021BF43F0225F43F024B
:10F9900031F43F023DF43F0245F43F024DF43F0293
:10F9A00059F43F0261F43F026BF43F0275F43F02E9
:10F9B00025592D256D2D25645425483A254D3A2588
:10F9C00053257A0061736374696D6500000000005F
:10F9D000000000004DF63F02B9F63F0291F63F02EB
:10F9E00061F53F0261F63F027DF63F026FF63F028E
:10F9F0008BF63F024FF63F0253F63F020000000035
:10FA0000000000000BF73F0273F73F0249F73F0287
:10FA100061F53F023BF73F020DF73F021DF73F0242
:10FA20006DF73F022DF73F0205F73F02000000008F
:10FA30000000000067F83F025DF83F0253F83F0204
:10FA400009F83F0247F83F023BF83F023DF43F020E
:10FA500045F43F022FF83F0227F83F021DF83F020E
:10FA600013F83F0275F43F02005245454E54206D95
:10FA7000616C6C6F632073756363656564656400B6
:10FA80002F746D702F6A656E6B696E732D474343DB
:10FA90002D31302D706970656C696E652D34385F5D
:10FAA00032303230313132345F3136303631383005
:10FAB0003633392F7372632F6E65776C69622F6EE0
:10FAC00065776C69622F6C6962632F7374646C690B
:10FAD000622F72616E642E6300000000ADE63F028B
:10FAE00085F13F0231F23F02EDF33F024DF53F0257
:10FAF000F5F53F0215F63F0239F63F0271F83F0275
:10FB000000000002BCFE3F02DCA90710000000005C
:10FB100000000000000000000000000000000000E5
:10FB200000000000000000000000000000000000D5
:10FB300000000000000000000000000000000000C5
:10FB400000000000000000000000000000000000B5
:10FB500000000000000000000000000000000000A5
:10FB6000000000000000000000000000E4AF0710EB
:04FB70000000000091
:10FFBE000200100000E05F0888E05F0880E53F0265
:10FFCE0001000A00FFFFFFFFFFFF00000102030414
:10FFDE0005060708090A0B0C0D0E0F10111213144B
:0EFFEE0015161718191A1B1C1D1E1F203E0089
:04FFFC0078563412ED
:04000005085FE01898
:00000001FF
